{
  "_format": "hh-sol-artifact-1",
  "contractName": "FountainOfEra",
  "sourceName": "contracts/FOE.sol",
  "abi": [
    {
      "inputs": [
        {
          "internalType": "address",
          "name": "_eraAllocatorAddress",
          "type": "address"
        },
        {
          "internalType": "address",
          "name": "_histopiaNFT",
          "type": "address"
        },
        {
          "internalType": "uint256",
          "name": "_eraPerBlock",
          "type": "uint256"
        }
      ],
      "stateMutability": "nonpayable",
      "type": "constructor"
    },
    {
      "anonymous": false,
      "inputs": [
        {
          "indexed": true,
          "internalType": "address",
          "name": "user",
          "type": "address"
        },
        {
          "indexed": false,
          "internalType": "uint256[]",
          "name": "tokenIds",
          "type": "uint256[]"
        }
      ],
      "name": "Deposit",
      "type": "event"
    },
    {
      "anonymous": false,
      "inputs": [
        {
          "indexed": true,
          "internalType": "address",
          "name": "user",
          "type": "address"
        },
        {
          "indexed": false,
          "internalType": "uint256[]",
          "name": "tokenIds",
          "type": "uint256[]"
        }
      ],
      "name": "EmergencyWithdraw",
      "type": "event"
    },
    {
      "anonymous": false,
      "inputs": [
        {
          "indexed": true,
          "internalType": "address",
          "name": "previousOwner",
          "type": "address"
        },
        {
          "indexed": true,
          "internalType": "address",
          "name": "newOwner",
          "type": "address"
        }
      ],
      "name": "OwnershipTransferred",
      "type": "event"
    },
    {
      "anonymous": false,
      "inputs": [
        {
          "indexed": true,
          "internalType": "address",
          "name": "user",
          "type": "address"
        },
        {
          "indexed": false,
          "internalType": "uint256",
          "name": "tokenId",
          "type": "uint256"
        }
      ],
      "name": "Withdraw",
      "type": "event"
    },
    {
      "inputs": [
        {
          "internalType": "uint256",
          "name": "typeId",
          "type": "uint256"
        }
      ],
      "name": "addHistopianType",
      "outputs": [],
      "stateMutability": "nonpayable",
      "type": "function"
    },
    {
      "inputs": [
        {
          "internalType": "uint256[]",
          "name": "properties",
          "type": "uint256[]"
        }
      ],
      "name": "calculateMilitaryPower",
      "outputs": [
        {
          "internalType": "uint256",
          "name": "militaryPower",
          "type": "uint256"
        }
      ],
      "stateMutability": "pure",
      "type": "function"
    },
    {
      "inputs": [
        {
          "internalType": "uint256",
          "name": "tokenId",
          "type": "uint256"
        }
      ],
      "name": "calculateMilitaryPowerOfTokenId",
      "outputs": [
        {
          "internalType": "uint256",
          "name": "",
          "type": "uint256"
        }
      ],
      "stateMutability": "view",
      "type": "function"
    },
    {
      "inputs": [],
      "name": "currentTotalMilitaryPower",
      "outputs": [
        {
          "internalType": "uint256",
          "name": "",
          "type": "uint256"
        }
      ],
      "stateMutability": "view",
      "type": "function"
    },
    {
      "inputs": [
        {
          "internalType": "uint256[]",
          "name": "tokenIds",
          "type": "uint256[]"
        }
      ],
      "name": "deposit",
      "outputs": [],
      "stateMutability": "nonpayable",
      "type": "function"
    },
    {
      "inputs": [],
      "name": "emergencyWithdraw",
      "outputs": [],
      "stateMutability": "nonpayable",
      "type": "function"
    },
    {
      "inputs": [],
      "name": "era",
      "outputs": [
        {
          "internalType": "contract IERC20",
          "name": "",
          "type": "address"
        }
      ],
      "stateMutability": "view",
      "type": "function"
    },
    {
      "inputs": [],
      "name": "eraAllocator",
      "outputs": [
        {
          "internalType": "contract Allocator",
          "name": "",
          "type": "address"
        }
      ],
      "stateMutability": "view",
      "type": "function"
    },
    {
      "inputs": [],
      "name": "eraPerBlock",
      "outputs": [
        {
          "internalType": "uint256",
          "name": "",
          "type": "uint256"
        }
      ],
      "stateMutability": "view",
      "type": "function"
    },
    {
      "inputs": [],
      "name": "generalAccEraPerShare",
      "outputs": [
        {
          "internalType": "uint256",
          "name": "",
          "type": "uint256"
        }
      ],
      "stateMutability": "view",
      "type": "function"
    },
    {
      "inputs": [
        {
          "internalType": "uint256",
          "name": "_from",
          "type": "uint256"
        },
        {
          "internalType": "uint256",
          "name": "_to",
          "type": "uint256"
        }
      ],
      "name": "getMultiplier",
      "outputs": [
        {
          "internalType": "uint256",
          "name": "",
          "type": "uint256"
        }
      ],
      "stateMutability": "pure",
      "type": "function"
    },
    {
      "inputs": [
        {
          "internalType": "address",
          "name": "user",
          "type": "address"
        }
      ],
      "name": "getTokenIds",
      "outputs": [
        {
          "internalType": "uint256[]",
          "name": "",
          "type": "uint256[]"
        }
      ],
      "stateMutability": "view",
      "type": "function"
    },
    {
      "inputs": [],
      "name": "harvest",
      "outputs": [],
      "stateMutability": "nonpayable",
      "type": "function"
    },
    {
      "inputs": [],
      "name": "histopianCount",
      "outputs": [
        {
          "internalType": "uint256",
          "name": "",
          "type": "uint256"
        }
      ],
      "stateMutability": "view",
      "type": "function"
    },
    {
      "inputs": [
        {
          "internalType": "uint256",
          "name": "",
          "type": "uint256"
        }
      ],
      "name": "histopianTypes",
      "outputs": [
        {
          "internalType": "bool",
          "name": "",
          "type": "bool"
        }
      ],
      "stateMutability": "view",
      "type": "function"
    },
    {
      "inputs": [],
      "name": "lastBlock",
      "outputs": [
        {
          "internalType": "uint256",
          "name": "",
          "type": "uint256"
        }
      ],
      "stateMutability": "view",
      "type": "function"
    },
    {
      "inputs": [],
      "name": "lastRewardBlock",
      "outputs": [
        {
          "internalType": "uint256",
          "name": "",
          "type": "uint256"
        }
      ],
      "stateMutability": "view",
      "type": "function"
    },
    {
      "inputs": [],
      "name": "nftContract",
      "outputs": [
        {
          "internalType": "contract INFT",
          "name": "",
          "type": "address"
        }
      ],
      "stateMutability": "view",
      "type": "function"
    },
    {
      "inputs": [],
      "name": "owner",
      "outputs": [
        {
          "internalType": "address",
          "name": "",
          "type": "address"
        }
      ],
      "stateMutability": "view",
      "type": "function"
    },
    {
      "inputs": [
        {
          "internalType": "address",
          "name": "_user",
          "type": "address"
        }
      ],
      "name": "pendingERA",
      "outputs": [
        {
          "internalType": "uint256",
          "name": "",
          "type": "uint256"
        }
      ],
      "stateMutability": "view",
      "type": "function"
    },
    {
      "inputs": [],
      "name": "renounceOwnership",
      "outputs": [],
      "stateMutability": "nonpayable",
      "type": "function"
    },
    {
      "inputs": [
        {
          "internalType": "address",
          "name": "newOwner",
          "type": "address"
        }
      ],
      "name": "transferOwnership",
      "outputs": [],
      "stateMutability": "nonpayable",
      "type": "function"
    },
    {
      "inputs": [],
      "name": "updatePool",
      "outputs": [],
      "stateMutability": "nonpayable",
      "type": "function"
    },
    {
      "inputs": [
        {
          "internalType": "address",
          "name": "",
          "type": "address"
        }
      ],
      "name": "userInfo",
      "outputs": [
        {
          "internalType": "uint256",
          "name": "militaryPower",
          "type": "uint256"
        },
        {
          "internalType": "uint256",
          "name": "rewardDebt",
          "type": "uint256"
        }
      ],
      "stateMutability": "view",
      "type": "function"
    },
    {
      "inputs": [
        {
          "internalType": "uint256[]",
          "name": "tokenIndices",
          "type": "uint256[]"
        }
      ],
      "name": "withdraw",
      "outputs": [],
      "stateMutability": "nonpayable",
      "type": "function"
    }
  ],
  "bytecode": "0x60806040523480156200001157600080fd5b5060405162001b1d38038062001b1d8339810160408190526200003491620001b1565b62000048620000426200011c565b62000120565b600280546001600160a01b0319166001600160a01b038581169190911791829055600483815560408051631a205bc560e31b81529051939092169263d102de289280830192602092918290030181600087803b158015620000a857600080fd5b505af1158015620000bd573d6000803e3d6000fd5b505050506040513d601f19601f82011682018060405250810190620000e391906200018d565b600380546001600160a01b039283166001600160a01b031991821617909155600180549490921693169290921790915550620001f19050565b3390565b600080546001600160a01b038381166001600160a01b0319831681178455604051919092169283917f8be0079c531659141344cd1fd0a4f28419497f9722a3daafe3b4186f6b6457e09190a35050565b80516001600160a01b03811681146200018857600080fd5b919050565b6000602082840312156200019f578081fd5b620001aa8262000170565b9392505050565b600080600060608486031215620001c6578182fd5b620001d18462000170565b9250620001e16020850162000170565b9150604084015190509250925092565b61191c80620002016000396000f3fe608060405234801561001057600080fd5b50600436106101335760003560e01c806305de54c914610138578063143e55e0146101565780631959a0021461016b57806340de5fe21461018c5780634641257d146101ac578063598b8e71146101b65780635b1d7813146101c9578063715018a6146101d157806379a1ecd0146101d9578063806b984f146101e157806386aeab5b146101e95780638da5cb5b146101f15780638dbb1e3a146101f957806392846b8a1461020c578063978dcfa01461021f578063983d95ce14610232578063a9f8d18114610245578063b80224be1461024d578063cdf5aa4514610260578063ce28135e14610268578063d004b0361461027b578063d56d229d1461029b578063db2e21bc146102a3578063e3161ddd146102ab578063f2fde38b146102b3575b600080fd5b6101406102c6565b60405161014d91906117b0565b60405180910390f35b61015e6102cc565b60405161014d91906115b9565b61017e61017936600461139c565b6102db565b60405161014d9291906117b9565b61019f61019a366004611568565b6102f4565b60405161014d91906116c3565b6101b4610309565b005b6101b46101c43660046113c3565b61038a565b61015e6106ab565b6101b46106ba565b6101406106ce565b6101406106d4565b6101406106da565b61015e6106e0565b610140610207366004611598565b6106ef565b6101b461021a366004611568565b610702565b61014061022d366004611431565b610725565b6101b46102403660046113c3565b61077f565b610140610cf0565b61014061025b366004611568565b610cf6565b610140610d87565b61014061027636600461139c565b610d8d565b61028e61028936600461139c565b610e41565b60405161014d9190611644565b61015e610eb0565b6101b4610ebf565b6101b461101e565b6101b46102c136600461139c565b6110fd565b60095481565b6003546001600160a01b031681565b600a602052600090815260409020805460019091015482565b600b6020526000908152604090205460ff1681565b336000908152600a6020526040902061032061101e565b6000816001015464e8d4a51000600654846000015461033f9190611852565b6103499190611832565b6103539190611871565b905061035f3382611137565b600654825464e8d4a510009161037491611852565b61037e9190611832565b82600101819055505050565b336000908152600a602052604090206103a161101e565b8054156103e9576000816001015464e8d4a5100060065484600001546103c79190611852565b6103d19190611832565b6103db9190611871565b90506103e73382611137565b505b82829050600960008282546103fe919061181a565b9091555060009050805b8381101561061257600154600b906000906001600160a01b0316630d52429488888681811061044757634e487b7160e01b600052603260045260246000fd5b905060200201356040518263ffffffff1660e01b815260040161046a91906117b0565b602060405180830381600087803b15801561048457600080fd5b505af1158015610498573d6000803e3d6000fd5b505050506040513d601f19601f820116820180604052508101906104bc9190611580565b815260208101919091526040016000205460ff166104f55760405162461bcd60e51b81526004016104ec9061177b565b60405180910390fd5b6001546001600160a01b03166323b872dd333088888681811061052857634e487b7160e01b600052603260045260246000fd5b905060200201356040518463ffffffff1660e01b815260040161054d939291906115cd565b600060405180830381600087803b15801561056757600080fd5b505af115801561057b573d6000803e3d6000fd5b505050506105ae8585838181106105a257634e487b7160e01b600052603260045260246000fd5b90506020020135610cf6565b6105b8908361181a565b9150826002018585838181106105de57634e487b7160e01b600052603260045260246000fd5b835460018101855560009485526020948590209190940292909201359190920155508061060a8161189f565b915050610408565b5080826000016000828254610627919061181a565b925050819055508060086000828254610640919061181a565b9091555050600654825464e8d4a510009161065a91611852565b6106649190611832565b600183015560405133907fff409334d2645d660e7cfa41a637aa21f45a79ecb9660a6931aa923bf75577c79061069d908790879061160a565b60405180910390a250505050565b6002546001600160a01b031681565b6106c26112d7565b6106cc6000611316565b565b60085481565b60075481565b60065481565b6000546001600160a01b031690565b60006106fb8383611871565b9392505050565b61070a6112d7565b6000908152600b60205260409020805460ff19166001179055565b6000805b82518110156107795782818151811061075257634e487b7160e01b600052603260045260246000fd5b602002602001015182610765919061181a565b9150806107718161189f565b915050610729565b50919050565b336000908152600a6020526040902061079661101e565b6000816001015464e8d4a5100060065484600001546107b59190611852565b6107bf9190611832565b6107c99190611871565b90506107d53382611137565b83839050600960008282546107ea9190611871565b9091555060009050805b84811015610a5857600284015486868381811061082157634e487b7160e01b600052603260045260246000fd5b90506020020135106108455760405162461bcd60e51b81526004016104ec906116ce565b337f884edad9ce6fa2440d8a54cc123490eb96d2768479d49ff9c7366125a94243646002860188888581811061088b57634e487b7160e01b600052603260045260246000fd5b90506020020135815481106108b057634e487b7160e01b600052603260045260246000fd5b90600052602060002001546040516108c891906117b0565b60405180910390a26001546001600160a01b03166323b872dd3033600288018a8a8781811061090757634e487b7160e01b600052603260045260246000fd5b905060200201358154811061092c57634e487b7160e01b600052603260045260246000fd5b90600052602060002001546040518463ffffffff1660e01b8152600401610955939291906115cd565b600060405180830381600087803b15801561096f57600080fd5b505af1158015610983573d6000803e3d6000fd5b505050506109e3846002018787848181106109ae57634e487b7160e01b600052603260045260246000fd5b90506020020135815481106109d357634e487b7160e01b600052603260045260246000fd5b9060005260206000200154610cf6565b6109ed908361181a565b9150600084600201878784818110610a1557634e487b7160e01b600052603260045260246000fd5b9050602002013581548110610a3a57634e487b7160e01b600052603260045260246000fd5b60009182526020909120015580610a508161189f565b9150506107f4565b5080836000016000828254610a6d9190611871565b925050819055508060086000828254610a869190611871565b909155508490505b8015610cc1576000610aa1600183611871565b6002860154909150610ab590600190611871565b878783818110610ad557634e487b7160e01b600052603260045260246000fd5b905060200201351415610b1e5784600201805480610b0357634e487b7160e01b600052603160045260246000fd5b60019003818190600052602060002001600090559055610cae565b6002850154610b2f90600190611871565b878783818110610b4f57634e487b7160e01b600052603260045260246000fd5b905060200201351015610cae5760005b80158015610b705750600286015415155b15610bee57600286018054610b8790600190611871565b81548110610ba557634e487b7160e01b600052603260045260246000fd5b9060005260206000200154905085600201805480610bd357634e487b7160e01b600052603160045260246000fd5b60019003818190600052602060002001600090559055610b5f565b6002860154610bfe575050610cc1565b6002860154888884818110610c2357634e487b7160e01b600052603260045260246000fd5b905060200201351015610c8b578086600201898985818110610c5557634e487b7160e01b600052603260045260246000fd5b9050602002013581548110610c7a57634e487b7160e01b600052603260045260246000fd5b600091825260209091200155610cac565b8015610cac5760028601805460018101825560009182526020909120018190555b505b5080610cb981611888565b915050610a8e565b50600654835464e8d4a5100091610cd791611852565b610ce19190611832565b83600101819055505050505050565b60055481565b60015460405163a3f61b3160e01b8152600091610d81916001600160a01b039091169063a3f61b3190610d2d9086906004016117b0565b60006040518083038186803b158015610d4557600080fd5b505afa158015610d59573d6000803e3d6000fd5b505050506040513d6000823e601f3d908101601f1916820160405261022d91908101906114c5565b92915050565b60045481565b6001600160a01b0381166000908152600a6020526040812060065460085460055443118015610dbb57508015155b15610e0b576000610dce600554436106ef565b9050600060045482610de09190611852565b905082610df28264e8d4a51000611852565b610dfc9190611832565b610e06908561181a565b935050505b6001830154835464e8d4a5100090610e24908590611852565b610e2e9190611832565b610e389190611871565b95945050505050565b6001600160a01b0381166000908152600a6020908152604091829020600201805483518184028101840190945280845260609392830182828015610ea457602002820191906000526020600020905b815481526020019060010190808311610e90575b50505050509050919050565b6001546001600160a01b031681565b336000908152600a60205260408120905b6002820154811015610f88576001546002830180546001600160a01b03909216916323b872dd91309133919086908110610f1a57634e487b7160e01b600052603260045260246000fd5b90600052602060002001546040518463ffffffff1660e01b8152600401610f43939291906115cd565b600060405180830381600087803b158015610f5d57600080fd5b505af1158015610f71573d6000803e3d6000fd5b505050508080610f809061189f565b915050610ed0565b50336001600160a01b03167f1ad6082f7aa3e32095e38fd4c0bf76fa2bb7584e81474cf3519d2dea4081181c82600201604051610fc59190611688565b60405180910390a2600281015460098054600090610fe4908490611871565b90915550610ff8905060028201600061136a565b80546008805460009061100c908490611871565b90915550506000600182018190559055565b600554431161102c576106cc565b60085461103c57436005556106cc565b600061104a600554436106ef565b905060006004548261105c9190611852565b6002546040516301e0b8b960e11b81529192506001600160a01b0316906303c171729061108f90309085906004016115f1565b600060405180830381600087803b1580156110a957600080fd5b505af11580156110bd573d6000803e3d6000fd5b505050506008548164e8d4a510006110d59190611852565b6110df9190611832565b600660008282546110f0919061181a565b9091555050436005555050565b6111056112d7565b6001600160a01b03811661112b5760405162461bcd60e51b81526004016104ec90611700565b61113481611316565b50565b6003546040516370a0823160e01b81526000916001600160a01b0316906370a08231906111689030906004016115b9565b60206040518083038186803b15801561118057600080fd5b505afa158015611194573d6000803e3d6000fd5b505050506040513d601f19601f820116820180604052508101906111b89190611580565b90508082111561124c5760035460405163a9059cbb60e01b81526001600160a01b039091169063a9059cbb906111f490869085906004016115f1565b602060405180830381600087803b15801561120e57600080fd5b505af1158015611222573d6000803e3d6000fd5b505050506040513d601f19601f820116820180604052508101906112469190611548565b506112d2565b60035460405163a9059cbb60e01b81526001600160a01b039091169063a9059cbb9061127e90869086906004016115f1565b602060405180830381600087803b15801561129857600080fd5b505af11580156112ac573d6000803e3d6000fd5b505050506040513d601f19601f820116820180604052508101906112d09190611548565b505b505050565b6112df611366565b6001600160a01b03166112f06106e0565b6001600160a01b0316146106cc5760405162461bcd60e51b81526004016104ec90611746565b600080546001600160a01b038381166001600160a01b0319831681178455604051919092169283917f8be0079c531659141344cd1fd0a4f28419497f9722a3daafe3b4186f6b6457e09190a35050565b3390565b508054600082559060005260206000209081019061113491905b808211156113985760008155600101611384565b5090565b6000602082840312156113ad578081fd5b81356001600160a01b03811681146106fb578182fd5b600080602083850312156113d5578081fd5b82356001600160401b03808211156113eb578283fd5b818501915085601f8301126113fe578283fd5b81358181111561140c578384fd5b866020808302850101111561141f578384fd5b60209290920196919550909350505050565b60006020808385031215611443578182fd5b82356001600160401b03811115611458578283fd5b8301601f81018513611468578283fd5b803561147b611476826117f7565b6117c7565b8181528381019083850185840285018601891015611497578687fd5b8694505b838510156114b957803583526001949094019391850191850161149b565b50979650505050505050565b600060208083850312156114d7578182fd5b82516001600160401b038111156114ec578283fd5b8301601f810185136114fc578283fd5b805161150a611476826117f7565b8181528381019083850185840285018601891015611526578687fd5b8694505b838510156114b957805183526001949094019391850191850161152a565b600060208284031215611559578081fd5b815180151581146106fb578182fd5b600060208284031215611579578081fd5b5035919050565b600060208284031215611591578081fd5b5051919050565b600080604083850312156115aa578182fd5b50508035926020909101359150565b6001600160a01b0391909116815260200190565b6001600160a01b039384168152919092166020820152604081019190915260600190565b6001600160a01b03929092168252602082015260400190565b6020808252810182905260006001600160fb1b03831115611629578081fd5b60208302808560408501379190910160400190815292915050565b6020808252825182820181905260009190848201906040850190845b8181101561167c57835183529284019291840191600101611660565b50909695505050505050565b6020808252825482820181905260008481528281209092916040850190845b8181101561167c578354835260019384019392850192016116a7565b901515815260200190565b60208082526018908201527708c9e8a744092dcecc2d8d2c840e8ded6cadc40d2dcc8caf60431b604082015260600190565b60208082526026908201527f4f776e61626c653a206e6577206f776e657220697320746865207a65726f206160408201526564647265737360d01b606082015260800190565b6020808252818101527f4f776e61626c653a2063616c6c6572206973206e6f7420746865206f776e6572604082015260600190565b6020808252818101527f464f453a20596f7572204e4654206973206e6f7420486973746f7069616e212e604082015260600190565b90815260200190565b918252602082015260400190565b604051601f8201601f191681016001600160401b03811182821017156117ef576117ef6118d0565b604052919050565b60006001600160401b03821115611810576118106118d0565b5060209081020190565b6000821982111561182d5761182d6118ba565b500190565b60008261184d57634e487b7160e01b81526012600452602481fd5b500490565b600081600019048311821515161561186c5761186c6118ba565b500290565b600082821015611883576118836118ba565b500390565b600081611897576118976118ba565b506000190190565b60006000198214156118b3576118b36118ba565b5060010190565b634e487b7160e01b600052601160045260246000fd5b634e487b7160e01b600052604160045260246000fdfea26469706673582212200d9febcacbd4cffec955c1cea055ace5e7470793e962f4afea2ae14c74ee2dbd64736f6c63430008010033",
  "linkReferences": {},
  "deployedLinkReferences": {}
}