{
  "_format": "hh-sol-artifact-1",
  "contractName": "FountainOfEra",
  "sourceName": "contracts/FOE.sol",
  "abi": [
    {
      "inputs": [
        {
          "internalType": "address",
          "name": "_eraAllocatorAddress",
          "type": "address"
        },
        {
          "internalType": "address",
          "name": "_histopiaNFT",
          "type": "address"
        },
        {
          "internalType": "uint256",
          "name": "_eraPerBlock",
          "type": "uint256"
        }
      ],
      "stateMutability": "nonpayable",
      "type": "constructor"
    },
    {
      "anonymous": false,
      "inputs": [
        {
          "indexed": true,
          "internalType": "address",
          "name": "user",
          "type": "address"
        },
        {
          "indexed": false,
          "internalType": "uint256[]",
          "name": "tokenIds",
          "type": "uint256[]"
        }
      ],
      "name": "Deposit",
      "type": "event"
    },
    {
      "anonymous": false,
      "inputs": [
        {
          "indexed": true,
          "internalType": "address",
          "name": "user",
          "type": "address"
        },
        {
          "indexed": false,
          "internalType": "uint256[]",
          "name": "tokenIds",
          "type": "uint256[]"
        }
      ],
      "name": "EmergencyWithdraw",
      "type": "event"
    },
    {
      "anonymous": false,
      "inputs": [
        {
          "indexed": true,
          "internalType": "address",
          "name": "previousOwner",
          "type": "address"
        },
        {
          "indexed": true,
          "internalType": "address",
          "name": "newOwner",
          "type": "address"
        }
      ],
      "name": "OwnershipTransferred",
      "type": "event"
    },
    {
      "anonymous": false,
      "inputs": [
        {
          "indexed": true,
          "internalType": "address",
          "name": "user",
          "type": "address"
        },
        {
          "indexed": false,
          "internalType": "uint256",
          "name": "tokenId",
          "type": "uint256"
        }
      ],
      "name": "Withdraw",
      "type": "event"
    },
    {
      "inputs": [
        {
          "internalType": "uint256",
          "name": "typeId",
          "type": "uint256"
        }
      ],
      "name": "addHistopianType",
      "outputs": [],
      "stateMutability": "nonpayable",
      "type": "function"
    },
    {
      "inputs": [
        {
          "internalType": "uint256[]",
          "name": "properties",
          "type": "uint256[]"
        }
      ],
      "name": "calculateMilitaryPower",
      "outputs": [
        {
          "internalType": "uint256",
          "name": "militaryPower",
          "type": "uint256"
        }
      ],
      "stateMutability": "pure",
      "type": "function"
    },
    {
      "inputs": [
        {
          "internalType": "uint256",
          "name": "tokenId",
          "type": "uint256"
        }
      ],
      "name": "calculateMilitaryPowerOfTokenId",
      "outputs": [
        {
          "internalType": "uint256",
          "name": "",
          "type": "uint256"
        }
      ],
      "stateMutability": "view",
      "type": "function"
    },
    {
      "inputs": [],
      "name": "currentTotalMilitaryPower",
      "outputs": [
        {
          "internalType": "uint256",
          "name": "",
          "type": "uint256"
        }
      ],
      "stateMutability": "view",
      "type": "function"
    },
    {
      "inputs": [
        {
          "internalType": "uint256[]",
          "name": "tokenIds",
          "type": "uint256[]"
        }
      ],
      "name": "deposit",
      "outputs": [],
      "stateMutability": "nonpayable",
      "type": "function"
    },
    {
      "inputs": [],
      "name": "emergencyWithdraw",
      "outputs": [],
      "stateMutability": "nonpayable",
      "type": "function"
    },
    {
      "inputs": [],
      "name": "era",
      "outputs": [
        {
          "internalType": "contract IERC20",
          "name": "",
          "type": "address"
        }
      ],
      "stateMutability": "view",
      "type": "function"
    },
    {
      "inputs": [],
      "name": "eraAllocator",
      "outputs": [
        {
          "internalType": "contract Allocator",
          "name": "",
          "type": "address"
        }
      ],
      "stateMutability": "view",
      "type": "function"
    },
    {
      "inputs": [],
      "name": "eraPerBlock",
      "outputs": [
        {
          "internalType": "uint256",
          "name": "",
          "type": "uint256"
        }
      ],
      "stateMutability": "view",
      "type": "function"
    },
    {
      "inputs": [],
      "name": "generalAccEraPerShare",
      "outputs": [
        {
          "internalType": "uint256",
          "name": "",
          "type": "uint256"
        }
      ],
      "stateMutability": "view",
      "type": "function"
    },
    {
      "inputs": [
        {
          "internalType": "uint256",
          "name": "_from",
          "type": "uint256"
        },
        {
          "internalType": "uint256",
          "name": "_to",
          "type": "uint256"
        }
      ],
      "name": "getMultiplier",
      "outputs": [
        {
          "internalType": "uint256",
          "name": "",
          "type": "uint256"
        }
      ],
      "stateMutability": "pure",
      "type": "function"
    },
    {
      "inputs": [
        {
          "internalType": "address",
          "name": "user",
          "type": "address"
        }
      ],
      "name": "getTokenIds",
      "outputs": [
        {
          "internalType": "uint256[]",
          "name": "",
          "type": "uint256[]"
        }
      ],
      "stateMutability": "view",
      "type": "function"
    },
    {
      "inputs": [
        {
          "internalType": "uint256",
          "name": "",
          "type": "uint256"
        }
      ],
      "name": "histopianTypes",
      "outputs": [
        {
          "internalType": "bool",
          "name": "",
          "type": "bool"
        }
      ],
      "stateMutability": "view",
      "type": "function"
    },
    {
      "inputs": [],
      "name": "lastBlock",
      "outputs": [
        {
          "internalType": "uint256",
          "name": "",
          "type": "uint256"
        }
      ],
      "stateMutability": "view",
      "type": "function"
    },
    {
      "inputs": [],
      "name": "lastRewardBlock",
      "outputs": [
        {
          "internalType": "uint256",
          "name": "",
          "type": "uint256"
        }
      ],
      "stateMutability": "view",
      "type": "function"
    },
    {
      "inputs": [],
      "name": "nftContract",
      "outputs": [
        {
          "internalType": "contract INFT",
          "name": "",
          "type": "address"
        }
      ],
      "stateMutability": "view",
      "type": "function"
    },
    {
      "inputs": [],
      "name": "owner",
      "outputs": [
        {
          "internalType": "address",
          "name": "",
          "type": "address"
        }
      ],
      "stateMutability": "view",
      "type": "function"
    },
    {
      "inputs": [
        {
          "internalType": "address",
          "name": "_user",
          "type": "address"
        }
      ],
      "name": "pendingERA",
      "outputs": [
        {
          "internalType": "uint256",
          "name": "",
          "type": "uint256"
        }
      ],
      "stateMutability": "view",
      "type": "function"
    },
    {
      "inputs": [],
      "name": "renounceOwnership",
      "outputs": [],
      "stateMutability": "nonpayable",
      "type": "function"
    },
    {
      "inputs": [
        {
          "internalType": "address",
          "name": "newOwner",
          "type": "address"
        }
      ],
      "name": "transferOwnership",
      "outputs": [],
      "stateMutability": "nonpayable",
      "type": "function"
    },
    {
      "inputs": [],
      "name": "updatePool",
      "outputs": [],
      "stateMutability": "nonpayable",
      "type": "function"
    },
    {
      "inputs": [
        {
          "internalType": "address",
          "name": "",
          "type": "address"
        }
      ],
      "name": "userInfo",
      "outputs": [
        {
          "internalType": "uint256",
          "name": "militaryPower",
          "type": "uint256"
        },
        {
          "internalType": "uint256",
          "name": "rewardDebt",
          "type": "uint256"
        }
      ],
      "stateMutability": "view",
      "type": "function"
    },
    {
      "inputs": [
        {
          "internalType": "uint256[]",
          "name": "tokenIndices",
          "type": "uint256[]"
        }
      ],
      "name": "withdraw",
      "outputs": [],
      "stateMutability": "nonpayable",
      "type": "function"
    }
  ],
  "bytecode": "0x60806040523480156200001157600080fd5b5060405162001b3138038062001b318339810160408190526200003491620001b1565b62000048620000426200011c565b62000120565b600280546001600160a01b0319166001600160a01b038581169190911791829055600483815560408051631a205bc560e31b81529051939092169263d102de289280830192602092918290030181600087803b158015620000a857600080fd5b505af1158015620000bd573d6000803e3d6000fd5b505050506040513d601f19601f82011682018060405250810190620000e391906200018d565b600380546001600160a01b039283166001600160a01b031991821617909155600180549490921693169290921790915550620001f19050565b3390565b600080546001600160a01b038381166001600160a01b0319831681178455604051919092169283917f8be0079c531659141344cd1fd0a4f28419497f9722a3daafe3b4186f6b6457e09190a35050565b80516001600160a01b03811681146200018857600080fd5b919050565b6000602082840312156200019f578081fd5b620001aa8262000170565b9392505050565b600080600060608486031215620001c6578182fd5b620001d18462000170565b9250620001e16020850162000170565b9150604084015190509250925092565b61193080620002016000396000f3fe608060405234801561001057600080fd5b506004361061018d5760003560e01c806392846b8a116100e3578063ce28135e1161008c578063db2e21bc11610066578063db2e21bc146102ed578063e3161ddd146102f5578063f2fde38b146102fd5761018d565b8063ce28135e146102b2578063d004b036146102c5578063d56d229d146102e55761018d565b8063a9f8d181116100bd578063a9f8d1811461028f578063b80224be14610297578063cdf5aa45146102aa5761018d565b806392846b8a14610256578063978dcfa014610269578063983d95ce1461027c5761018d565b8063715018a61161014557806386aeab5b1161011f57806386aeab5b146102335780638da5cb5b1461023b5780638dbb1e3a146102435761018d565b8063715018a61461020e57806379a1ecd014610216578063806b984f1461022b5761018d565b806340de5fe21161017657806340de5fe2146101d1578063598b8e71146101f15780635b1d7813146102065761018d565b8063143e55e0146101925780631959a002146101b0575b600080fd5b61019a610310565b6040516101a79190611596565b60405180910390f35b6101c36101be366004611376565b61031f565b6040516101a79291906117cb565b6101e46101df366004611545565b610338565b6040516101a791906116b9565b6102046101ff36600461139d565b61034d565b005b61019a610653565b610204610662565b61021e610676565b6040516101a791906117c2565b61021e61067c565b61021e610682565b61019a610688565b61021e610251366004611575565b610697565b610204610264366004611545565b6106aa565b61021e61027736600461140c565b6106cd565b61020461028a36600461139d565b610727565b61021e610c9d565b61021e6102a5366004611545565b610ca3565b61021e610d4d565b61021e6102c0366004611376565b610d53565b6102d86102d3366004611376565b610e07565b6040516101a7919061163a565b61019a610e76565b610204610e85565b610204610fae565b61020461030b366004611376565b6110a6565b6003546001600160a01b031681565b6009602052600090815260409020805460019091015482565b600a6020526000908152604090205460ff1681565b336000908152600960205260409020610364610fae565b8054156103ac576000816001015464e8d4a51000600654846000015461038a9190611866565b6103949190611846565b61039e9190611885565b90506103aa33826110e0565b505b6000805b838110156105ba57600154600a906000906001600160a01b0316630d5242948888868181106103ef57634e487b7160e01b600052603260045260246000fd5b905060200201356040518263ffffffff1660e01b815260040161041291906117c2565b602060405180830381600087803b15801561042c57600080fd5b505af1158015610440573d6000803e3d6000fd5b505050506040513d601f19601f82011682018060405250810190610464919061155d565b815260208101919091526040016000205460ff1661049d5760405162461bcd60e51b81526004016104949061178d565b60405180910390fd5b6001546001600160a01b03166323b872dd33308888868181106104d057634e487b7160e01b600052603260045260246000fd5b905060200201356040518463ffffffff1660e01b81526004016104f5939291906115aa565b600060405180830381600087803b15801561050f57600080fd5b505af1158015610523573d6000803e3d6000fd5b5050505061055685858381811061054a57634e487b7160e01b600052603260045260246000fd5b90506020020135610ca3565b610560908361182e565b91508260020185858381811061058657634e487b7160e01b600052603260045260246000fd5b83546001810185556000948552602094859020919094029290920135919092015550806105b2816118b3565b9150506103b0565b50808260000160008282546105cf919061182e565b9250508190555080600860008282546105e8919061182e565b9091555050600654825464e8d4a510009161060291611866565b61060c9190611846565b600183015560405133907fff409334d2645d660e7cfa41a637aa21f45a79ecb9660a6931aa923bf75577c79061064590879087906115e7565b60405180910390a250505050565b6002546001600160a01b031681565b61066a611299565b61067460006112d8565b565b60085481565b60075481565b60065481565b6000546001600160a01b031690565b60006106a38383611885565b9392505050565b6106b2611299565b6000908152600a60205260409020805460ff19166001179055565b6000805b8251811015610721578281815181106106fa57634e487b7160e01b600052603260045260246000fd5b60200260200101518261070d919061182e565b915080610719816118b3565b9150506106d1565b50919050565b33600090815260096020526040902061073e610fae565b6000816001015464e8d4a51000600654846000015461075d9190611866565b6107679190611846565b6107719190611885565b905061077d33826110e0565b6000805b848110156109e55760028401548686838181106107ae57634e487b7160e01b600052603260045260246000fd5b90506020020135106107d25760405162461bcd60e51b8152600401610494906116c4565b337f884edad9ce6fa2440d8a54cc123490eb96d2768479d49ff9c7366125a94243646002860188888581811061081857634e487b7160e01b600052603260045260246000fd5b905060200201358154811061083d57634e487b7160e01b600052603260045260246000fd5b906000526020600020015460405161085591906117c2565b60405180910390a26001546001600160a01b03166323b872dd3033600288018a8a8781811061089457634e487b7160e01b600052603260045260246000fd5b90506020020135815481106108b957634e487b7160e01b600052603260045260246000fd5b90600052602060002001546040518463ffffffff1660e01b81526004016108e2939291906115aa565b600060405180830381600087803b1580156108fc57600080fd5b505af1158015610910573d6000803e3d6000fd5b505050506109708460020187878481811061093b57634e487b7160e01b600052603260045260246000fd5b905060200201358154811061096057634e487b7160e01b600052603260045260246000fd5b9060005260206000200154610ca3565b61097a908361182e565b91506000846002018787848181106109a257634e487b7160e01b600052603260045260246000fd5b90506020020135815481106109c757634e487b7160e01b600052603260045260246000fd5b600091825260209091200155806109dd816118b3565b915050610781565b50808360000160008282546109fa9190611885565b925050819055508060086000828254610a139190611885565b909155508490505b8015610c6e576000610a2e600183611885565b6002860154909150610a4290600190611885565b878783818110610a6257634e487b7160e01b600052603260045260246000fd5b905060200201351415610aab5784600201805480610a9057634e487b7160e01b600052603160045260246000fd5b60019003818190600052602060002001600090559055610c5b565b6002850154610abc90600190611885565b878783818110610adc57634e487b7160e01b600052603260045260246000fd5b905060200201351015610c5b5760028501805460009190610aff90600190611885565b81548110610b1d57634e487b7160e01b600052603260045260246000fd5b906000526020600020015490505b80158015610b3c5750600286015415155b15610bbc5785600201805480610b6257634e487b7160e01b600052603160045260246000fd5b600082815260208120820160001990810191909155019055600286018054610b8c90600190611885565b81548110610baa57634e487b7160e01b600052603260045260246000fd5b90600052602060002001549050610b2b565b6002860154610bcc575050610c6e565b8086600201898985818110610bf157634e487b7160e01b600052603260045260246000fd5b9050602002013581548110610c1657634e487b7160e01b600052603260045260246000fd5b60009182526020909120015560028601805480610c4357634e487b7160e01b600052603160045260246000fd5b60019003818190600052602060002001600090559055505b5080610c668161189c565b915050610a1b565b50600654835464e8d4a5100091610c8491611866565b610c8e9190611846565b83600101819055505050505050565b60055481565b6001546040517fa3f61b31000000000000000000000000000000000000000000000000000000008152600091610d47916001600160a01b039091169063a3f61b3190610cf39086906004016117c2565b60006040518083038186803b158015610d0b57600080fd5b505afa158015610d1f573d6000803e3d6000fd5b505050506040513d6000823e601f3d908101601f1916820160405261027791908101906114a1565b92915050565b60045481565b6001600160a01b038116600090815260096020526040812060065460085460055443118015610d8157508015155b15610dd1576000610d9460055443610697565b9050600060045482610da69190611866565b905082610db88264e8d4a51000611866565b610dc29190611846565b610dcc908561182e565b935050505b6001830154835464e8d4a5100090610dea908590611866565b610df49190611846565b610dfe9190611885565b95945050505050565b6001600160a01b038116600090815260096020908152604091829020600201805483518184028101840190945280845260609392830182828015610e6a57602002820191906000526020600020905b815481526020019060010190808311610e56575b50505050509050919050565b6001546001600160a01b031681565b336000908152600960205260408120905b6002820154811015610f4e576001546002830180546001600160a01b03909216916323b872dd91309133919086908110610ee057634e487b7160e01b600052603260045260246000fd5b90600052602060002001546040518463ffffffff1660e01b8152600401610f09939291906115aa565b600060405180830381600087803b158015610f2357600080fd5b505af1158015610f37573d6000803e3d6000fd5b505050508080610f46906118b3565b915050610e96565b50336001600160a01b03167f1ad6082f7aa3e32095e38fd4c0bf76fa2bb7584e81474cf3519d2dea4081181c82600201604051610f8b919061167e565b60405180910390a2610fa1600282016000611344565b6000600182018190559055565b6005544311610fbc57610674565b600854610fcc5743600555610674565b6000610fda60055443610697565b9050600060045482610fec9190611866565b6002546040517f03c171720000000000000000000000000000000000000000000000000000000081529192506001600160a01b0316906303c171729061103890309085906004016115ce565b600060405180830381600087803b15801561105257600080fd5b505af1158015611066573d6000803e3d6000fd5b505050506008548164e8d4a5100061107e9190611866565b6110889190611846565b60066000828254611099919061182e565b9091555050436005555050565b6110ae611299565b6001600160a01b0381166110d45760405162461bcd60e51b8152600401610494906116fb565b6110dd816112d8565b50565b6003546040517f70a082310000000000000000000000000000000000000000000000000000000081526000916001600160a01b0316906370a082319061112a903090600401611596565b60206040518083038186803b15801561114257600080fd5b505afa158015611156573d6000803e3d6000fd5b505050506040513d601f19601f8201168201806040525081019061117a919061155d565b90508082111561120e5760035460405163a9059cbb60e01b81526001600160a01b039091169063a9059cbb906111b690869085906004016115ce565b602060405180830381600087803b1580156111d057600080fd5b505af11580156111e4573d6000803e3d6000fd5b505050506040513d601f19601f820116820180604052508101906112089190611525565b50611294565b60035460405163a9059cbb60e01b81526001600160a01b039091169063a9059cbb9061124090869086906004016115ce565b602060405180830381600087803b15801561125a57600080fd5b505af115801561126e573d6000803e3d6000fd5b505050506040513d601f19601f820116820180604052508101906112929190611525565b505b505050565b6112a1611340565b6001600160a01b03166112b2610688565b6001600160a01b0316146106745760405162461bcd60e51b815260040161049490611758565b600080546001600160a01b038381167fffffffffffffffffffffffff0000000000000000000000000000000000000000831681178455604051919092169283917f8be0079c531659141344cd1fd0a4f28419497f9722a3daafe3b4186f6b6457e09190a35050565b3390565b50805460008255906000526020600020908101906110dd91905b80821115611372576000815560010161135e565b5090565b600060208284031215611387578081fd5b81356001600160a01b03811681146106a3578182fd5b600080602083850312156113af578081fd5b823567ffffffffffffffff808211156113c6578283fd5b818501915085601f8301126113d9578283fd5b8135818111156113e7578384fd5b86602080830285010111156113fa578384fd5b60209290920196919550909350505050565b6000602080838503121561141e578182fd5b823567ffffffffffffffff811115611434578283fd5b8301601f81018513611444578283fd5b80356114576114528261180a565b6117d9565b8181528381019083850185840285018601891015611473578687fd5b8694505b83851015611495578035835260019490940193918501918501611477565b50979650505050505050565b600060208083850312156114b3578182fd5b825167ffffffffffffffff8111156114c9578283fd5b8301601f810185136114d9578283fd5b80516114e76114528261180a565b8181528381019083850185840285018601891015611503578687fd5b8694505b83851015611495578051835260019490940193918501918501611507565b600060208284031215611536578081fd5b815180151581146106a3578182fd5b600060208284031215611556578081fd5b5035919050565b60006020828403121561156e578081fd5b5051919050565b60008060408385031215611587578182fd5b50508035926020909101359150565b6001600160a01b0391909116815260200190565b6001600160a01b039384168152919092166020820152604081019190915260600190565b6001600160a01b03929092168252602082015260400190565b6000602082528260208301527f07ffffffffffffffffffffffffffffffffffffffffffffffffffffffffffffff83111561161f578081fd5b60208302808560408501379190910160400190815292915050565b6020808252825182820181905260009190848201906040850190845b8181101561167257835183529284019291840191600101611656565b50909695505050505050565b6020808252825482820181905260008481528281209092916040850190845b818110156116725783548352600193840193928501920161169d565b901515815260200190565b60208082526018908201527f464f453a20496e76616c696420746f6b656e20696e6465780000000000000000604082015260600190565b60208082526026908201527f4f776e61626c653a206e6577206f776e657220697320746865207a65726f206160408201527f6464726573730000000000000000000000000000000000000000000000000000606082015260800190565b6020808252818101527f4f776e61626c653a2063616c6c6572206973206e6f7420746865206f776e6572604082015260600190565b6020808252818101527f464f453a20596f7572204e4654206973206e6f7420486973746f7069616e212e604082015260600190565b90815260200190565b918252602082015260400190565b604051601f8201601f1916810167ffffffffffffffff81118282101715611802576118026118e4565b604052919050565b600067ffffffffffffffff821115611824576118246118e4565b5060209081020190565b60008219821115611841576118416118ce565b500190565b60008261186157634e487b7160e01b81526012600452602481fd5b500490565b6000816000190483118215151615611880576118806118ce565b500290565b600082821015611897576118976118ce565b500390565b6000816118ab576118ab6118ce565b506000190190565b60006000198214156118c7576118c76118ce565b5060010190565b634e487b7160e01b600052601160045260246000fd5b634e487b7160e01b600052604160045260246000fdfea2646970667358221220b469a01f3d6c34406b551feb9dccbc798e3e24222a85e2aba458ce820ebbdd9e64736f6c63430008010033",
  "linkReferences": {},
  "deployedLinkReferences": {}
}