{
  "_format": "hh-sol-artifact-1",
  "contractName": "AttachableERC721",
  "sourceName": "contracts/HistopiaNFT.sol",
  "abi": [
    {
      "inputs": [
        {
          "internalType": "string",
          "name": "name_",
          "type": "string"
        },
        {
          "internalType": "string",
          "name": "symbol_",
          "type": "string"
        },
        {
          "internalType": "address",
          "name": "_ERA",
          "type": "address"
        },
        {
          "internalType": "uint256",
          "name": "_mintFee",
          "type": "uint256"
        }
      ],
      "stateMutability": "nonpayable",
      "type": "constructor"
    },
    {
      "anonymous": false,
      "inputs": [
        {
          "indexed": false,
          "internalType": "uint256",
          "name": "typeId",
          "type": "uint256"
        },
        {
          "indexed": false,
          "internalType": "string",
          "name": "typeName",
          "type": "string"
        },
        {
          "indexed": false,
          "internalType": "uint256",
          "name": "allowedAccessorTypes",
          "type": "uint256"
        },
        {
          "indexed": false,
          "internalType": "uint256",
          "name": "maxSupply",
          "type": "uint256"
        },
        {
          "indexed": false,
          "internalType": "string[]",
          "name": "names",
          "type": "string[]"
        },
        {
          "indexed": false,
          "internalType": "uint256[]",
          "name": "mins",
          "type": "uint256[]"
        },
        {
          "indexed": false,
          "internalType": "uint256[]",
          "name": "maxs",
          "type": "uint256[]"
        },
        {
          "indexed": false,
          "internalType": "uint256",
          "name": "primeNumber",
          "type": "uint256"
        }
      ],
      "name": "AddType",
      "type": "event"
    },
    {
      "anonymous": false,
      "inputs": [
        {
          "indexed": true,
          "internalType": "address",
          "name": "owner",
          "type": "address"
        },
        {
          "indexed": true,
          "internalType": "address",
          "name": "approved",
          "type": "address"
        },
        {
          "indexed": true,
          "internalType": "uint256",
          "name": "tokenId",
          "type": "uint256"
        }
      ],
      "name": "Approval",
      "type": "event"
    },
    {
      "anonymous": false,
      "inputs": [
        {
          "indexed": true,
          "internalType": "address",
          "name": "owner",
          "type": "address"
        },
        {
          "indexed": true,
          "internalType": "address",
          "name": "operator",
          "type": "address"
        },
        {
          "indexed": false,
          "internalType": "bool",
          "name": "approved",
          "type": "bool"
        }
      ],
      "name": "ApprovalForAll",
      "type": "event"
    },
    {
      "anonymous": false,
      "inputs": [
        {
          "indexed": true,
          "internalType": "address",
          "name": "owner",
          "type": "address"
        },
        {
          "indexed": true,
          "internalType": "uint256",
          "name": "assigneeTokenId",
          "type": "uint256"
        },
        {
          "indexed": true,
          "internalType": "uint256",
          "name": "assignorTokenId",
          "type": "uint256"
        }
      ],
      "name": "Equip",
      "type": "event"
    },
    {
      "anonymous": false,
      "inputs": [
        {
          "indexed": true,
          "internalType": "address",
          "name": "to",
          "type": "address"
        },
        {
          "indexed": true,
          "internalType": "uint256",
          "name": "typeId",
          "type": "uint256"
        },
        {
          "indexed": true,
          "internalType": "uint256",
          "name": "tokenId",
          "type": "uint256"
        },
        {
          "indexed": false,
          "internalType": "uint256[]",
          "name": "properties",
          "type": "uint256[]"
        }
      ],
      "name": "Mint",
      "type": "event"
    },
    {
      "anonymous": false,
      "inputs": [
        {
          "indexed": true,
          "internalType": "address",
          "name": "previousOwner",
          "type": "address"
        },
        {
          "indexed": true,
          "internalType": "address",
          "name": "newOwner",
          "type": "address"
        }
      ],
      "name": "OwnershipTransferred",
      "type": "event"
    },
    {
      "anonymous": false,
      "inputs": [
        {
          "indexed": true,
          "internalType": "address",
          "name": "from",
          "type": "address"
        },
        {
          "indexed": true,
          "internalType": "address",
          "name": "to",
          "type": "address"
        },
        {
          "indexed": true,
          "internalType": "uint256",
          "name": "tokenId",
          "type": "uint256"
        }
      ],
      "name": "Transfer",
      "type": "event"
    },
    {
      "anonymous": false,
      "inputs": [
        {
          "indexed": true,
          "internalType": "address",
          "name": "owner",
          "type": "address"
        },
        {
          "indexed": true,
          "internalType": "uint256",
          "name": "assigneeTokenId",
          "type": "uint256"
        },
        {
          "indexed": true,
          "internalType": "uint256",
          "name": "assignorTokenId",
          "type": "uint256"
        }
      ],
      "name": "Unequip",
      "type": "event"
    },
    {
      "inputs": [],
      "name": "ERA",
      "outputs": [
        {
          "internalType": "address",
          "name": "",
          "type": "address"
        }
      ],
      "stateMutability": "view",
      "type": "function"
    },
    {
      "inputs": [
        {
          "internalType": "string",
          "name": "typeName",
          "type": "string"
        },
        {
          "internalType": "uint256",
          "name": "allowedAccessorTypes",
          "type": "uint256"
        },
        {
          "internalType": "uint256",
          "name": "maxSupply",
          "type": "uint256"
        },
        {
          "internalType": "string[]",
          "name": "names",
          "type": "string[]"
        },
        {
          "internalType": "uint256[]",
          "name": "minValues",
          "type": "uint256[]"
        },
        {
          "internalType": "uint256[]",
          "name": "maxValues",
          "type": "uint256[]"
        }
      ],
      "name": "addType",
      "outputs": [],
      "stateMutability": "nonpayable",
      "type": "function"
    },
    {
      "inputs": [
        {
          "internalType": "address",
          "name": "to",
          "type": "address"
        },
        {
          "internalType": "uint256",
          "name": "tokenId",
          "type": "uint256"
        }
      ],
      "name": "approve",
      "outputs": [],
      "stateMutability": "nonpayable",
      "type": "function"
    },
    {
      "inputs": [
        {
          "internalType": "uint256",
          "name": "",
          "type": "uint256"
        }
      ],
      "name": "assignedNFTs",
      "outputs": [
        {
          "internalType": "uint256",
          "name": "",
          "type": "uint256"
        }
      ],
      "stateMutability": "view",
      "type": "function"
    },
    {
      "inputs": [
        {
          "internalType": "address",
          "name": "owner",
          "type": "address"
        }
      ],
      "name": "balanceOf",
      "outputs": [
        {
          "internalType": "uint256",
          "name": "",
          "type": "uint256"
        }
      ],
      "stateMutability": "view",
      "type": "function"
    },
    {
      "inputs": [
        {
          "internalType": "uint256",
          "name": "tokenId",
          "type": "uint256"
        }
      ],
      "name": "burn",
      "outputs": [],
      "stateMutability": "nonpayable",
      "type": "function"
    },
    {
      "inputs": [
        {
          "internalType": "uint256",
          "name": "typeIndex",
          "type": "uint256"
        },
        {
          "internalType": "string",
          "name": "typeName",
          "type": "string"
        },
        {
          "internalType": "uint256",
          "name": "allowedAssignorTypes",
          "type": "uint256"
        }
      ],
      "name": "editType",
      "outputs": [],
      "stateMutability": "nonpayable",
      "type": "function"
    },
    {
      "inputs": [
        {
          "internalType": "uint256",
          "name": "assigneeTokenId",
          "type": "uint256"
        },
        {
          "internalType": "uint256",
          "name": "assignorTokenId",
          "type": "uint256"
        }
      ],
      "name": "equip",
      "outputs": [],
      "stateMutability": "nonpayable",
      "type": "function"
    },
    {
      "inputs": [
        {
          "internalType": "uint256",
          "name": "tokenId",
          "type": "uint256"
        }
      ],
      "name": "getApproved",
      "outputs": [
        {
          "internalType": "address",
          "name": "",
          "type": "address"
        }
      ],
      "stateMutability": "view",
      "type": "function"
    },
    {
      "inputs": [
        {
          "internalType": "uint256",
          "name": "tokenId",
          "type": "uint256"
        }
      ],
      "name": "getTokenProperties",
      "outputs": [
        {
          "internalType": "uint256[]",
          "name": "",
          "type": "uint256[]"
        }
      ],
      "stateMutability": "view",
      "type": "function"
    },
    {
      "inputs": [
        {
          "internalType": "address",
          "name": "owner",
          "type": "address"
        },
        {
          "internalType": "address",
          "name": "operator",
          "type": "address"
        }
      ],
      "name": "isApprovedForAll",
      "outputs": [
        {
          "internalType": "bool",
          "name": "",
          "type": "bool"
        }
      ],
      "stateMutability": "view",
      "type": "function"
    },
    {
      "inputs": [],
      "name": "latestTokenID",
      "outputs": [
        {
          "internalType": "uint256",
          "name": "",
          "type": "uint256"
        }
      ],
      "stateMutability": "view",
      "type": "function"
    },
    {
      "inputs": [
        {
          "internalType": "address",
          "name": "to",
          "type": "address"
        },
        {
          "internalType": "uint256",
          "name": "typeIndex",
          "type": "uint256"
        }
      ],
      "name": "mint",
      "outputs": [],
      "stateMutability": "nonpayable",
      "type": "function"
    },
    {
      "inputs": [],
      "name": "mintFee",
      "outputs": [
        {
          "internalType": "uint256",
          "name": "",
          "type": "uint256"
        }
      ],
      "stateMutability": "view",
      "type": "function"
    },
    {
      "inputs": [],
      "name": "name",
      "outputs": [
        {
          "internalType": "string",
          "name": "",
          "type": "string"
        }
      ],
      "stateMutability": "view",
      "type": "function"
    },
    {
      "inputs": [],
      "name": "owner",
      "outputs": [
        {
          "internalType": "address",
          "name": "",
          "type": "address"
        }
      ],
      "stateMutability": "view",
      "type": "function"
    },
    {
      "inputs": [
        {
          "internalType": "uint256",
          "name": "tokenId",
          "type": "uint256"
        }
      ],
      "name": "ownerOf",
      "outputs": [
        {
          "internalType": "address",
          "name": "",
          "type": "address"
        }
      ],
      "stateMutability": "view",
      "type": "function"
    },
    {
      "inputs": [
        {
          "internalType": "uint256",
          "name": "",
          "type": "uint256"
        }
      ],
      "name": "primeNumbers",
      "outputs": [
        {
          "internalType": "uint256",
          "name": "",
          "type": "uint256"
        }
      ],
      "stateMutability": "view",
      "type": "function"
    },
    {
      "inputs": [
        {
          "internalType": "uint256",
          "name": "",
          "type": "uint256"
        },
        {
          "internalType": "uint256",
          "name": "",
          "type": "uint256"
        }
      ],
      "name": "propertiesTypes",
      "outputs": [
        {
          "internalType": "string",
          "name": "name",
          "type": "string"
        },
        {
          "internalType": "uint256",
          "name": "minimum",
          "type": "uint256"
        },
        {
          "internalType": "uint256",
          "name": "maximum",
          "type": "uint256"
        }
      ],
      "stateMutability": "view",
      "type": "function"
    },
    {
      "inputs": [
        {
          "internalType": "uint256",
          "name": "",
          "type": "uint256"
        },
        {
          "internalType": "string",
          "name": "",
          "type": "string"
        }
      ],
      "name": "propertiesTypesExistence",
      "outputs": [
        {
          "internalType": "bool",
          "name": "",
          "type": "bool"
        }
      ],
      "stateMutability": "view",
      "type": "function"
    },
    {
      "inputs": [],
      "name": "renounceOwnership",
      "outputs": [],
      "stateMutability": "nonpayable",
      "type": "function"
    },
    {
      "inputs": [
        {
          "internalType": "uint256",
          "name": "tokenId",
          "type": "uint256"
        }
      ],
      "name": "rootOwner",
      "outputs": [
        {
          "internalType": "address",
          "name": "",
          "type": "address"
        }
      ],
      "stateMutability": "view",
      "type": "function"
    },
    {
      "inputs": [
        {
          "internalType": "address",
          "name": "from",
          "type": "address"
        },
        {
          "internalType": "address",
          "name": "to",
          "type": "address"
        },
        {
          "internalType": "uint256",
          "name": "tokenId",
          "type": "uint256"
        }
      ],
      "name": "safeTransferFrom",
      "outputs": [],
      "stateMutability": "nonpayable",
      "type": "function"
    },
    {
      "inputs": [
        {
          "internalType": "address",
          "name": "from",
          "type": "address"
        },
        {
          "internalType": "address",
          "name": "to",
          "type": "address"
        },
        {
          "internalType": "uint256",
          "name": "tokenId",
          "type": "uint256"
        },
        {
          "internalType": "bytes",
          "name": "data",
          "type": "bytes"
        }
      ],
      "name": "safeTransferFrom",
      "outputs": [],
      "stateMutability": "nonpayable",
      "type": "function"
    },
    {
      "inputs": [
        {
          "internalType": "address",
          "name": "operator",
          "type": "address"
        },
        {
          "internalType": "bool",
          "name": "approved",
          "type": "bool"
        }
      ],
      "name": "setApprovalForAll",
      "outputs": [],
      "stateMutability": "nonpayable",
      "type": "function"
    },
    {
      "inputs": [
        {
          "internalType": "uint256",
          "name": "_fee",
          "type": "uint256"
        }
      ],
      "name": "setMintFee",
      "outputs": [],
      "stateMutability": "nonpayable",
      "type": "function"
    },
    {
      "inputs": [
        {
          "internalType": "bytes4",
          "name": "interfaceId",
          "type": "bytes4"
        }
      ],
      "name": "supportsInterface",
      "outputs": [
        {
          "internalType": "bool",
          "name": "",
          "type": "bool"
        }
      ],
      "stateMutability": "view",
      "type": "function"
    },
    {
      "inputs": [],
      "name": "symbol",
      "outputs": [
        {
          "internalType": "string",
          "name": "",
          "type": "string"
        }
      ],
      "stateMutability": "view",
      "type": "function"
    },
    {
      "inputs": [
        {
          "internalType": "uint256",
          "name": "",
          "type": "uint256"
        }
      ],
      "name": "tokenIdToTypeIndex",
      "outputs": [
        {
          "internalType": "uint256",
          "name": "",
          "type": "uint256"
        }
      ],
      "stateMutability": "view",
      "type": "function"
    },
    {
      "inputs": [
        {
          "internalType": "uint256",
          "name": "tokenId",
          "type": "uint256"
        }
      ],
      "name": "tokenURI",
      "outputs": [
        {
          "internalType": "string",
          "name": "",
          "type": "string"
        }
      ],
      "stateMutability": "view",
      "type": "function"
    },
    {
      "inputs": [
        {
          "internalType": "address",
          "name": "from",
          "type": "address"
        },
        {
          "internalType": "address",
          "name": "to",
          "type": "address"
        },
        {
          "internalType": "uint256",
          "name": "tokenId",
          "type": "uint256"
        }
      ],
      "name": "transferFrom",
      "outputs": [],
      "stateMutability": "nonpayable",
      "type": "function"
    },
    {
      "inputs": [
        {
          "internalType": "address",
          "name": "newOwner",
          "type": "address"
        }
      ],
      "name": "transferOwnership",
      "outputs": [],
      "stateMutability": "nonpayable",
      "type": "function"
    },
    {
      "inputs": [
        {
          "internalType": "uint256",
          "name": "",
          "type": "uint256"
        }
      ],
      "name": "types",
      "outputs": [
        {
          "internalType": "string",
          "name": "typeName",
          "type": "string"
        },
        {
          "internalType": "uint256",
          "name": "allowedAssignorTypes",
          "type": "uint256"
        },
        {
          "internalType": "uint256",
          "name": "typeId",
          "type": "uint256"
        },
        {
          "internalType": "uint256",
          "name": "maxSupply",
          "type": "uint256"
        },
        {
          "internalType": "uint256",
          "name": "currentSupply",
          "type": "uint256"
        }
      ],
      "stateMutability": "view",
      "type": "function"
    },
    {
      "inputs": [
        {
          "internalType": "uint256",
          "name": "assigneeTokenId",
          "type": "uint256"
        }
      ],
      "name": "unequip",
      "outputs": [],
      "stateMutability": "nonpayable",
      "type": "function"
    }
  ],
  "bytecode": "0x61034060405260026080908152600360a052600560c052600760e052600b61010052600d61012052601161014052601361016052601761018052601d6101a052601f6101c05260256101e052602961020052602b61022052602f61024052603561026052603b61028052603d6102a05260436102c05260476102e052604961030052604f6103205262000097906008906016620001a6565b506001600d556001600e55348015620000af57600080fd5b50604051620039d7380380620039d7833981016040819052620000d29162000342565b838381818160009080519060200190620000ee929190620001fb565b50805162000104906001906020840190620001fb565b505050620001216200011b6200015060201b60201c565b62000154565b5050601080546001600160a01b0319166001600160a01b03939093169290921790915560115550620004249050565b3390565b600680546001600160a01b038381166001600160a01b0319831681179093556040519116919082907f8be0079c531659141344cd1fd0a4f28419497f9722a3daafe3b4186f6b6457e090600090a35050565b828054828255906000526020600020908101928215620001e9579160200282015b82811115620001e9578251829060ff16905591602001919060010190620001c7565b50620001f792915062000278565b5090565b8280546200020990620003d1565b90600052602060002090601f0160209004810192826200022d5760008555620001e9565b82601f106200024857805160ff1916838001178555620001e9565b82800160010185558215620001e9579182015b82811115620001e95782518255916020019190600101906200025b565b5b80821115620001f7576000815560010162000279565b600082601f830112620002a0578081fd5b81516001600160401b0380821115620002bd57620002bd6200040e565b604051601f8301601f19908116603f01168101908282118183101715620002e857620002e86200040e565b8160405283815260209250868385880101111562000304578485fd5b8491505b8382101562000327578582018301518183018401529082019062000308565b838211156200033857848385830101525b9695505050505050565b6000806000806080858703121562000358578384fd5b84516001600160401b03808211156200036f578586fd5b6200037d888389016200028f565b9550602087015191508082111562000393578485fd5b50620003a2878288016200028f565b604087015190945090506001600160a01b0381168114620003c1578283fd5b6060959095015193969295505050565b600281046001821680620003e657607f821691505b602082108114156200040857634e487b7160e01b600052602260045260246000fd5b50919050565b634e487b7160e01b600052604160045260246000fd5b6135a380620004346000396000f3fe608060405234801561001057600080fd5b50600436106101965760003560e01c806301ffc9a71461019b57806306fdde03146101c4578063081812fc146101d9578063095ea7b3146101f95780630d5242941461020e57806313966db51461022e5780631a0fe7cd146102365780632089dd8f1461024957806323b872dd1461025c578063282575321461026f5780633074cb51146102825780633ecf83621461028a57806340c10f19146102ac57806342842e0e146102bf57806342966c68146102d25780634edea111146102e55780635599e542146103055780636352211e1461031857806370a082311461032b578063715018a61461033e5780638da5cb5b1461034657806395d89b411461034e578063a22cb46514610356578063a2d966ea14610369578063b88d4fde14610371578063c87b56dd14610384578063cefbfa3614610397578063d179e3d0146103bb578063e17be8a9146103ce578063e263e449146103e1578063e985e9c5146103f4578063eddd0d9c14610407578063f2fde38b1461041a578063f599007a1461042d575b600080fd5b6101ae6101a9366004612885565b610440565b6040516101bb9190612c69565b60405180910390f35b6101cc610488565b6040516101bb9190612c74565b6101ec6101e7366004612976565b61051a565b6040516101bb9190612be1565b61020c610207366004612840565b610541565b005b61022161021c366004612976565b6105e2565b6040516101bb91906132ae565b6102216105f4565b610221610244366004612976565b6105fa565b6101ae61025736600461298e565b61061b565b61020c61026a366004612757565b61064c565b61020c61027d366004612a1f565b610684565b610221610950565b61029d610298366004612a1f565b610956565b6040516101bb93929190612c87565b61020c6102ba366004612840565b610a25565b61020c6102cd366004612757565b610b17565b61020c6102e0366004612976565b610b32565b6102f86102f3366004612976565b610b65565b6040516101bb9190612c56565b61020c6103133660046128bd565b610d85565b6101ec610326366004612976565b6110f1565b61022161033936600461270b565b611126565b61020c61116a565b6101ec61117e565b6101cc61118d565b61020c61036436600461280a565b61119c565b6101ec6111b2565b61020c61037f366004612792565b6111c1565b6101cc610392366004612976565b611200565b6103aa6103a5366004612976565b611267565b6040516101bb959493929190612cac565b61020c6103c9366004612976565b611335565b6101ec6103dc366004612976565b611527565b61020c6103ef3660046129d2565b61155c565b6101ae610402366004612725565b6115e7565b61020c610415366004612976565b611615565b61020c61042836600461270b565b611622565b61022161043b366004612976565b611659565b60006001600160e01b031982166380ac58cd60e01b148061047157506001600160e01b03198216635b5e139f60e01b145b8061048057506104808261166b565b90505b919050565b6060600080546104979061343d565b80601f01602080910402602001604051908101604052809291908181526020018280546104c39061343d565b80156105105780601f106104e557610100808354040283529160200191610510565b820191906000526020600020905b8154815290600101906020018083116104f357829003601f168201915b5050505050905090565b600061052582611684565b506000908152600460205260409020546001600160a01b031690565b600061054c826110f1565b9050806001600160a01b0316836001600160a01b031614156105895760405162461bcd60e51b8152600401610580906131aa565b60405180910390fd5b806001600160a01b031661059b6116a9565b6001600160a01b031614806105b757506105b7816104026116a9565b6105d35760405162461bcd60e51b815260040161058090613027565b6105dd83836116ad565b505050565b600b6020526000908152604090205481565b60115481565b6008818154811061060a57600080fd5b600091825260209091200154905081565b600a602090815260009283526040909220815180830184018051928152908401929093019190912091525460ff1681565b61065d6106576116a9565b8261171b565b6106795760405162461bcd60e51b815260040161058090613260565b6105dd83838361177a565b808214156106a45760405162461bcd60e51b815260040161058090612eee565b336106ae836110f1565b6001600160a01b0316146106d45760405162461bcd60e51b815260040161058090613133565b6000828152600f6020526040902054156107005760405162461bcd60e51b8152600401610580906130ee565b3361070a82611527565b6001600160a01b0316146107305760405162461bcd60e51b815260040161058090612d53565b6000828152600b60205260408082205483835291205460078054909190811061076957634e487b7160e01b600052603260045260246000fd5b9060005260206000209060050201600201546007828154811061079c57634e487b7160e01b600052603260045260246000fd5b9060005260206000209060050201600101546107b891906134b3565b156107d55760405162461bcd60e51b815260040161058090612ce3565b6107e033308561177a565b6000838152600f602052604081208390556107fa84610b65565b9050600060096000848152602001908152602001600020805480602002602001604051908101604052809291908181526020016000905b8282101561090957838290600052602060002090600302016040518060600160405290816000820180546108649061343d565b80601f01602080910402602001604051908101604052809291908181526020018280546108909061343d565b80156108dd5780601f106108b2576101008083540402835291602001916108dd565b820191906000526020600020905b8154815290600101906020018083116108c057829003601f168201915b505050505081526020016001820154815260200160028201548152505081526020019060010190610831565b50505050905061091a84828461189b565b6040518490869033907f7a980bdfb21a07f793d4737b09ba7e61a119c753c316b7d958de3b08d9cba86e90600090a45050505050565b600e5481565b6009602052816000526040600020818154811061097257600080fd5b9060005260206000209060030201600091509150508060000180546109969061343d565b80601f01602080910402602001604051908101604052809291908181526020018280546109c29061343d565b8015610a0f5780601f106109e457610100808354040283529160200191610a0f565b820191906000526020600020905b8154815290600101906020018083116109f257829003601f168201915b5050505050908060010154908060020154905083565b6010546001600160a01b03166323b872dd33610a3f61117e565b6011546040518463ffffffff1660e01b8152600401610a6093929190612bf5565b602060405180830381600087803b158015610a7a57600080fd5b505af1158015610a8e573d6000803e3d6000fd5b505050506040513d601f19601f82011682018060405250810190610ab29190612869565b506000610abf8383611a30565b90506001600e54610ad091906133fa565b82846001600160a01b03167fa1f137c5ae158726e83083553b9082ce64d0180e2e71939290985b94816211d384604051610b0a9190612c56565b60405180910390a4505050565b6105dd838383604051806020016040528060008152506111c1565b610b3d6106576116a9565b610b595760405162461bcd60e51b815260040161058090613260565b610b6281611e1a565b50565b6000818152600b60209081526040808320548084526009835281842080548351818602810186019094528084526060959294929392849084015b82821015610c775783829060005260206000209060030201604051806060016040529081600082018054610bd29061343d565b80601f0160208091040260200160405190810160405280929190818152602001828054610bfe9061343d565b8015610c4b5780601f10610c2057610100808354040283529160200191610c4b565b820191906000526020600020905b815481529060010190602001808311610c2e57829003601f168201915b505050505081526020016001820154815260200160028201548152505081526020019060010190610b9f565b505050509050600081516001600160401b03811115610ca657634e487b7160e01b600052604160045260246000fd5b604051908082528060200260200182016040528015610ccf578160200160208202803683370190505b50905060005b82518160ff161015610d7c576000868152600c602052604090208351849060ff8416908110610d1457634e487b7160e01b600052603260045260246000fd5b602002602001015160000151604051610d2d9190612aa6565b908152602001604051809103902054828260ff1681518110610d5f57634e487b7160e01b600052603260045260246000fd5b602090810291909101015280610d7481613493565b915050610cd5565b50949350505050565b610d8d611eb7565b8151835114610d9b57600080fd5b8051835114610da957600080fd5b60076040518060a00160405280888152602001878152602001600860078054905081548110610de857634e487b7160e01b600052603260045260246000fd5b600091825260208083209091015483528281018990526040909201819052835460018101855593815281902082518051939460050290910192610e2e9284920190612524565b5060208201518160010155604082015181600201556060820151816003015560808201518160040155505060005b835181101561105857828181518110610e8557634e487b7160e01b600052603260045260246000fd5b6020026020010151828281518110610ead57634e487b7160e01b600052603260045260246000fd5b602002602001015111610ed25760405162461bcd60e51b815260040161058090612e1f565b600754600990600090610ee7906001906133fa565b81526020019081526020016000206040518060600160405280868481518110610f2057634e487b7160e01b600052603260045260246000fd5b60200260200101518152602001858481518110610f4d57634e487b7160e01b600052603260045260246000fd5b60200260200101518152602001848481518110610f7a57634e487b7160e01b600052603260045260246000fd5b602090810291909101810151909152825460018101845560009384529281902082518051939460030290910192610fb49284920190612524565b50602082015181600101556040820151816002015550506001600a60006001600780549050610fe391906133fa565b815260200190815260200160002085838151811061101157634e487b7160e01b600052603260045260246000fd5b60200260200101516040516110269190612aa6565b908152604051908190036020019020805491151560ff199092169190911790558061105081613478565b915050610e5c565b506007547f0272611e7acb5b417eba4bbb061a8d043552eab942299bdd30832389879d67979061108a906001906133fa565b878787878787600860016007805490506110a491906133fa565b815481106110c257634e487b7160e01b600052603260045260246000fd5b90600052602060002001546040516110e19897969594939291906132b7565b60405180910390a1505050505050565b6000818152600260205260408120546001600160a01b0316806104805760405162461bcd60e51b815260040161058090613178565b60006001600160a01b03821661114e5760405162461bcd60e51b815260040161058090612fde565b506001600160a01b031660009081526003602052604090205490565b611172611eb7565b61117c6000611ef6565b565b6006546001600160a01b031690565b6060600180546104979061343d565b6111ae6111a76116a9565b8383611f48565b5050565b6010546001600160a01b031681565b6111d26111cc6116a9565b8361171b565b6111ee5760405162461bcd60e51b815260040161058090613260565b6111fa84848484611feb565b50505050565b606061120b82611684565b600061121561201e565b905060008151116112355760405180602001604052806000815250611260565b8061123f84612030565b604051602001611250929190612ac2565b6040516020818303038152906040525b9392505050565b6007818154811061127757600080fd5b906000526020600020906005020160009150905080600001805461129a9061343d565b80601f01602080910402602001604051908101604052809291908181526020018280546112c69061343d565b80156113135780601f106112e857610100808354040283529160200191611313565b820191906000526020600020905b8154815290600101906020018083116112f657829003601f168201915b5050505050908060010154908060020154908060030154908060040154905085565b6000818152600f60205260409020546113605760405162461bcd60e51b8152600401610580906131eb565b3361136a82611527565b6001600160a01b0316146113905760405162461bcd60e51b81526004016105809061322c565b61139b30338361177a565b60006113a682610b65565b6000838152600b602090815260408083205483526009825280832080548251818502810185019093528083529495509293909291849084015b828210156114b757838290600052602060002090600302016040518060600160405290816000820180546114129061343d565b80601f016020809104026020016040519081016040528092919081815260200182805461143e9061343d565b801561148b5780601f106114605761010080835404028352916020019161148b565b820191906000526020600020905b81548152906001019060200180831161146e57829003601f168201915b5050505050815260200160018201548152602001600282015481525050815260200190600101906113df565b5050506000858152600f60205260409020549192506114d9919050828461214a565b6000838152600f60205260408082205490519091859133917fe2648b05da6134eb6524da83eb9c99815d0e07cfa9a508bca730c49fc53c660591a450506000908152600f6020526040812055565b6000815b6000818152600f602052604090205415611553576000908152600f602052604090205461152b565b611260816110f1565b611564611eb7565b816007848154811061158657634e487b7160e01b600052603260045260246000fd5b906000526020600020906005020160000190805190602001906115aa929190612524565b5080600784815481106115cd57634e487b7160e01b600052603260045260246000fd5b906000526020600020906005020160010181905550505050565b6001600160a01b03918216600090815260056020908152604080832093909416825291909152205460ff1690565b61161d611eb7565b601155565b61162a611eb7565b6001600160a01b0381166116505760405162461bcd60e51b815260040161058090612dd9565b610b6281611ef6565b600f6020526000908152604090205481565b6001600160e01b031981166301ffc9a760e01b14919050565b61168d816122a7565b610b625760405162461bcd60e51b815260040161058090613178565b3390565b600081815260046020526040902080546001600160a01b0319166001600160a01b03841690811790915581906116e2826110f1565b6001600160a01b03167f8c5be1e5ebec7d5bd14f71427d1e84f3dd0314c0f7b2291e5b200ac8c7c3b92560405160405180910390a45050565b600080611727836110f1565b9050806001600160a01b0316846001600160a01b0316148061174e575061174e81856115e7565b806117725750836001600160a01b03166117678461051a565b6001600160a01b0316145b949350505050565b826001600160a01b031661178d826110f1565b6001600160a01b0316146117b35760405162461bcd60e51b815260040161058090612e73565b6001600160a01b0382166117d95760405162461bcd60e51b815260040161058090612f25565b6117e48383836105dd565b6117ef6000826116ad565b6001600160a01b03831660009081526003602052604081208054600192906118189084906133fa565b90915550506001600160a01b03821660009081526003602052604081208054600192906118469084906133ce565b909155505060008181526002602052604080822080546001600160a01b0319166001600160a01b03868116918217909255915184939187169160008051602061352e83398151915291a46105dd8383836105dd565b60005b82518160ff161015611a01576000848152600b60209081526040808320548352600a90915290208351849060ff84169081106118ea57634e487b7160e01b600052603260045260246000fd5b6020026020010151600001516040516119039190612aa6565b9081526040519081900360200190205460ff16156119bd57818160ff168151811061193e57634e487b7160e01b600052603260045260246000fd5b6020026020010151600c6000868152602001908152602001600020848360ff168151811061197c57634e487b7160e01b600052603260045260246000fd5b6020026020010151600001516040516119959190612aa6565b908152602001604051809103902060008282546119b291906133ce565b909155506119ef9050565b6000828260ff16815181106119e257634e487b7160e01b600052603260045260246000fd5b6020026020010181815250505b806119f981613493565b91505061189e565b506000838152600f6020526040902054156105dd576000838152600f60205260409020546105dd90838361189b565b606060078281548110611a5357634e487b7160e01b600052603260045260246000fd5b90600052602060002090600502016003015460001480611ad6575060078281548110611a8f57634e487b7160e01b600052603260045260246000fd5b90600052602060002090600502016004015460078381548110611ac257634e487b7160e01b600052603260045260246000fd5b906000526020600020906005020160030154115b611af25760405162461bcd60e51b815260040161058090612f9c565b600160078381548110611b1557634e487b7160e01b600052603260045260246000fd5b90600052602060002090600502016004016000828254611b3591906133ce565b9091555050600e80546000908152600b602090815260408083208690558354808452600c9092528220926001929091611b6f9084906133ce565b90915550506000838152600960205260408120546001600160401b03811115611ba857634e487b7160e01b600052604160045260246000fd5b604051908082528060200260200182016040528015611bd1578160200160208202803683370190505b50905060005b600085815260096020526040902054811015611e0157600d8054906000611bfd83613478565b909155505060008581526009602052604081208054611d5d919084908110611c3557634e487b7160e01b600052603260045260246000fd5b906000526020600020906003020160010154600960008981526020019081526020016000208481548110611c7957634e487b7160e01b600052603260045260246000fd5b906000526020600020906003020160020154600960008a81526020019081526020016000208581548110611cbd57634e487b7160e01b600052603260045260246000fd5b90600052602060002090600302016000018054611cd99061343d565b80601f0160208091040260200160405190810160405280929190818152602001828054611d059061343d565b8015611d525780601f10611d2757610100808354040283529160200191611d52565b820191906000526020600020905b815481529060010190602001808311611d3557829003601f168201915b5050505050856122c4565b905080838381518110611d8057634e487b7160e01b600052603260045260246000fd5b6020026020010181815250508084600960008981526020019081526020016000208481548110611dc057634e487b7160e01b600052603260045260246000fd5b9060005260206000209060030201600001604051611dde9190612af1565b908152604051908190036020019020555080611df981613478565b915050611bd7565b50611772856001600e54611e1591906133fa565b612328565b6000611e25826110f1565b9050611e33816000846105dd565b611e3e6000836116ad565b6001600160a01b0381166000908152600360205260408120805460019290611e679084906133fa565b909155505060008281526002602052604080822080546001600160a01b0319169055518391906001600160a01b0384169060008051602061352e833981519152908390a46111ae816000846105dd565b611ebf6116a9565b6001600160a01b0316611ed061117e565b6001600160a01b03161461117c5760405162461bcd60e51b8152600401610580906130b9565b600680546001600160a01b038381166001600160a01b0319831681179093556040519116919082907f8be0079c531659141344cd1fd0a4f28419497f9722a3daafe3b4186f6b6457e090600090a35050565b816001600160a01b0316836001600160a01b03161415611f7a5760405162461bcd60e51b815260040161058090612f69565b6001600160a01b0383811660008181526005602090815260408083209487168084529490915290819020805460ff1916851515179055517f17307eab39ab6107e8899845ad3d59bd9653f200f220920489ca2b5937696c3190611fde908590612c69565b60405180910390a3505050565b611ff684848461177a565b612002848484846123fd565b6111fa5760405162461bcd60e51b815260040161058090612d87565b60408051602081019091526000815290565b60608161205557506040805180820190915260018152600360fc1b6020820152610483565b8160005b811561207f578061206981613478565b91506120789050600a836133e6565b9150612059565b6000816001600160401b038111156120a757634e487b7160e01b600052604160045260246000fd5b6040519080825280601f01601f1916602001820160405280156120d1576020820181803683370190505b5090505b8415611772576120e66001836133fa565b91506120f3600a866134b3565b6120fe9060306133ce565b60f81b81838151811061212157634e487b7160e01b600052603260045260246000fd5b60200101906001600160f81b031916908160001a905350612143600a866133e6565b94506120d5565b6000838152600f602052604090205415612178576000838152600f602052604090205461217890838361214a565b60005b82518160ff1610156111fa576000848152600b60209081526040808320548352600a90915290208351849060ff84169081106121c757634e487b7160e01b600052603260045260246000fd5b6020026020010151600001516040516121e09190612aa6565b9081526040519081900360200190205460ff161561229557818160ff168151811061221b57634e487b7160e01b600052603260045260246000fd5b6020026020010151600c6000868152602001908152602001600020848360ff168151811061225957634e487b7160e01b600052603260045260246000fd5b6020026020010151600001516040516122729190612aa6565b9081526020016040518091039020600082825461228f91906133fa565b90915550505b8061229f81613493565b91505061217b565b6000908152600260205260409020546001600160a01b0316151590565b6000846122d181866133fa565b44424186600e5489600d546040516020016122f29796959493929190612b8c565b6040516020818303038152906040528051906020012060001c61231591906134b3565b61231f91906133ce565b95945050505050565b6001600160a01b03821661234e5760405162461bcd60e51b815260040161058090613084565b612357816122a7565b156123745760405162461bcd60e51b815260040161058090612eb8565b612380600083836105dd565b6001600160a01b03821660009081526003602052604081208054600192906123a99084906133ce565b909155505060008181526002602052604080822080546001600160a01b0319166001600160a01b038616908117909155905183929060008051602061352e833981519152908290a46111ae600083836105dd565b6000612411846001600160a01b0316612515565b1561250d57836001600160a01b031663150b7a0261242d6116a9565b8786866040518563ffffffff1660e01b815260040161244f9493929190612c19565b602060405180830381600087803b15801561246957600080fd5b505af1925050508015612499575060408051601f3d908101601f19168201909252612496918101906128a1565b60015b6124f3573d8080156124c7576040519150601f19603f3d011682016040523d82523d6000602084013e6124cc565b606091505b5080516124eb5760405162461bcd60e51b815260040161058090612d87565b805181602001fd5b6001600160e01b031916630a85bd0160e11b149050611772565b506001611772565b6001600160a01b03163b151590565b8280546125309061343d565b90600052602060002090601f0160209004810192826125525760008555612598565b82601f1061256b57805160ff1916838001178555612598565b82800160010185558215612598579182015b8281111561259857825182559160200191906001019061257d565b506125a49291506125a8565b5090565b5b808211156125a457600081556001016125a9565b60006001600160401b038311156125d6576125d66134f3565b6125e9601f8401601f191660200161336f565b90508281528383830111156125fd57600080fd5b828260208301376000602084830101529392505050565b80356001600160a01b038116811461048357600080fd5b600082601f83011261263b578081fd5b8135602061265061264b8361339f565b61336f565b82815281810190858301855b8581101561268557612673898684358b01016126ec565b8452928401929084019060010161265c565b5090979650505050505050565b600082601f8301126126a2578081fd5b813560206126b261264b8361339f565b82815281810190858301838502870184018810156126ce578586fd5b855b85811015612685578135845292840192908401906001016126d0565b600082601f8301126126fc578081fd5b611260838335602085016125bd565b60006020828403121561271c578081fd5b61126082612614565b60008060408385031215612737578081fd5b61274083612614565b915061274e60208401612614565b90509250929050565b60008060006060848603121561276b578081fd5b61277484612614565b925061278260208501612614565b9150604084013590509250925092565b600080600080608085870312156127a7578081fd5b6127b085612614565b93506127be60208601612614565b92506040850135915060608501356001600160401b038111156127df578182fd5b8501601f810187136127ef578182fd5b6127fe878235602084016125bd565b91505092959194509250565b6000806040838503121561281c578182fd5b61282583612614565b9150602083013561283581613509565b809150509250929050565b60008060408385031215612852578182fd5b61285b83612614565b946020939093013593505050565b60006020828403121561287a578081fd5b815161126081613509565b600060208284031215612896578081fd5b813561126081613517565b6000602082840312156128b2578081fd5b815161126081613517565b60008060008060008060c087890312156128d5578384fd5b86356001600160401b03808211156128eb578586fd5b6128f78a838b016126ec565b97506020890135965060408901359550606089013591508082111561291a578384fd5b6129268a838b0161262b565b9450608089013591508082111561293b578384fd5b6129478a838b01612692565b935060a089013591508082111561295c578283fd5b5061296989828a01612692565b9150509295509295509295565b600060208284031215612987578081fd5b5035919050565b600080604083850312156129a0578182fd5b8235915060208301356001600160401b038111156129bc578182fd5b6129c8858286016126ec565b9150509250929050565b6000806000606084860312156129e6578081fd5b8335925060208401356001600160401b03811115612a02578182fd5b612a0e868287016126ec565b925050604084013590509250925092565b60008060408385031215612a31578182fd5b50508035926020909101359150565b6000815180845260208085019450808401835b83811015612a6f57815187529582019590820190600101612a53565b509495945050505050565b60008151808452612a92816020860160208601613411565b601f01601f19169290920160200192915050565b60008251612ab8818460208701613411565b9190910192915050565b60008351612ad4818460208801613411565b835190830190612ae8818360208801613411565b01949350505050565b8154600090819060028104600180831680612b0d57607f831692505b6020808410821415612b2d57634e487b7160e01b87526022600452602487fd5b818015612b415760018114612b5257612b7e565b60ff19861689528489019650612b7e565b612b5b8a6133c2565b885b86811015612b765781548b820152908501908301612b5d565b505084890196505b509498975050505050505050565b600088825287602083015260018060601b03198760601b1660408301528560548301528460748301528351612bc8816094850160208801613411565b609492019182019290925260b401979650505050505050565b6001600160a01b0391909116815260200190565b6001600160a01b039384168152919092166020820152604081019190915260600190565b6001600160a01b0385811682528416602082015260408101839052608060608201819052600090612c4c90830184612a7a565b9695505050505050565b6000602082526112606020830184612a40565b901515815260200190565b6000602082526112606020830184612a7a565b600060608252612c9a6060830186612a7a565b60208301949094525060400152919050565b600060a08252612cbf60a0830188612a7a565b90508560208301528460408301528360608301528260808301529695505050505050565b6020808252604a908201527f41737369676e61626c654552433732313a20746869732061737369676e6f722060408201527f74797065206973206e6f7420616c6c6f77656420666f7220746869732061737360608201526969676e6565207479706560b01b608082015260a00190565b602080825260269082015260008051602061354e83398151915260408201526539b4b3b737b960d11b606082015260800190565b60208082526032908201527f4552433732313a207472616e7366657220746f206e6f6e20455243373231526560408201527131b2b4bb32b91034b6b83632b6b2b73a32b960711b606082015260800190565b60208082526026908201527f4f776e61626c653a206e6577206f776e657220697320746865207a65726f206160408201526564647265737360d01b606082015260800190565b60208082526034908201527f696e76616c6964206d617820616e64206d696e20286d61782073686f756c642060408201527362652067726561746572207468616e206d696e2960601b606082015260800190565b60208082526025908201527f4552433732313a207472616e736665722066726f6d20696e636f72726563742060408201526437bbb732b960d91b606082015260800190565b6020808252601c908201527b115490cdcc8c4e881d1bdad95b88185b1c9958591e481b5a5b9d195960221b604082015260600190565b6020808252601f908201527f6964656e746963616c2061737369676e656520616e6420617373696e676f7200604082015260600190565b60208082526024908201527f4552433732313a207472616e7366657220746f20746865207a65726f206164646040820152637265737360e01b606082015260800190565b60208082526019908201527822a9219b99189d1030b8383937bb32903a379031b0b63632b960391b604082015260600190565b60208082526022908201527f63757272656e7420737570706c792065786365656473206d617820737570706c604082015261792160f01b606082015260800190565b60208082526029908201527f4552433732313a2061646472657373207a65726f206973206e6f7420612076616040820152683634b21037bbb732b960b91b606082015260800190565b6020808252603e908201527f4552433732313a20617070726f76652063616c6c6572206973206e6f7420746f60408201527f6b656e206f776e6572206e6f7220617070726f76656420666f7220616c6c0000606082015260800190565b6020808252818101527f4552433732313a206d696e7420746f20746865207a65726f2061646472657373604082015260600190565b6020808252818101527f4f776e61626c653a2063616c6c6572206973206e6f7420746865206f776e6572604082015260600190565b60208082526025908201527f61737369676e656520697320616c72656164792061737369676e656420746f2060408201526418481b999d60da1b606082015260800190565b60208082526025908201527f796f7520617265206e6f7420616c6c6f77656420746f206571756970207468696040820152641cc81b999d60da1b606082015260800190565b602080825260189082015277115490cdcc8c4e881a5b9d985b1a59081d1bdad95b88125160421b604082015260600190565b60208082526021908201527f4552433732313a20617070726f76616c20746f2063757272656e74206f776e656040820152603960f91b606082015260800190565b60208082526021908201527f61737369676e6565206973206e6f742061737369676e656420746f2061206e666040820152601d60fa1b606082015260800190565b602080825260269082015260008051602061354e8339815191526040820152657369676e656560d01b606082015260800190565b6020808252602e908201527f4552433732313a2063616c6c6572206973206e6f7420746f6b656e206f776e6560408201526d1c881b9bdc88185c1c1c9bdd995960921b606082015260800190565b90815260200190565b60006101008a8352602081818501526132d28285018c612a7a565b91508960408501528860608501528382036080850152818851808452828401915082838202850101838b01865b8381101561332d57601f1987840301855261331b838351612a7a565b948601949250908501906001016132ff565b505086810360a0880152613341818b612a40565b94505050505082810360c08401526133598186612a40565b9150508260e08301529998505050505050505050565b604051601f8201601f191681016001600160401b0381118282101715613397576133976134f3565b604052919050565b60006001600160401b038211156133b8576133b86134f3565b5060209081020190565b60009081526020902090565b600082198211156133e1576133e16134c7565b500190565b6000826133f5576133f56134dd565b500490565b60008282101561340c5761340c6134c7565b500390565b60005b8381101561342c578181015183820152602001613414565b838111156111fa5750506000910152565b60028104600182168061345157607f821691505b6020821081141561347257634e487b7160e01b600052602260045260246000fd5b50919050565b600060001982141561348c5761348c6134c7565b5060010190565b600060ff821660ff8114156134aa576134aa6134c7565b60010192915050565b6000826134c2576134c26134dd565b500690565b634e487b7160e01b600052601160045260246000fd5b634e487b7160e01b600052601260045260246000fd5b634e487b7160e01b600052604160045260246000fd5b8015158114610b6257600080fd5b6001600160e01b031981168114610b6257600080fdfeddf252ad1be2c89b69c2b068fc378daa952ba7f163c4a11628f55a4df523b3ef796f7520646f6e277420686176652061636365737320746f2074686973206173a2646970667358221220868366279df6cebfd52d862b848e1bc5143bef665816b59fd5f0e850457b1cb664736f6c63430008010033",
  "linkReferences": {},
  "deployedLinkReferences": {}
}