{
  "_format": "hh-sol-artifact-1",
  "contractName": "AttachableERC721",
  "sourceName": "contracts/HistopiaNFT.sol",
  "abi": [
    {
      "inputs": [
        {
          "internalType": "string",
          "name": "name_",
          "type": "string"
        },
        {
          "internalType": "string",
          "name": "symbol_",
          "type": "string"
        },
        {
          "internalType": "address",
          "name": "_ERA",
          "type": "address"
        },
        {
          "internalType": "uint256",
          "name": "_mintFee",
          "type": "uint256"
        }
      ],
      "stateMutability": "nonpayable",
      "type": "constructor"
    },
    {
      "anonymous": false,
      "inputs": [
        {
          "indexed": false,
          "internalType": "uint256",
          "name": "typeId",
          "type": "uint256"
        },
        {
          "indexed": false,
          "internalType": "string",
          "name": "typeName",
          "type": "string"
        },
        {
          "indexed": false,
          "internalType": "uint256",
          "name": "allowedAccessorTypes",
          "type": "uint256"
        },
        {
          "indexed": false,
          "internalType": "uint256",
          "name": "maxSupply",
          "type": "uint256"
        },
        {
          "indexed": false,
          "internalType": "string[]",
          "name": "names",
          "type": "string[]"
        },
        {
          "indexed": false,
          "internalType": "uint256[]",
          "name": "mins",
          "type": "uint256[]"
        },
        {
          "indexed": false,
          "internalType": "uint256[]",
          "name": "maxs",
          "type": "uint256[]"
        },
        {
          "indexed": false,
          "internalType": "uint256",
          "name": "primeNumber",
          "type": "uint256"
        }
      ],
      "name": "AddType",
      "type": "event"
    },
    {
      "anonymous": false,
      "inputs": [
        {
          "indexed": true,
          "internalType": "address",
          "name": "owner",
          "type": "address"
        },
        {
          "indexed": true,
          "internalType": "address",
          "name": "approved",
          "type": "address"
        },
        {
          "indexed": true,
          "internalType": "uint256",
          "name": "tokenId",
          "type": "uint256"
        }
      ],
      "name": "Approval",
      "type": "event"
    },
    {
      "anonymous": false,
      "inputs": [
        {
          "indexed": true,
          "internalType": "address",
          "name": "owner",
          "type": "address"
        },
        {
          "indexed": true,
          "internalType": "address",
          "name": "operator",
          "type": "address"
        },
        {
          "indexed": false,
          "internalType": "bool",
          "name": "approved",
          "type": "bool"
        }
      ],
      "name": "ApprovalForAll",
      "type": "event"
    },
    {
      "anonymous": false,
      "inputs": [
        {
          "indexed": true,
          "internalType": "address",
          "name": "owner",
          "type": "address"
        },
        {
          "indexed": true,
          "internalType": "uint256",
          "name": "assigneeTokenId",
          "type": "uint256"
        },
        {
          "indexed": true,
          "internalType": "uint256",
          "name": "assignorTokenId",
          "type": "uint256"
        }
      ],
      "name": "Equip",
      "type": "event"
    },
    {
      "anonymous": false,
      "inputs": [
        {
          "indexed": true,
          "internalType": "address",
          "name": "previousOwner",
          "type": "address"
        },
        {
          "indexed": true,
          "internalType": "address",
          "name": "newOwner",
          "type": "address"
        }
      ],
      "name": "OwnershipTransferred",
      "type": "event"
    },
    {
      "anonymous": false,
      "inputs": [
        {
          "indexed": true,
          "internalType": "address",
          "name": "from",
          "type": "address"
        },
        {
          "indexed": true,
          "internalType": "address",
          "name": "to",
          "type": "address"
        },
        {
          "indexed": true,
          "internalType": "uint256",
          "name": "tokenId",
          "type": "uint256"
        }
      ],
      "name": "Transfer",
      "type": "event"
    },
    {
      "anonymous": false,
      "inputs": [
        {
          "indexed": true,
          "internalType": "address",
          "name": "owner",
          "type": "address"
        },
        {
          "indexed": true,
          "internalType": "uint256",
          "name": "assigneeTokenId",
          "type": "uint256"
        },
        {
          "indexed": true,
          "internalType": "uint256",
          "name": "assignorTokenId",
          "type": "uint256"
        }
      ],
      "name": "Unequip",
      "type": "event"
    },
    {
      "inputs": [],
      "name": "ERA",
      "outputs": [
        {
          "internalType": "address",
          "name": "",
          "type": "address"
        }
      ],
      "stateMutability": "view",
      "type": "function"
    },
    {
      "inputs": [
        {
          "internalType": "string",
          "name": "typeName",
          "type": "string"
        },
        {
          "internalType": "uint256",
          "name": "allowedAccessorTypes",
          "type": "uint256"
        },
        {
          "internalType": "uint256",
          "name": "maxSupply",
          "type": "uint256"
        },
        {
          "internalType": "string[]",
          "name": "names",
          "type": "string[]"
        },
        {
          "internalType": "uint256[]",
          "name": "mins",
          "type": "uint256[]"
        },
        {
          "internalType": "uint256[]",
          "name": "maxs",
          "type": "uint256[]"
        }
      ],
      "name": "addType",
      "outputs": [],
      "stateMutability": "nonpayable",
      "type": "function"
    },
    {
      "inputs": [
        {
          "internalType": "address",
          "name": "to",
          "type": "address"
        },
        {
          "internalType": "uint256",
          "name": "tokenId",
          "type": "uint256"
        }
      ],
      "name": "approve",
      "outputs": [],
      "stateMutability": "nonpayable",
      "type": "function"
    },
    {
      "inputs": [
        {
          "internalType": "uint256",
          "name": "",
          "type": "uint256"
        }
      ],
      "name": "assignedNFTs",
      "outputs": [
        {
          "internalType": "uint256",
          "name": "",
          "type": "uint256"
        }
      ],
      "stateMutability": "view",
      "type": "function"
    },
    {
      "inputs": [
        {
          "internalType": "address",
          "name": "owner",
          "type": "address"
        }
      ],
      "name": "balanceOf",
      "outputs": [
        {
          "internalType": "uint256",
          "name": "",
          "type": "uint256"
        }
      ],
      "stateMutability": "view",
      "type": "function"
    },
    {
      "inputs": [
        {
          "internalType": "uint256",
          "name": "typeindex",
          "type": "uint256"
        },
        {
          "internalType": "string",
          "name": "typeName",
          "type": "string"
        },
        {
          "internalType": "uint256",
          "name": "allowedAssignorTypes",
          "type": "uint256"
        }
      ],
      "name": "editType",
      "outputs": [],
      "stateMutability": "nonpayable",
      "type": "function"
    },
    {
      "inputs": [
        {
          "internalType": "uint256",
          "name": "assigneeTokenId",
          "type": "uint256"
        },
        {
          "internalType": "uint256",
          "name": "assignorTokenId",
          "type": "uint256"
        }
      ],
      "name": "equip",
      "outputs": [],
      "stateMutability": "nonpayable",
      "type": "function"
    },
    {
      "inputs": [
        {
          "internalType": "uint256",
          "name": "tokenId",
          "type": "uint256"
        }
      ],
      "name": "getApproved",
      "outputs": [
        {
          "internalType": "address",
          "name": "",
          "type": "address"
        }
      ],
      "stateMutability": "view",
      "type": "function"
    },
    {
      "inputs": [],
      "name": "getChainID",
      "outputs": [
        {
          "internalType": "uint256",
          "name": "",
          "type": "uint256"
        }
      ],
      "stateMutability": "view",
      "type": "function"
    },
    {
      "inputs": [
        {
          "internalType": "uint256",
          "name": "tokenId",
          "type": "uint256"
        }
      ],
      "name": "getCumulativeTokenProperties",
      "outputs": [
        {
          "internalType": "uint256[]",
          "name": "",
          "type": "uint256[]"
        }
      ],
      "stateMutability": "view",
      "type": "function"
    },
    {
      "inputs": [
        {
          "internalType": "uint256",
          "name": "tokenId",
          "type": "uint256"
        }
      ],
      "name": "getTokenProperties",
      "outputs": [
        {
          "internalType": "uint256[]",
          "name": "",
          "type": "uint256[]"
        }
      ],
      "stateMutability": "view",
      "type": "function"
    },
    {
      "inputs": [
        {
          "internalType": "address",
          "name": "owner",
          "type": "address"
        },
        {
          "internalType": "address",
          "name": "operator",
          "type": "address"
        }
      ],
      "name": "isApprovedForAll",
      "outputs": [
        {
          "internalType": "bool",
          "name": "",
          "type": "bool"
        }
      ],
      "stateMutability": "view",
      "type": "function"
    },
    {
      "inputs": [],
      "name": "latestTokenID",
      "outputs": [
        {
          "internalType": "uint256",
          "name": "",
          "type": "uint256"
        }
      ],
      "stateMutability": "view",
      "type": "function"
    },
    {
      "inputs": [
        {
          "internalType": "address",
          "name": "to",
          "type": "address"
        },
        {
          "internalType": "uint256",
          "name": "typeIndex",
          "type": "uint256"
        }
      ],
      "name": "mint",
      "outputs": [],
      "stateMutability": "nonpayable",
      "type": "function"
    },
    {
      "inputs": [],
      "name": "mintFee",
      "outputs": [
        {
          "internalType": "uint256",
          "name": "",
          "type": "uint256"
        }
      ],
      "stateMutability": "view",
      "type": "function"
    },
    {
      "inputs": [],
      "name": "name",
      "outputs": [
        {
          "internalType": "string",
          "name": "",
          "type": "string"
        }
      ],
      "stateMutability": "view",
      "type": "function"
    },
    {
      "inputs": [],
      "name": "owner",
      "outputs": [
        {
          "internalType": "address",
          "name": "",
          "type": "address"
        }
      ],
      "stateMutability": "view",
      "type": "function"
    },
    {
      "inputs": [
        {
          "internalType": "uint256",
          "name": "tokenId",
          "type": "uint256"
        }
      ],
      "name": "ownerOf",
      "outputs": [
        {
          "internalType": "address",
          "name": "",
          "type": "address"
        }
      ],
      "stateMutability": "view",
      "type": "function"
    },
    {
      "inputs": [
        {
          "internalType": "uint256",
          "name": "",
          "type": "uint256"
        }
      ],
      "name": "primeNumbers",
      "outputs": [
        {
          "internalType": "uint256",
          "name": "",
          "type": "uint256"
        }
      ],
      "stateMutability": "view",
      "type": "function"
    },
    {
      "inputs": [
        {
          "internalType": "uint256",
          "name": "",
          "type": "uint256"
        },
        {
          "internalType": "uint256",
          "name": "",
          "type": "uint256"
        }
      ],
      "name": "propertiesTypes",
      "outputs": [
        {
          "internalType": "string",
          "name": "name",
          "type": "string"
        },
        {
          "internalType": "uint256",
          "name": "minimum",
          "type": "uint256"
        },
        {
          "internalType": "uint256",
          "name": "maximum",
          "type": "uint256"
        }
      ],
      "stateMutability": "view",
      "type": "function"
    },
    {
      "inputs": [
        {
          "internalType": "uint256",
          "name": "",
          "type": "uint256"
        },
        {
          "internalType": "string",
          "name": "",
          "type": "string"
        }
      ],
      "name": "propertiesTypesExistence",
      "outputs": [
        {
          "internalType": "bool",
          "name": "",
          "type": "bool"
        }
      ],
      "stateMutability": "view",
      "type": "function"
    },
    {
      "inputs": [],
      "name": "renounceOwnership",
      "outputs": [],
      "stateMutability": "nonpayable",
      "type": "function"
    },
    {
      "inputs": [
        {
          "internalType": "uint256",
          "name": "tokenId",
          "type": "uint256"
        }
      ],
      "name": "rootOwner",
      "outputs": [
        {
          "internalType": "address",
          "name": "",
          "type": "address"
        }
      ],
      "stateMutability": "view",
      "type": "function"
    },
    {
      "inputs": [
        {
          "internalType": "address",
          "name": "from",
          "type": "address"
        },
        {
          "internalType": "address",
          "name": "to",
          "type": "address"
        },
        {
          "internalType": "uint256",
          "name": "tokenId",
          "type": "uint256"
        }
      ],
      "name": "safeTransferFrom",
      "outputs": [],
      "stateMutability": "nonpayable",
      "type": "function"
    },
    {
      "inputs": [
        {
          "internalType": "address",
          "name": "from",
          "type": "address"
        },
        {
          "internalType": "address",
          "name": "to",
          "type": "address"
        },
        {
          "internalType": "uint256",
          "name": "tokenId",
          "type": "uint256"
        },
        {
          "internalType": "bytes",
          "name": "data",
          "type": "bytes"
        }
      ],
      "name": "safeTransferFrom",
      "outputs": [],
      "stateMutability": "nonpayable",
      "type": "function"
    },
    {
      "inputs": [
        {
          "internalType": "address",
          "name": "operator",
          "type": "address"
        },
        {
          "internalType": "bool",
          "name": "approved",
          "type": "bool"
        }
      ],
      "name": "setApprovalForAll",
      "outputs": [],
      "stateMutability": "nonpayable",
      "type": "function"
    },
    {
      "inputs": [
        {
          "internalType": "uint256",
          "name": "_fee",
          "type": "uint256"
        }
      ],
      "name": "setMintFee",
      "outputs": [],
      "stateMutability": "nonpayable",
      "type": "function"
    },
    {
      "inputs": [
        {
          "internalType": "bytes4",
          "name": "interfaceId",
          "type": "bytes4"
        }
      ],
      "name": "supportsInterface",
      "outputs": [
        {
          "internalType": "bool",
          "name": "",
          "type": "bool"
        }
      ],
      "stateMutability": "view",
      "type": "function"
    },
    {
      "inputs": [],
      "name": "symbol",
      "outputs": [
        {
          "internalType": "string",
          "name": "",
          "type": "string"
        }
      ],
      "stateMutability": "view",
      "type": "function"
    },
    {
      "inputs": [
        {
          "internalType": "uint256",
          "name": "",
          "type": "uint256"
        }
      ],
      "name": "tokenIdToTypeIndex",
      "outputs": [
        {
          "internalType": "uint256",
          "name": "",
          "type": "uint256"
        }
      ],
      "stateMutability": "view",
      "type": "function"
    },
    {
      "inputs": [
        {
          "internalType": "uint256",
          "name": "tokenId",
          "type": "uint256"
        }
      ],
      "name": "tokenURI",
      "outputs": [
        {
          "internalType": "string",
          "name": "",
          "type": "string"
        }
      ],
      "stateMutability": "view",
      "type": "function"
    },
    {
      "inputs": [
        {
          "internalType": "address",
          "name": "from",
          "type": "address"
        },
        {
          "internalType": "address",
          "name": "to",
          "type": "address"
        },
        {
          "internalType": "uint256",
          "name": "tokenId",
          "type": "uint256"
        }
      ],
      "name": "transferFrom",
      "outputs": [],
      "stateMutability": "nonpayable",
      "type": "function"
    },
    {
      "inputs": [
        {
          "internalType": "address",
          "name": "newOwner",
          "type": "address"
        }
      ],
      "name": "transferOwnership",
      "outputs": [],
      "stateMutability": "nonpayable",
      "type": "function"
    },
    {
      "inputs": [
        {
          "internalType": "uint256",
          "name": "",
          "type": "uint256"
        }
      ],
      "name": "types",
      "outputs": [
        {
          "internalType": "string",
          "name": "typeName",
          "type": "string"
        },
        {
          "internalType": "uint256",
          "name": "allowedAssignorTypes",
          "type": "uint256"
        },
        {
          "internalType": "uint256",
          "name": "typeId",
          "type": "uint256"
        },
        {
          "internalType": "uint256",
          "name": "maxSupply",
          "type": "uint256"
        },
        {
          "internalType": "uint256",
          "name": "currentSupply",
          "type": "uint256"
        }
      ],
      "stateMutability": "view",
      "type": "function"
    },
    {
      "inputs": [
        {
          "internalType": "uint256",
          "name": "assigneeTokenId",
          "type": "uint256"
        }
      ],
      "name": "unequip",
      "outputs": [],
      "stateMutability": "nonpayable",
      "type": "function"
    }
  ],
  "bytecode": "0x6001600790815561034060405260026080908152600360a052600560c05260e091909152600b61010052600d61012052601161014052601361016052601761018052601d6101a052601f6101c05260256101e052602961020052602b61022052602f61024052603561026052603b61028052603d6102a05260436102c05260476102e052604961030052604f610320526200009f906009906016620001a4565b506001601055348015620000b257600080fd5b5060405162003b9938038062003b99833981016040819052620000d59162000340565b835184908490620000ee906000906020850190620001f9565b50805162000104906001906020840190620001f9565b505050620001216200011b6200014e60201b60201c565b62000152565b601180546001600160a01b0319166001600160a01b03939093169290921790915560125550620004229050565b3390565b600680546001600160a01b038381166001600160a01b0319831681179093556040519116919082907f8be0079c531659141344cd1fd0a4f28419497f9722a3daafe3b4186f6b6457e090600090a35050565b828054828255906000526020600020908101928215620001e7579160200282015b82811115620001e7578251829060ff16905591602001919060010190620001c5565b50620001f592915062000276565b5090565b8280546200020790620003cf565b90600052602060002090601f0160209004810192826200022b5760008555620001e7565b82601f106200024657805160ff1916838001178555620001e7565b82800160010185558215620001e7579182015b82811115620001e757825182559160200191906001019062000259565b5b80821115620001f5576000815560010162000277565b600082601f8301126200029e578081fd5b81516001600160401b0380821115620002bb57620002bb6200040c565b604051601f8301601f19908116603f01168101908282118183101715620002e657620002e66200040c565b8160405283815260209250868385880101111562000302578485fd5b8491505b8382101562000325578582018301518183018401529082019062000306565b838211156200033657848385830101525b9695505050505050565b6000806000806080858703121562000356578384fd5b84516001600160401b03808211156200036d578586fd5b6200037b888389016200028d565b9550602087015191508082111562000391578485fd5b50620003a0878288016200028d565b604087015190945090506001600160a01b0381168114620003bf578283fd5b6060959095015193969295505050565b600281046001821680620003e457607f821691505b602082108114156200040657634e487b7160e01b600052602260045260246000fd5b50919050565b634e487b7160e01b600052604160045260246000fd5b61376780620004326000396000f3fe608060405234801561001057600080fd5b50600436106101a15760003560e01c806301ffc9a7146101a657806306fdde03146101cf578063081812fc146101e4578063095ea7b3146102045780630d5242941461021957806313966db5146102395780631a0fe7cd146102415780632089dd8f1461025457806323b872dd14610267578063282575321461027a5780633074cb511461028d5780633ecf83621461029557806340c10f19146102b757806342842e0e146102ca5780634edea111146102dd5780635599e542146102fd578063564b81ef146103105780636352211e1461031857806370a082311461032b578063715018a61461033e5780638da5cb5b1461034657806395d89b411461034e578063a22cb46514610356578063a2d966ea14610369578063a3f61b3114610371578063b88d4fde14610384578063c87b56dd14610397578063cefbfa36146103aa578063d179e3d0146103ce578063e17be8a9146103e1578063e263e449146103f4578063e985e9c514610407578063eddd0d9c1461041a578063f2fde38b1461042d578063f599007a14610440575b600080fd5b6101b96101b43660046129d5565b610453565b6040516101c69190612dde565b60405180910390f35b6101d761049b565b6040516101c69190612de9565b6101f76101f2366004612ac6565b61052d565b6040516101c69190612d56565b610217610212366004612990565b610554565b005b61022c610227366004612ac6565b6105f5565b6040516101c69190613472565b61022c610607565b61022c61024f366004612ac6565b61060d565b6101b9610262366004612ade565b61062e565b6102176102753660046128a7565b61065f565b610217610288366004612b6f565b610697565b61022c610963565b6102a86102a3366004612b6f565b610969565b6040516101c693929190612dfc565b6102176102c5366004612990565b610a38565b6102176102d83660046128a7565b610e8c565b6102f06102eb366004612ac6565b610ea7565b6040516101c69190612dcb565b61021761030b366004612a0d565b6110c7565b61022c611433565b6101f7610326366004612ac6565b611437565b61022c61033936600461285b565b61146c565b6102176114b0565b6101f76114c4565b6101d76114d3565b61021761036436600461295a565b6114e2565b6101f76114f8565b6102f061037f366004612ac6565b611507565b6102176103923660046128e2565b61171e565b6101d76103a5366004612ac6565b61175d565b6103bd6103b8366004612ac6565b611846565b6040516101c6959493929190612e21565b6102176103dc366004612ac6565b611914565b6101f76103ef366004612ac6565b611b06565b610217610402366004612b22565b611b42565b6101b9610415366004612875565b611bcd565b610217610428366004612ac6565b611bfb565b61021761043b36600461285b565b611c08565b61022c61044e366004612ac6565b611c42565b60006001600160e01b031982166380ac58cd60e01b148061048457506001600160e01b03198216635b5e139f60e01b145b80610493575061049382611c54565b90505b919050565b6060600080546104aa90613601565b80601f01602080910402602001604051908101604052809291908181526020018280546104d690613601565b80156105235780601f106104f857610100808354040283529160200191610523565b820191906000526020600020905b81548152906001019060200180831161050657829003601f168201915b5050505050905090565b600061053882611c6d565b506000908152600460205260409020546001600160a01b031690565b600061055f82611437565b9050806001600160a01b0316836001600160a01b0316141561059c5760405162461bcd60e51b81526004016105939061336e565b60405180910390fd5b806001600160a01b03166105ae611c92565b6001600160a01b031614806105ca57506105ca81610415611c92565b6105e65760405162461bcd60e51b81526004016105939061319c565b6105f08383611c96565b505050565b600c6020526000908152604090205481565b60125481565b6009818154811061061d57600080fd5b600091825260209091200154905081565b600b602090815260009283526040909220815180830184018051928152908401929093019190912091525460ff1681565b61067061066a611c92565b82611d04565b61068c5760405162461bcd60e51b815260040161059390613424565b6105f0838383611d63565b808214156106b75760405162461bcd60e51b815260040161059390613063565b336106c183611437565b6001600160a01b0316146106e75760405162461bcd60e51b8152600401610593906132f7565b6000828152600f6020526040902054156107135760405162461bcd60e51b815260040161059390613263565b3361071d82611b06565b6001600160a01b0316146107435760405162461bcd60e51b815260040161059390612ec8565b6000828152600c60205260408082205483835291205460088054909190811061077c57634e487b7160e01b600052603260045260246000fd5b906000526020600020906005020160020154600882815481106107af57634e487b7160e01b600052603260045260246000fd5b9060005260206000209060050201600101546107cb9190613677565b156107e85760405162461bcd60e51b815260040161059390612e58565b6107f3333085611d63565b6000838152600f6020526040812083905561080d84611507565b90506000600a6000848152602001908152602001600020805480602002602001604051908101604052809291908181526020016000905b8282101561091c578382906000526020600020906003020160405180606001604052908160008201805461087790613601565b80601f01602080910402602001604051908101604052809291908181526020018280546108a390613601565b80156108f05780601f106108c5576101008083540402835291602001916108f0565b820191906000526020600020905b8154815290600101906020018083116108d357829003601f168201915b505050505081526020016001820154815260200160028201548152505081526020019060010190610844565b50505050905061092d848284611e84565b6040518490869033907f7a980bdfb21a07f793d4737b09ba7e61a119c753c316b7d958de3b08d9cba86e90600090a45050505050565b60075481565b600a602052816000526040600020818154811061098557600080fd5b9060005260206000209060030201600091509150508060000180546109a990613601565b80601f01602080910402602001604051908101604052809291908181526020018280546109d590613601565b8015610a225780601f106109f757610100808354040283529160200191610a22565b820191906000526020600020905b815481529060010190602001808311610a0557829003601f168201915b5050505050908060010154908060020154905083565b60088181548110610a5957634e487b7160e01b600052603260045260246000fd5b90600052602060002090600502016003015460001480610adc575060088181548110610a9557634e487b7160e01b600052603260045260246000fd5b90600052602060002090600502016004015460088281548110610ac857634e487b7160e01b600052603260045260246000fd5b906000526020600020906005020160030154115b610af85760405162461bcd60e51b815260040161059390613111565b6011546001600160a01b03166323b872dd33610b126114c4565b6012546040518463ffffffff1660e01b8152600401610b3393929190612d6a565b602060405180830381600087803b158015610b4d57600080fd5b505af1158015610b61573d6000803e3d6000fd5b505050506040513d601f19601f82011682018060405250810190610b8591906129b9565b50600160088281548110610ba957634e487b7160e01b600052603260045260246000fd5b90600052602060002090600502016004016000828254610bc99190613592565b92505081905550610bdc82600754612019565b600780546000908152600c602090815260408083208590558354808452600d8352818420600e9093529083209193919260019291610c1b908490613592565b90915550600090505b6000848152600a6020526040902054811015610e855760108054906000610c4a8361363c565b90915550506000848152600a602052604081208054610daa919084908110610c8257634e487b7160e01b600052603260045260246000fd5b906000526020600020906003020160010154600a60008881526020019081526020016000208481548110610cc657634e487b7160e01b600052603260045260246000fd5b906000526020600020906003020160020154600a60008981526020019081526020016000208581548110610d0a57634e487b7160e01b600052603260045260246000fd5b90600052602060002090600302016000018054610d2690613601565b80601f0160208091040260200160405190810160405280929190818152602001828054610d5290613601565b8015610d9f5780601f10610d7457610100808354040283529160200191610d9f565b820191906000526020600020905b815481529060010190602001808311610d8257829003601f168201915b5050505050856120ee565b90508084600a60008881526020019081526020016000208481548110610de057634e487b7160e01b600052603260045260246000fd5b9060005260206000209060030201600001604051610dfe9190612c66565b9081526020016040518091039020819055508083600a60008881526020019081526020016000208481548110610e4457634e487b7160e01b600052603260045260246000fd5b9060005260206000209060030201600001604051610e629190612c66565b908152604051908190036020019020555080610e7d8161363c565b915050610c24565b5050505050565b6105f08383836040518060200160405280600081525061171e565b6000818152600c6020908152604080832054808452600a835281842080548351818602810186019094528084526060959294929392849084015b82821015610fb95783829060005260206000209060030201604051806060016040529081600082018054610f1490613601565b80601f0160208091040260200160405190810160405280929190818152602001828054610f4090613601565b8015610f8d5780601f10610f6257610100808354040283529160200191610f8d565b820191906000526020600020905b815481529060010190602001808311610f7057829003601f168201915b505050505081526020016001820154815260200160028201548152505081526020019060010190610ee1565b505050509050600081516001600160401b03811115610fe857634e487b7160e01b600052604160045260246000fd5b604051908082528060200260200182016040528015611011578160200160208202803683370190505b50905060005b82518160ff1610156110be576000868152600d602052604090208351849060ff841690811061105657634e487b7160e01b600052603260045260246000fd5b60200260200101516000015160405161106f9190612bf6565b908152602001604051809103902054828260ff16815181106110a157634e487b7160e01b600052603260045260246000fd5b6020908102919091010152806110b681613657565b915050611017565b50949350505050565b6110cf612152565b81518351146110dd57600080fd5b80518351146110eb57600080fd5b60086040518060a0016040528088815260200187815260200160096008805490508154811061112a57634e487b7160e01b600052603260045260246000fd5b6000918252602080832090910154835282810189905260409092018190528354600181018555938152819020825180519394600502909101926111709284920190612674565b5060208201518160010155604082015181600201556060820151816003015560808201518160040155505060005b835181101561139a578281815181106111c757634e487b7160e01b600052603260045260246000fd5b60200260200101518282815181106111ef57634e487b7160e01b600052603260045260246000fd5b6020026020010151116112145760405162461bcd60e51b815260040161059390612f94565b600854600a90600090611229906001906135be565b8152602001908152602001600020604051806060016040528086848151811061126257634e487b7160e01b600052603260045260246000fd5b6020026020010151815260200185848151811061128f57634e487b7160e01b600052603260045260246000fd5b602002602001015181526020018484815181106112bc57634e487b7160e01b600052603260045260246000fd5b6020908102919091018101519091528254600181018455600093845292819020825180519394600302909101926112f69284920190612674565b50602082015181600101556040820151816002015550506001600b6000600160088054905061132591906135be565b815260200190815260200160002085838151811061135357634e487b7160e01b600052603260045260246000fd5b60200260200101516040516113689190612bf6565b908152604051908190036020019020805491151560ff19909216919091179055806113928161363c565b91505061119e565b506008547f0272611e7acb5b417eba4bbb061a8d043552eab942299bdd30832389879d6797906113cc906001906135be565b878787878787600960016008805490506113e691906135be565b8154811061140457634e487b7160e01b600052603260045260246000fd5b906000526020600020015460405161142398979695949392919061347b565b60405180910390a1505050505050565b4690565b6000818152600260205260408120546001600160a01b0316806104935760405162461bcd60e51b81526004016105939061333c565b60006001600160a01b0382166114945760405162461bcd60e51b815260040161059390613153565b506001600160a01b031660009081526003602052604090205490565b6114b8612152565b6114c26000612191565b565b6006546001600160a01b031690565b6060600180546104aa90613601565b6114f46114ed611c92565b83836121e3565b5050565b6011546001600160a01b031681565b6000818152600c6020908152604080832054808452600a835281842080548351818602810186019094528084526060959294929392849084015b82821015611619578382906000526020600020906003020160405180606001604052908160008201805461157490613601565b80601f01602080910402602001604051908101604052809291908181526020018280546115a090613601565b80156115ed5780601f106115c2576101008083540402835291602001916115ed565b820191906000526020600020905b8154815290600101906020018083116115d057829003601f168201915b505050505081526020016001820154815260200160028201548152505081526020019060010190611541565b505050509050600081516001600160401b0381111561164857634e487b7160e01b600052604160045260246000fd5b604051908082528060200260200182016040528015611671578160200160208202803683370190505b50905060005b82518160ff1610156110be576000868152600e602052604090208351849060ff84169081106116b657634e487b7160e01b600052603260045260246000fd5b6020026020010151600001516040516116cf9190612bf6565b908152602001604051809103902054828260ff168151811061170157634e487b7160e01b600052603260045260246000fd5b60209081029190910101528061171681613657565b915050611677565b61172f611729611c92565b83611d04565b61174b5760405162461bcd60e51b815260040161059390613424565b61175784848484612286565b50505050565b6060611768826122b9565b6117845760405162461bcd60e51b8152600401610593906132a8565b600061178e611433565b60408051808201909152601e81527f68747470733a2f2f686973746f7069612e696f2f617574682f6d6574612f00006020820152909150806117cf836122d6565b6040516020016117e0929190612c12565b6040516020818303038152906040529050806040516020016118029190612c41565b60405160208183030381529060405290508061181d856122d6565b60405160200161182e929190612c12565b60405160208183030381529060405292505050919050565b6008818154811061185657600080fd5b906000526020600020906005020160009150905080600001805461187990613601565b80601f01602080910402602001604051908101604052809291908181526020018280546118a590613601565b80156118f25780601f106118c7576101008083540402835291602001916118f2565b820191906000526020600020905b8154815290600101906020018083116118d557829003601f168201915b5050505050908060010154908060020154908060030154908060040154905085565b6000818152600f602052604090205461193f5760405162461bcd60e51b8152600401610593906133af565b3361194982611b06565b6001600160a01b03161461196f5760405162461bcd60e51b8152600401610593906133f0565b61197a303383611d63565b600061198582611507565b6000838152600c60209081526040808320548352600a825280832080548251818502810185019093528083529495509293909291849084015b82821015611a9657838290600052602060002090600302016040518060600160405290816000820180546119f190613601565b80601f0160208091040260200160405190810160405280929190818152602001828054611a1d90613601565b8015611a6a5780601f10611a3f57610100808354040283529160200191611a6a565b820191906000526020600020905b815481529060010190602001808311611a4d57829003601f168201915b5050505050815260200160018201548152602001600282015481525050815260200190600101906119be565b5050506000858152600f6020526040902054919250611ab891905082846123f0565b6000838152600f60205260408082205490519091859133917fe2648b05da6134eb6524da83eb9c99815d0e07cfa9a508bca730c49fc53c660591a450506000908152600f6020526040812055565b6000815b6000818152600f602052604090205415611b32576000908152600f6020526040902054611b0a565b611b3b81611437565b9392505050565b611b4a612152565b8160088481548110611b6c57634e487b7160e01b600052603260045260246000fd5b90600052602060002090600502016000019080519060200190611b90929190612674565b508060088481548110611bb357634e487b7160e01b600052603260045260246000fd5b906000526020600020906005020160010181905550505050565b6001600160a01b03918216600090815260056020908152604080832093909416825291909152205460ff1690565b611c03612152565b601255565b611c10612152565b6001600160a01b038116611c365760405162461bcd60e51b815260040161059390612f4e565b611c3f81612191565b50565b600f6020526000908152604090205481565b6001600160e01b031981166301ffc9a760e01b14919050565b611c76816122b9565b611c3f5760405162461bcd60e51b81526004016105939061333c565b3390565b600081815260046020526040902080546001600160a01b0319166001600160a01b0384169081179091558190611ccb82611437565b6001600160a01b03167f8c5be1e5ebec7d5bd14f71427d1e84f3dd0314c0f7b2291e5b200ac8c7c3b92560405160405180910390a45050565b600080611d1083611437565b9050806001600160a01b0316846001600160a01b03161480611d375750611d378185611bcd565b80611d5b5750836001600160a01b0316611d508461052d565b6001600160a01b0316145b949350505050565b826001600160a01b0316611d7682611437565b6001600160a01b031614611d9c5760405162461bcd60e51b815260040161059390612fe8565b6001600160a01b038216611dc25760405162461bcd60e51b81526004016105939061309a565b611dcd8383836105f0565b611dd8600082611c96565b6001600160a01b0383166000908152600360205260408120805460019290611e019084906135be565b90915550506001600160a01b0382166000908152600360205260408120805460019290611e2f908490613592565b909155505060008181526002602052604080822080546001600160a01b0319166001600160a01b0386811691821790925591518493918716916000805160206136f283398151915291a46105f08383836105f0565b60005b82518160ff161015611fea576000848152600c60209081526040808320548352600b90915290208351849060ff8416908110611ed357634e487b7160e01b600052603260045260246000fd5b602002602001015160000151604051611eec9190612bf6565b9081526040519081900360200190205460ff1615611fa657818160ff1681518110611f2757634e487b7160e01b600052603260045260246000fd5b6020026020010151600e6000868152602001908152602001600020848360ff1681518110611f6557634e487b7160e01b600052603260045260246000fd5b602002602001015160000151604051611f7e9190612bf6565b90815260200160405180910390206000828254611f9b9190613592565b90915550611fd89050565b6000828260ff1681518110611fcb57634e487b7160e01b600052603260045260246000fd5b6020026020010181815250505b80611fe281613657565b915050611e87565b506000838152600f6020526040902054156105f0576000838152600f60205260409020546105f0908383611e84565b6001600160a01b03821661203f5760405162461bcd60e51b8152600401610593906131f9565b612048816122b9565b156120655760405162461bcd60e51b81526004016105939061302d565b612071600083836105f0565b6001600160a01b038216600090815260036020526040812080546001929061209a908490613592565b909155505060008181526002602052604080822080546001600160a01b0319166001600160a01b03861690811790915590518392906000805160206136f2833981519152908290a46114f4600083836105f0565b6000846120fb81866135be565b444241866007548960105460405160200161211c9796959493929190612d01565b6040516020818303038152906040528051906020012060001c61213f9190613677565b6121499190613592565b95945050505050565b61215a611c92565b6001600160a01b031661216b6114c4565b6001600160a01b0316146114c25760405162461bcd60e51b81526004016105939061322e565b600680546001600160a01b038381166001600160a01b0319831681179093556040519116919082907f8be0079c531659141344cd1fd0a4f28419497f9722a3daafe3b4186f6b6457e090600090a35050565b816001600160a01b0316836001600160a01b031614156122155760405162461bcd60e51b8152600401610593906130de565b6001600160a01b0383811660008181526005602090815260408083209487168084529490915290819020805460ff1916851515179055517f17307eab39ab6107e8899845ad3d59bd9653f200f220920489ca2b5937696c3190612279908590612dde565b60405180910390a3505050565b612291848484611d63565b61229d8484848461254d565b6117575760405162461bcd60e51b815260040161059390612efc565b6000908152600260205260409020546001600160a01b0316151590565b6060816122fb57506040805180820190915260018152600360fc1b6020820152610496565b8160005b8115612325578061230f8161363c565b915061231e9050600a836135aa565b91506122ff565b6000816001600160401b0381111561234d57634e487b7160e01b600052604160045260246000fd5b6040519080825280601f01601f191660200182016040528015612377576020820181803683370190505b5090505b8415611d5b5761238c6001836135be565b9150612399600a86613677565b6123a4906030613592565b60f81b8183815181106123c757634e487b7160e01b600052603260045260246000fd5b60200101906001600160f81b031916908160001a9053506123e9600a866135aa565b945061237b565b6000838152600f60205260409020541561241e576000838152600f602052604090205461241e9083836123f0565b60005b82518160ff161015611757576000848152600c60209081526040808320548352600b90915290208351849060ff841690811061246d57634e487b7160e01b600052603260045260246000fd5b6020026020010151600001516040516124869190612bf6565b9081526040519081900360200190205460ff161561253b57818160ff16815181106124c157634e487b7160e01b600052603260045260246000fd5b6020026020010151600e6000868152602001908152602001600020848360ff16815181106124ff57634e487b7160e01b600052603260045260246000fd5b6020026020010151600001516040516125189190612bf6565b9081526020016040518091039020600082825461253591906135be565b90915550505b8061254581613657565b915050612421565b6000612561846001600160a01b0316612665565b1561265d57836001600160a01b031663150b7a0261257d611c92565b8786866040518563ffffffff1660e01b815260040161259f9493929190612d8e565b602060405180830381600087803b1580156125b957600080fd5b505af19250505080156125e9575060408051601f3d908101601f191682019092526125e6918101906129f1565b60015b612643573d808015612617576040519150601f19603f3d011682016040523d82523d6000602084013e61261c565b606091505b50805161263b5760405162461bcd60e51b815260040161059390612efc565b805181602001fd5b6001600160e01b031916630a85bd0160e11b149050611d5b565b506001611d5b565b6001600160a01b03163b151590565b82805461268090613601565b90600052602060002090601f0160209004810192826126a257600085556126e8565b82601f106126bb57805160ff19168380011785556126e8565b828001600101855582156126e8579182015b828111156126e85782518255916020019190600101906126cd565b506126f49291506126f8565b5090565b5b808211156126f457600081556001016126f9565b60006001600160401b03831115612726576127266136b7565b612739601f8401601f1916602001613533565b905082815283838301111561274d57600080fd5b828260208301376000602084830101529392505050565b80356001600160a01b038116811461049657600080fd5b600082601f83011261278b578081fd5b813560206127a061279b83613563565b613533565b82815281810190858301855b858110156127d5576127c3898684358b010161283c565b845292840192908401906001016127ac565b5090979650505050505050565b600082601f8301126127f2578081fd5b8135602061280261279b83613563565b828152818101908583018385028701840188101561281e578586fd5b855b858110156127d557813584529284019290840190600101612820565b600082601f83011261284c578081fd5b611b3b8383356020850161270d565b60006020828403121561286c578081fd5b611b3b82612764565b60008060408385031215612887578081fd5b61289083612764565b915061289e60208401612764565b90509250929050565b6000806000606084860312156128bb578081fd5b6128c484612764565b92506128d260208501612764565b9150604084013590509250925092565b600080600080608085870312156128f7578081fd5b61290085612764565b935061290e60208601612764565b92506040850135915060608501356001600160401b0381111561292f578182fd5b8501601f8101871361293f578182fd5b61294e8782356020840161270d565b91505092959194509250565b6000806040838503121561296c578182fd5b61297583612764565b91506020830135612985816136cd565b809150509250929050565b600080604083850312156129a2578182fd5b6129ab83612764565b946020939093013593505050565b6000602082840312156129ca578081fd5b8151611b3b816136cd565b6000602082840312156129e6578081fd5b8135611b3b816136db565b600060208284031215612a02578081fd5b8151611b3b816136db565b60008060008060008060c08789031215612a25578384fd5b86356001600160401b0380821115612a3b578586fd5b612a478a838b0161283c565b975060208901359650604089013595506060890135915080821115612a6a578384fd5b612a768a838b0161277b565b94506080890135915080821115612a8b578384fd5b612a978a838b016127e2565b935060a0890135915080821115612aac578283fd5b50612ab989828a016127e2565b9150509295509295509295565b600060208284031215612ad7578081fd5b5035919050565b60008060408385031215612af0578182fd5b8235915060208301356001600160401b03811115612b0c578182fd5b612b188582860161283c565b9150509250929050565b600080600060608486031215612b36578081fd5b8335925060208401356001600160401b03811115612b52578182fd5b612b5e8682870161283c565b925050604084013590509250925092565b60008060408385031215612b81578182fd5b50508035926020909101359150565b6000815180845260208085019450808401835b83811015612bbf57815187529582019590820190600101612ba3565b509495945050505050565b60008151808452612be28160208601602086016135d5565b601f01601f19169290920160200192915050565b60008251612c088184602087016135d5565b9190910192915050565b60008351612c248184602088016135d5565b835190830190612c388183602088016135d5565b01949350505050565b60008251612c538184602087016135d5565b602f60f81b920191825250600101919050565b8154600090819060028104600180831680612c8257607f831692505b6020808410821415612ca257634e487b7160e01b87526022600452602487fd5b818015612cb65760018114612cc757612cf3565b60ff19861689528489019650612cf3565b612cd08a613586565b885b86811015612ceb5781548b820152908501908301612cd2565b505084890196505b509498975050505050505050565b600088825287602083015260018060601b03198760601b1660408301528560548301528460748301528351612d3d8160948501602088016135d5565b609492019182019290925260b401979650505050505050565b6001600160a01b0391909116815260200190565b6001600160a01b039384168152919092166020820152604081019190915260600190565b6001600160a01b0385811682528416602082015260408101839052608060608201819052600090612dc190830184612bca565b9695505050505050565b600060208252611b3b6020830184612b90565b901515815260200190565b600060208252611b3b6020830184612bca565b600060608252612e0f6060830186612bca565b60208301949094525060400152919050565b600060a08252612e3460a0830188612bca565b90508560208301528460408301528360608301528260808301529695505050505050565b6020808252604a908201527f41737369676e61626c654552433732313a20746869732061737369676e6f722060408201527f74797065206973206e6f7420616c6c6f77656420666f7220746869732061737360608201526969676e6565207479706560b01b608082015260a00190565b602080825260269082015260008051602061371283398151915260408201526539b4b3b737b960d11b606082015260800190565b60208082526032908201527f4552433732313a207472616e7366657220746f206e6f6e20455243373231526560408201527131b2b4bb32b91034b6b83632b6b2b73a32b960711b606082015260800190565b60208082526026908201527f4f776e61626c653a206e6577206f776e657220697320746865207a65726f206160408201526564647265737360d01b606082015260800190565b60208082526034908201527f696e76616c6964206d617820616e64206d696e20286d61782073686f756c642060408201527362652067726561746572207468616e206d696e2960601b606082015260800190565b60208082526025908201527f4552433732313a207472616e736665722066726f6d20696e636f72726563742060408201526437bbb732b960d91b606082015260800190565b6020808252601c908201527b115490cdcc8c4e881d1bdad95b88185b1c9958591e481b5a5b9d195960221b604082015260600190565b6020808252601f908201527f6964656e746963616c2061737369676e656520616e6420617373696e676f7200604082015260600190565b60208082526024908201527f4552433732313a207472616e7366657220746f20746865207a65726f206164646040820152637265737360e01b606082015260800190565b60208082526019908201527822a9219b99189d1030b8383937bb32903a379031b0b63632b960391b604082015260600190565b60208082526022908201527f63757272656e7420737570706c792065786365656473206d617820737570706c604082015261792160f01b606082015260800190565b60208082526029908201527f4552433732313a2061646472657373207a65726f206973206e6f7420612076616040820152683634b21037bbb732b960b91b606082015260800190565b6020808252603e908201527f4552433732313a20617070726f76652063616c6c6572206973206e6f7420746f60408201527f6b656e206f776e6572206e6f7220617070726f76656420666f7220616c6c0000606082015260800190565b6020808252818101527f4552433732313a206d696e7420746f20746865207a65726f2061646472657373604082015260600190565b6020808252818101527f4f776e61626c653a2063616c6c6572206973206e6f7420746865206f776e6572604082015260600190565b60208082526025908201527f61737369676e656520697320616c72656164792061737369676e656420746f2060408201526418481b999d60da1b606082015260800190565b6020808252602f908201527f4552433732314d657461646174613a2055524920717565727920666f72206e6f60408201526e3732bc34b9ba32b73a103a37b5b2b760891b606082015260800190565b60208082526025908201527f796f7520617265206e6f7420616c6c6f77656420746f206571756970207468696040820152641cc81b999d60da1b606082015260800190565b602080825260189082015277115490cdcc8c4e881a5b9d985b1a59081d1bdad95b88125160421b604082015260600190565b60208082526021908201527f4552433732313a20617070726f76616c20746f2063757272656e74206f776e656040820152603960f91b606082015260800190565b60208082526021908201527f61737369676e6565206973206e6f742061737369676e656420746f2061206e666040820152601d60fa1b606082015260800190565b60208082526026908201526000805160206137128339815191526040820152657369676e656560d01b606082015260800190565b6020808252602e908201527f4552433732313a2063616c6c6572206973206e6f7420746f6b656e206f776e6560408201526d1c881b9bdc88185c1c1c9bdd995960921b606082015260800190565b90815260200190565b60006101008a8352602081818501526134968285018c612bca565b91508960408501528860608501528382036080850152818851808452828401915082838202850101838b01865b838110156134f157601f198784030185526134df838351612bca565b948601949250908501906001016134c3565b505086810360a0880152613505818b612b90565b94505050505082810360c084015261351d8186612b90565b9150508260e08301529998505050505050505050565b604051601f8201601f191681016001600160401b038111828210171561355b5761355b6136b7565b604052919050565b60006001600160401b0382111561357c5761357c6136b7565b5060209081020190565b60009081526020902090565b600082198211156135a5576135a561368b565b500190565b6000826135b9576135b96136a1565b500490565b6000828210156135d0576135d061368b565b500390565b60005b838110156135f05781810151838201526020016135d8565b838111156117575750506000910152565b60028104600182168061361557607f821691505b6020821081141561363657634e487b7160e01b600052602260045260246000fd5b50919050565b60006000198214156136505761365061368b565b5060010190565b600060ff821660ff81141561366e5761366e61368b565b60010192915050565b600082613686576136866136a1565b500690565b634e487b7160e01b600052601160045260246000fd5b634e487b7160e01b600052601260045260246000fd5b634e487b7160e01b600052604160045260246000fd5b8015158114611c3f57600080fd5b6001600160e01b031981168114611c3f57600080fdfeddf252ad1be2c89b69c2b068fc378daa952ba7f163c4a11628f55a4df523b3ef796f7520646f6e277420686176652061636365737320746f2074686973206173a2646970667358221220ee7434107ac2a18810b47717d51054df60863e9555ff145d898dee3d6a6e0ec064736f6c63430008010033",
  "linkReferences": {},
  "deployedLinkReferences": {}
}