{
  "_format": "hh-sol-artifact-1",
  "contractName": "AttachableERC721",
  "sourceName": "contracts/HistopiaNFT.sol",
  "abi": [
    {
      "inputs": [
        {
          "internalType": "string",
          "name": "name_",
          "type": "string"
        },
        {
          "internalType": "string",
          "name": "symbol_",
          "type": "string"
        },
        {
          "internalType": "address",
          "name": "_ERA",
          "type": "address"
        },
        {
          "internalType": "uint256",
          "name": "_mintFee",
          "type": "uint256"
        }
      ],
      "stateMutability": "nonpayable",
      "type": "constructor"
    },
    {
      "anonymous": false,
      "inputs": [
        {
          "indexed": false,
          "internalType": "uint256",
          "name": "typeId",
          "type": "uint256"
        },
        {
          "indexed": false,
          "internalType": "string",
          "name": "typeName",
          "type": "string"
        },
        {
          "indexed": false,
          "internalType": "uint256",
          "name": "allowedAccessorTypes",
          "type": "uint256"
        },
        {
          "indexed": false,
          "internalType": "uint256",
          "name": "maxSupply",
          "type": "uint256"
        },
        {
          "indexed": false,
          "internalType": "string[]",
          "name": "names",
          "type": "string[]"
        },
        {
          "indexed": false,
          "internalType": "uint256[]",
          "name": "mins",
          "type": "uint256[]"
        },
        {
          "indexed": false,
          "internalType": "uint256[]",
          "name": "maxs",
          "type": "uint256[]"
        },
        {
          "indexed": false,
          "internalType": "uint256",
          "name": "primeNumber",
          "type": "uint256"
        }
      ],
      "name": "AddType",
      "type": "event"
    },
    {
      "anonymous": false,
      "inputs": [
        {
          "indexed": true,
          "internalType": "address",
          "name": "owner",
          "type": "address"
        },
        {
          "indexed": true,
          "internalType": "address",
          "name": "approved",
          "type": "address"
        },
        {
          "indexed": true,
          "internalType": "uint256",
          "name": "tokenId",
          "type": "uint256"
        }
      ],
      "name": "Approval",
      "type": "event"
    },
    {
      "anonymous": false,
      "inputs": [
        {
          "indexed": true,
          "internalType": "address",
          "name": "owner",
          "type": "address"
        },
        {
          "indexed": true,
          "internalType": "address",
          "name": "operator",
          "type": "address"
        },
        {
          "indexed": false,
          "internalType": "bool",
          "name": "approved",
          "type": "bool"
        }
      ],
      "name": "ApprovalForAll",
      "type": "event"
    },
    {
      "anonymous": false,
      "inputs": [
        {
          "indexed": true,
          "internalType": "address",
          "name": "owner",
          "type": "address"
        },
        {
          "indexed": true,
          "internalType": "uint256",
          "name": "assigneeTokenId",
          "type": "uint256"
        },
        {
          "indexed": true,
          "internalType": "uint256",
          "name": "assignorTokenId",
          "type": "uint256"
        }
      ],
      "name": "Equip",
      "type": "event"
    },
    {
      "anonymous": false,
      "inputs": [
        {
          "indexed": true,
          "internalType": "address",
          "name": "to",
          "type": "address"
        },
        {
          "indexed": true,
          "internalType": "uint256",
          "name": "typeId",
          "type": "uint256"
        },
        {
          "indexed": true,
          "internalType": "uint256",
          "name": "tokenId",
          "type": "uint256"
        },
        {
          "indexed": false,
          "internalType": "uint256[]",
          "name": "properties",
          "type": "uint256[]"
        }
      ],
      "name": "Mint",
      "type": "event"
    },
    {
      "anonymous": false,
      "inputs": [
        {
          "indexed": true,
          "internalType": "address",
          "name": "previousOwner",
          "type": "address"
        },
        {
          "indexed": true,
          "internalType": "address",
          "name": "newOwner",
          "type": "address"
        }
      ],
      "name": "OwnershipTransferred",
      "type": "event"
    },
    {
      "anonymous": false,
      "inputs": [
        {
          "indexed": true,
          "internalType": "address",
          "name": "from",
          "type": "address"
        },
        {
          "indexed": true,
          "internalType": "address",
          "name": "to",
          "type": "address"
        },
        {
          "indexed": true,
          "internalType": "uint256",
          "name": "tokenId",
          "type": "uint256"
        }
      ],
      "name": "Transfer",
      "type": "event"
    },
    {
      "anonymous": false,
      "inputs": [
        {
          "indexed": true,
          "internalType": "address",
          "name": "owner",
          "type": "address"
        },
        {
          "indexed": true,
          "internalType": "uint256",
          "name": "assigneeTokenId",
          "type": "uint256"
        },
        {
          "indexed": true,
          "internalType": "uint256",
          "name": "assignorTokenId",
          "type": "uint256"
        }
      ],
      "name": "Unequip",
      "type": "event"
    },
    {
      "inputs": [],
      "name": "ERA",
      "outputs": [
        {
          "internalType": "address",
          "name": "",
          "type": "address"
        }
      ],
      "stateMutability": "view",
      "type": "function"
    },
    {
      "inputs": [
        {
          "internalType": "string",
          "name": "typeName",
          "type": "string"
        },
        {
          "internalType": "uint256",
          "name": "allowedAccessorTypes",
          "type": "uint256"
        },
        {
          "internalType": "uint256",
          "name": "maxSupply",
          "type": "uint256"
        },
        {
          "internalType": "string[]",
          "name": "names",
          "type": "string[]"
        },
        {
          "internalType": "uint256[]",
          "name": "mins",
          "type": "uint256[]"
        },
        {
          "internalType": "uint256[]",
          "name": "maxs",
          "type": "uint256[]"
        }
      ],
      "name": "addType",
      "outputs": [],
      "stateMutability": "nonpayable",
      "type": "function"
    },
    {
      "inputs": [
        {
          "internalType": "address",
          "name": "to",
          "type": "address"
        },
        {
          "internalType": "uint256",
          "name": "tokenId",
          "type": "uint256"
        }
      ],
      "name": "approve",
      "outputs": [],
      "stateMutability": "nonpayable",
      "type": "function"
    },
    {
      "inputs": [
        {
          "internalType": "uint256",
          "name": "",
          "type": "uint256"
        }
      ],
      "name": "assignedNFTs",
      "outputs": [
        {
          "internalType": "uint256",
          "name": "",
          "type": "uint256"
        }
      ],
      "stateMutability": "view",
      "type": "function"
    },
    {
      "inputs": [
        {
          "internalType": "address",
          "name": "owner",
          "type": "address"
        }
      ],
      "name": "balanceOf",
      "outputs": [
        {
          "internalType": "uint256",
          "name": "",
          "type": "uint256"
        }
      ],
      "stateMutability": "view",
      "type": "function"
    },
    {
      "inputs": [
        {
          "internalType": "uint256",
          "name": "tokenId",
          "type": "uint256"
        }
      ],
      "name": "burn",
      "outputs": [],
      "stateMutability": "nonpayable",
      "type": "function"
    },
    {
      "inputs": [
        {
          "internalType": "uint256",
          "name": "typeindex",
          "type": "uint256"
        },
        {
          "internalType": "string",
          "name": "typeName",
          "type": "string"
        },
        {
          "internalType": "uint256",
          "name": "allowedAssignorTypes",
          "type": "uint256"
        }
      ],
      "name": "editType",
      "outputs": [],
      "stateMutability": "nonpayable",
      "type": "function"
    },
    {
      "inputs": [
        {
          "internalType": "uint256",
          "name": "assigneeTokenId",
          "type": "uint256"
        },
        {
          "internalType": "uint256",
          "name": "assignorTokenId",
          "type": "uint256"
        }
      ],
      "name": "equip",
      "outputs": [],
      "stateMutability": "nonpayable",
      "type": "function"
    },
    {
      "inputs": [
        {
          "internalType": "uint256",
          "name": "tokenId",
          "type": "uint256"
        }
      ],
      "name": "getApproved",
      "outputs": [
        {
          "internalType": "address",
          "name": "",
          "type": "address"
        }
      ],
      "stateMutability": "view",
      "type": "function"
    },
    {
      "inputs": [],
      "name": "getChainID",
      "outputs": [
        {
          "internalType": "uint256",
          "name": "",
          "type": "uint256"
        }
      ],
      "stateMutability": "view",
      "type": "function"
    },
    {
      "inputs": [
        {
          "internalType": "uint256",
          "name": "tokenId",
          "type": "uint256"
        }
      ],
      "name": "getCumulativeTokenProperties",
      "outputs": [
        {
          "internalType": "uint256[]",
          "name": "",
          "type": "uint256[]"
        }
      ],
      "stateMutability": "view",
      "type": "function"
    },
    {
      "inputs": [
        {
          "internalType": "uint256",
          "name": "tokenId",
          "type": "uint256"
        }
      ],
      "name": "getTokenProperties",
      "outputs": [
        {
          "internalType": "uint256[]",
          "name": "",
          "type": "uint256[]"
        }
      ],
      "stateMutability": "view",
      "type": "function"
    },
    {
      "inputs": [
        {
          "internalType": "address",
          "name": "owner",
          "type": "address"
        },
        {
          "internalType": "address",
          "name": "operator",
          "type": "address"
        }
      ],
      "name": "isApprovedForAll",
      "outputs": [
        {
          "internalType": "bool",
          "name": "",
          "type": "bool"
        }
      ],
      "stateMutability": "view",
      "type": "function"
    },
    {
      "inputs": [],
      "name": "latestTokenID",
      "outputs": [
        {
          "internalType": "uint256",
          "name": "",
          "type": "uint256"
        }
      ],
      "stateMutability": "view",
      "type": "function"
    },
    {
      "inputs": [
        {
          "internalType": "address",
          "name": "to",
          "type": "address"
        },
        {
          "internalType": "uint256",
          "name": "typeIndex",
          "type": "uint256"
        }
      ],
      "name": "mint",
      "outputs": [],
      "stateMutability": "nonpayable",
      "type": "function"
    },
    {
      "inputs": [],
      "name": "mintFee",
      "outputs": [
        {
          "internalType": "uint256",
          "name": "",
          "type": "uint256"
        }
      ],
      "stateMutability": "view",
      "type": "function"
    },
    {
      "inputs": [],
      "name": "name",
      "outputs": [
        {
          "internalType": "string",
          "name": "",
          "type": "string"
        }
      ],
      "stateMutability": "view",
      "type": "function"
    },
    {
      "inputs": [],
      "name": "owner",
      "outputs": [
        {
          "internalType": "address",
          "name": "",
          "type": "address"
        }
      ],
      "stateMutability": "view",
      "type": "function"
    },
    {
      "inputs": [
        {
          "internalType": "uint256",
          "name": "tokenId",
          "type": "uint256"
        }
      ],
      "name": "ownerOf",
      "outputs": [
        {
          "internalType": "address",
          "name": "",
          "type": "address"
        }
      ],
      "stateMutability": "view",
      "type": "function"
    },
    {
      "inputs": [
        {
          "internalType": "uint256",
          "name": "",
          "type": "uint256"
        }
      ],
      "name": "primeNumbers",
      "outputs": [
        {
          "internalType": "uint256",
          "name": "",
          "type": "uint256"
        }
      ],
      "stateMutability": "view",
      "type": "function"
    },
    {
      "inputs": [
        {
          "internalType": "uint256",
          "name": "",
          "type": "uint256"
        },
        {
          "internalType": "uint256",
          "name": "",
          "type": "uint256"
        }
      ],
      "name": "propertiesTypes",
      "outputs": [
        {
          "internalType": "string",
          "name": "name",
          "type": "string"
        },
        {
          "internalType": "uint256",
          "name": "minimum",
          "type": "uint256"
        },
        {
          "internalType": "uint256",
          "name": "maximum",
          "type": "uint256"
        }
      ],
      "stateMutability": "view",
      "type": "function"
    },
    {
      "inputs": [
        {
          "internalType": "uint256",
          "name": "",
          "type": "uint256"
        },
        {
          "internalType": "string",
          "name": "",
          "type": "string"
        }
      ],
      "name": "propertiesTypesExistence",
      "outputs": [
        {
          "internalType": "bool",
          "name": "",
          "type": "bool"
        }
      ],
      "stateMutability": "view",
      "type": "function"
    },
    {
      "inputs": [],
      "name": "renounceOwnership",
      "outputs": [],
      "stateMutability": "nonpayable",
      "type": "function"
    },
    {
      "inputs": [
        {
          "internalType": "uint256",
          "name": "tokenId",
          "type": "uint256"
        }
      ],
      "name": "rootOwner",
      "outputs": [
        {
          "internalType": "address",
          "name": "",
          "type": "address"
        }
      ],
      "stateMutability": "view",
      "type": "function"
    },
    {
      "inputs": [
        {
          "internalType": "address",
          "name": "from",
          "type": "address"
        },
        {
          "internalType": "address",
          "name": "to",
          "type": "address"
        },
        {
          "internalType": "uint256",
          "name": "tokenId",
          "type": "uint256"
        }
      ],
      "name": "safeTransferFrom",
      "outputs": [],
      "stateMutability": "nonpayable",
      "type": "function"
    },
    {
      "inputs": [
        {
          "internalType": "address",
          "name": "from",
          "type": "address"
        },
        {
          "internalType": "address",
          "name": "to",
          "type": "address"
        },
        {
          "internalType": "uint256",
          "name": "tokenId",
          "type": "uint256"
        },
        {
          "internalType": "bytes",
          "name": "data",
          "type": "bytes"
        }
      ],
      "name": "safeTransferFrom",
      "outputs": [],
      "stateMutability": "nonpayable",
      "type": "function"
    },
    {
      "inputs": [
        {
          "internalType": "address",
          "name": "operator",
          "type": "address"
        },
        {
          "internalType": "bool",
          "name": "approved",
          "type": "bool"
        }
      ],
      "name": "setApprovalForAll",
      "outputs": [],
      "stateMutability": "nonpayable",
      "type": "function"
    },
    {
      "inputs": [
        {
          "internalType": "uint256",
          "name": "_fee",
          "type": "uint256"
        }
      ],
      "name": "setMintFee",
      "outputs": [],
      "stateMutability": "nonpayable",
      "type": "function"
    },
    {
      "inputs": [
        {
          "internalType": "bytes4",
          "name": "interfaceId",
          "type": "bytes4"
        }
      ],
      "name": "supportsInterface",
      "outputs": [
        {
          "internalType": "bool",
          "name": "",
          "type": "bool"
        }
      ],
      "stateMutability": "view",
      "type": "function"
    },
    {
      "inputs": [],
      "name": "symbol",
      "outputs": [
        {
          "internalType": "string",
          "name": "",
          "type": "string"
        }
      ],
      "stateMutability": "view",
      "type": "function"
    },
    {
      "inputs": [
        {
          "internalType": "uint256",
          "name": "",
          "type": "uint256"
        }
      ],
      "name": "tokenIdToTypeIndex",
      "outputs": [
        {
          "internalType": "uint256",
          "name": "",
          "type": "uint256"
        }
      ],
      "stateMutability": "view",
      "type": "function"
    },
    {
      "inputs": [
        {
          "internalType": "uint256",
          "name": "tokenId",
          "type": "uint256"
        }
      ],
      "name": "tokenURI",
      "outputs": [
        {
          "internalType": "string",
          "name": "",
          "type": "string"
        }
      ],
      "stateMutability": "view",
      "type": "function"
    },
    {
      "inputs": [
        {
          "internalType": "address",
          "name": "from",
          "type": "address"
        },
        {
          "internalType": "address",
          "name": "to",
          "type": "address"
        },
        {
          "internalType": "uint256",
          "name": "tokenId",
          "type": "uint256"
        }
      ],
      "name": "transferFrom",
      "outputs": [],
      "stateMutability": "nonpayable",
      "type": "function"
    },
    {
      "inputs": [
        {
          "internalType": "address",
          "name": "newOwner",
          "type": "address"
        }
      ],
      "name": "transferOwnership",
      "outputs": [],
      "stateMutability": "nonpayable",
      "type": "function"
    },
    {
      "inputs": [
        {
          "internalType": "uint256",
          "name": "",
          "type": "uint256"
        }
      ],
      "name": "types",
      "outputs": [
        {
          "internalType": "string",
          "name": "typeName",
          "type": "string"
        },
        {
          "internalType": "uint256",
          "name": "allowedAssignorTypes",
          "type": "uint256"
        },
        {
          "internalType": "uint256",
          "name": "typeId",
          "type": "uint256"
        },
        {
          "internalType": "uint256",
          "name": "maxSupply",
          "type": "uint256"
        },
        {
          "internalType": "uint256",
          "name": "currentSupply",
          "type": "uint256"
        }
      ],
      "stateMutability": "view",
      "type": "function"
    },
    {
      "inputs": [
        {
          "internalType": "uint256",
          "name": "assigneeTokenId",
          "type": "uint256"
        }
      ],
      "name": "unequip",
      "outputs": [],
      "stateMutability": "nonpayable",
      "type": "function"
    }
  ],
  "bytecode": "0x6001600790815561034060405260026080908152600360a052600560c05260e091909152600b61010052600d61012052601161014052601361016052601761018052601d6101a052601f6101c05260256101e052602961020052602b61022052602f61024052603561026052603b61028052603d6102a05260436102c05260476102e052604961030052604f610320526200009f906009906016620001a4565b506001601055348015620000b257600080fd5b5060405162003d6c38038062003d6c833981016040819052620000d59162000340565b835184908490620000ee906000906020850190620001f9565b50805162000104906001906020840190620001f9565b505050620001216200011b6200014e60201b60201c565b62000152565b601180546001600160a01b0319166001600160a01b03939093169290921790915560125550620004229050565b3390565b600680546001600160a01b038381166001600160a01b0319831681179093556040519116919082907f8be0079c531659141344cd1fd0a4f28419497f9722a3daafe3b4186f6b6457e090600090a35050565b828054828255906000526020600020908101928215620001e7579160200282015b82811115620001e7578251829060ff16905591602001919060010190620001c5565b50620001f592915062000276565b5090565b8280546200020790620003cf565b90600052602060002090601f0160209004810192826200022b5760008555620001e7565b82601f106200024657805160ff1916838001178555620001e7565b82800160010185558215620001e7579182015b82811115620001e757825182559160200191906001019062000259565b5b80821115620001f5576000815560010162000277565b600082601f8301126200029e578081fd5b81516001600160401b0380821115620002bb57620002bb6200040c565b604051601f8301601f19908116603f01168101908282118183101715620002e657620002e66200040c565b8160405283815260209250868385880101111562000302578485fd5b8491505b8382101562000325578582018301518183018401529082019062000306565b838211156200033657848385830101525b9695505050505050565b6000806000806080858703121562000356578384fd5b84516001600160401b03808211156200036d578586fd5b6200037b888389016200028d565b9550602087015191508082111562000391578485fd5b50620003a0878288016200028d565b604087015190945090506001600160a01b0381168114620003bf578283fd5b6060959095015193969295505050565b600281046001821680620003e457607f821691505b602082108114156200040657634e487b7160e01b600052602260045260246000fd5b50919050565b634e487b7160e01b600052604160045260246000fd5b61393a80620004326000396000f3fe608060405234801561001057600080fd5b50600436106101ac5760003560e01c806301ffc9a7146101b157806306fdde03146101da578063081812fc146101ef578063095ea7b31461020f5780630d5242941461022457806313966db5146102445780631a0fe7cd1461024c5780632089dd8f1461025f57806323b872dd1461027257806328257532146102855780633074cb51146102985780633ecf8362146102a057806340c10f19146102c257806342842e0e146102d557806342966c68146102e85780634edea111146102fb5780635599e5421461031b578063564b81ef1461032e5780636352211e1461033657806370a0823114610349578063715018a61461035c5780638da5cb5b1461036457806395d89b411461036c578063a22cb46514610374578063a2d966ea14610387578063a3f61b311461038f578063b88d4fde146103a2578063c87b56dd146103b5578063cefbfa36146103c8578063d179e3d0146103ec578063e17be8a9146103ff578063e263e44914610412578063e985e9c514610425578063eddd0d9c14610438578063f2fde38b1461044b578063f599007a1461045e575b600080fd5b6101c46101bf366004612ba8565b610471565b6040516101d19190612fb1565b60405180910390f35b6101e26104b9565b6040516101d19190612fbc565b6102026101fd366004612c99565b61054b565b6040516101d19190612f29565b61022261021d366004612b63565b610572565b005b610237610232366004612c99565b610613565b6040516101d19190613645565b610237610625565b61023761025a366004612c99565b61062b565b6101c461026d366004612cb1565b61064c565b610222610280366004612a7a565b61067d565b610222610293366004612d42565b6106b5565b610237610981565b6102b36102ae366004612d42565b610987565b6040516101d193929190612fcf565b6102226102d0366004612b63565b610a56565b6102226102e3366004612a7a565b610f92565b6102226102f6366004612c99565b610fad565b61030e610309366004612c99565b610fe0565b6040516101d19190612f9e565b610222610329366004612be0565b611200565b61023761156c565b610202610344366004612c99565b611570565b610237610357366004612a2e565b6115a5565b6102226115e9565b6102026115fd565b6101e261160c565b610222610382366004612b2d565b61161b565b610202611631565b61030e61039d366004612c99565b611640565b6102226103b0366004612ab5565b611857565b6101e26103c3366004612c99565b611896565b6103db6103d6366004612c99565b61197f565b6040516101d1959493929190612ff4565b6102226103fa366004612c99565b611a4d565b61020261040d366004612c99565b611c3f565b610222610420366004612cf5565b611c7b565b6101c4610433366004612a48565b611d06565b610222610446366004612c99565b611d34565b610222610459366004612a2e565b611d41565b61023761046c366004612c99565b611d78565b60006001600160e01b031982166380ac58cd60e01b14806104a257506001600160e01b03198216635b5e139f60e01b145b806104b157506104b182611d8a565b90505b919050565b6060600080546104c8906137d4565b80601f01602080910402602001604051908101604052809291908181526020018280546104f4906137d4565b80156105415780601f1061051657610100808354040283529160200191610541565b820191906000526020600020905b81548152906001019060200180831161052457829003601f168201915b5050505050905090565b600061055682611da3565b506000908152600460205260409020546001600160a01b031690565b600061057d82611570565b9050806001600160a01b0316836001600160a01b031614156105ba5760405162461bcd60e51b81526004016105b190613541565b60405180910390fd5b806001600160a01b03166105cc611dc8565b6001600160a01b031614806105e857506105e881610433611dc8565b6106045760405162461bcd60e51b81526004016105b19061336f565b61060e8383611dcc565b505050565b600c6020526000908152604090205481565b60125481565b6009818154811061063b57600080fd5b600091825260209091200154905081565b600b602090815260009283526040909220815180830184018051928152908401929093019190912091525460ff1681565b61068e610688611dc8565b82611e3a565b6106aa5760405162461bcd60e51b81526004016105b1906135f7565b61060e838383611e99565b808214156106d55760405162461bcd60e51b81526004016105b190613236565b336106df83611570565b6001600160a01b0316146107055760405162461bcd60e51b81526004016105b1906134ca565b6000828152600f6020526040902054156107315760405162461bcd60e51b81526004016105b190613436565b3361073b82611c3f565b6001600160a01b0316146107615760405162461bcd60e51b81526004016105b19061309b565b6000828152600c60205260408082205483835291205460088054909190811061079a57634e487b7160e01b600052603260045260246000fd5b906000526020600020906005020160020154600882815481106107cd57634e487b7160e01b600052603260045260246000fd5b9060005260206000209060050201600101546107e9919061384a565b156108065760405162461bcd60e51b81526004016105b19061302b565b610811333085611e99565b6000838152600f6020526040812083905561082b84611640565b90506000600a6000848152602001908152602001600020805480602002602001604051908101604052809291908181526020016000905b8282101561093a5783829060005260206000209060030201604051806060016040529081600082018054610895906137d4565b80601f01602080910402602001604051908101604052809291908181526020018280546108c1906137d4565b801561090e5780601f106108e35761010080835404028352916020019161090e565b820191906000526020600020905b8154815290600101906020018083116108f157829003601f168201915b505050505081526020016001820154815260200160028201548152505081526020019060010190610862565b50505050905061094b848284611fba565b6040518490869033907f7a980bdfb21a07f793d4737b09ba7e61a119c753c316b7d958de3b08d9cba86e90600090a45050505050565b60075481565b600a60205281600052604060002081815481106109a357600080fd5b9060005260206000209060030201600091509150508060000180546109c7906137d4565b80601f01602080910402602001604051908101604052809291908181526020018280546109f3906137d4565b8015610a405780601f10610a1557610100808354040283529160200191610a40565b820191906000526020600020905b815481529060010190602001808311610a2357829003601f168201915b5050505050908060010154908060020154905083565b60088181548110610a7757634e487b7160e01b600052603260045260246000fd5b90600052602060002090600502016003015460001480610afa575060088181548110610ab357634e487b7160e01b600052603260045260246000fd5b90600052602060002090600502016004015460088281548110610ae657634e487b7160e01b600052603260045260246000fd5b906000526020600020906005020160030154115b610b165760405162461bcd60e51b81526004016105b1906132e4565b6011546001600160a01b03166323b872dd33610b306115fd565b6012546040518463ffffffff1660e01b8152600401610b5193929190612f3d565b602060405180830381600087803b158015610b6b57600080fd5b505af1158015610b7f573d6000803e3d6000fd5b505050506040513d601f19601f82011682018060405250810190610ba39190612b8c565b50600160088281548110610bc757634e487b7160e01b600052603260045260246000fd5b90600052602060002090600502016004016000828254610be79190613765565b9091555050600780546000908152600c602090815260408083208590558354808452600d8352818420600e9093529083209193919260019291610c2b908490613765565b90915550506000838152600a60205260408120546001600160401b03811115610c6457634e487b7160e01b600052604160045260246000fd5b604051908082528060200260200182016040528015610c8d578160200160208202803683370190505b50905060005b6000858152600a6020526040902054811015610f215760108054906000610cb98361380f565b90915550506000858152600a602052604081208054610e19919084908110610cf157634e487b7160e01b600052603260045260246000fd5b906000526020600020906003020160010154600a60008981526020019081526020016000208481548110610d3557634e487b7160e01b600052603260045260246000fd5b906000526020600020906003020160020154600a60008a81526020019081526020016000208581548110610d7957634e487b7160e01b600052603260045260246000fd5b90600052602060002090600302016000018054610d95906137d4565b80601f0160208091040260200160405190810160405280929190818152602001828054610dc1906137d4565b8015610e0e5780601f10610de357610100808354040283529160200191610e0e565b820191906000526020600020905b815481529060010190602001808311610df157829003601f168201915b50505050508561214f565b905080838381518110610e3c57634e487b7160e01b600052603260045260246000fd5b6020026020010181815250508085600a60008981526020019081526020016000208481548110610e7c57634e487b7160e01b600052603260045260246000fd5b9060005260206000209060030201600001604051610e9a9190612e39565b9081526020016040518091039020819055508084600a60008981526020019081526020016000208481548110610ee057634e487b7160e01b600052603260045260246000fd5b9060005260206000209060030201600001604051610efe9190612e39565b908152604051908190036020019020555080610f198161380f565b915050610c93565b506001600754610f319190613791565b84866001600160a01b03167fa1f137c5ae158726e83083553b9082ce64d0180e2e71939290985b94816211d384604051610f6b9190612f9e565b60405180910390a4610f8b856001600754610f869190613791565b6121b3565b5050505050565b61060e83838360405180602001604052806000815250611857565b610fb8610688611dc8565b610fd45760405162461bcd60e51b81526004016105b1906135f7565b610fdd81612288565b50565b6000818152600c6020908152604080832054808452600a835281842080548351818602810186019094528084526060959294929392849084015b828210156110f2578382906000526020600020906003020160405180606001604052908160008201805461104d906137d4565b80601f0160208091040260200160405190810160405280929190818152602001828054611079906137d4565b80156110c65780601f1061109b576101008083540402835291602001916110c6565b820191906000526020600020905b8154815290600101906020018083116110a957829003601f168201915b50505050508152602001600182015481526020016002820154815250508152602001906001019061101a565b505050509050600081516001600160401b0381111561112157634e487b7160e01b600052604160045260246000fd5b60405190808252806020026020018201604052801561114a578160200160208202803683370190505b50905060005b82518160ff1610156111f7576000868152600d602052604090208351849060ff841690811061118f57634e487b7160e01b600052603260045260246000fd5b6020026020010151600001516040516111a89190612dc9565b908152602001604051809103902054828260ff16815181106111da57634e487b7160e01b600052603260045260246000fd5b6020908102919091010152806111ef8161382a565b915050611150565b50949350505050565b611208612325565b815183511461121657600080fd5b805183511461122457600080fd5b60086040518060a0016040528088815260200187815260200160096008805490508154811061126357634e487b7160e01b600052603260045260246000fd5b6000918252602080832090910154835282810189905260409092018190528354600181018555938152819020825180519394600502909101926112a99284920190612847565b5060208201518160010155604082015181600201556060820151816003015560808201518160040155505060005b83518110156114d35782818151811061130057634e487b7160e01b600052603260045260246000fd5b602002602001015182828151811061132857634e487b7160e01b600052603260045260246000fd5b60200260200101511161134d5760405162461bcd60e51b81526004016105b190613167565b600854600a9060009061136290600190613791565b8152602001908152602001600020604051806060016040528086848151811061139b57634e487b7160e01b600052603260045260246000fd5b602002602001015181526020018584815181106113c857634e487b7160e01b600052603260045260246000fd5b602002602001015181526020018484815181106113f557634e487b7160e01b600052603260045260246000fd5b60209081029190910181015190915282546001810184556000938452928190208251805193946003029091019261142f9284920190612847565b50602082015181600101556040820151816002015550506001600b6000600160088054905061145e9190613791565b815260200190815260200160002085838151811061148c57634e487b7160e01b600052603260045260246000fd5b60200260200101516040516114a19190612dc9565b908152604051908190036020019020805491151560ff19909216919091179055806114cb8161380f565b9150506112d7565b506008547f0272611e7acb5b417eba4bbb061a8d043552eab942299bdd30832389879d67979061150590600190613791565b8787878787876009600160088054905061151f9190613791565b8154811061153d57634e487b7160e01b600052603260045260246000fd5b906000526020600020015460405161155c98979695949392919061364e565b60405180910390a1505050505050565b4690565b6000818152600260205260408120546001600160a01b0316806104b15760405162461bcd60e51b81526004016105b19061350f565b60006001600160a01b0382166115cd5760405162461bcd60e51b81526004016105b190613326565b506001600160a01b031660009081526003602052604090205490565b6115f1612325565b6115fb6000612364565b565b6006546001600160a01b031690565b6060600180546104c8906137d4565b61162d611626611dc8565b83836123b6565b5050565b6011546001600160a01b031681565b6000818152600c6020908152604080832054808452600a835281842080548351818602810186019094528084526060959294929392849084015b8282101561175257838290600052602060002090600302016040518060600160405290816000820180546116ad906137d4565b80601f01602080910402602001604051908101604052809291908181526020018280546116d9906137d4565b80156117265780601f106116fb57610100808354040283529160200191611726565b820191906000526020600020905b81548152906001019060200180831161170957829003601f168201915b50505050508152602001600182015481526020016002820154815250508152602001906001019061167a565b505050509050600081516001600160401b0381111561178157634e487b7160e01b600052604160045260246000fd5b6040519080825280602002602001820160405280156117aa578160200160208202803683370190505b50905060005b82518160ff1610156111f7576000868152600e602052604090208351849060ff84169081106117ef57634e487b7160e01b600052603260045260246000fd5b6020026020010151600001516040516118089190612dc9565b908152602001604051809103902054828260ff168151811061183a57634e487b7160e01b600052603260045260246000fd5b60209081029190910101528061184f8161382a565b9150506117b0565b611868611862611dc8565b83611e3a565b6118845760405162461bcd60e51b81526004016105b1906135f7565b61189084848484612459565b50505050565b60606118a18261248c565b6118bd5760405162461bcd60e51b81526004016105b19061347b565b60006118c761156c565b60408051808201909152601e81527f68747470733a2f2f686973746f7069612e696f2f617574682f6d6574612f0000602082015290915080611908836124a9565b604051602001611919929190612de5565b60405160208183030381529060405290508060405160200161193b9190612e14565b604051602081830303815290604052905080611956856124a9565b604051602001611967929190612de5565b60405160208183030381529060405292505050919050565b6008818154811061198f57600080fd5b90600052602060002090600502016000915090508060000180546119b2906137d4565b80601f01602080910402602001604051908101604052809291908181526020018280546119de906137d4565b8015611a2b5780601f10611a0057610100808354040283529160200191611a2b565b820191906000526020600020905b815481529060010190602001808311611a0e57829003601f168201915b5050505050908060010154908060020154908060030154908060040154905085565b6000818152600f6020526040902054611a785760405162461bcd60e51b81526004016105b190613582565b33611a8282611c3f565b6001600160a01b031614611aa85760405162461bcd60e51b81526004016105b1906135c3565b611ab3303383611e99565b6000611abe82611640565b6000838152600c60209081526040808320548352600a825280832080548251818502810185019093528083529495509293909291849084015b82821015611bcf5783829060005260206000209060030201604051806060016040529081600082018054611b2a906137d4565b80601f0160208091040260200160405190810160405280929190818152602001828054611b56906137d4565b8015611ba35780601f10611b7857610100808354040283529160200191611ba3565b820191906000526020600020905b815481529060010190602001808311611b8657829003601f168201915b505050505081526020016001820154815260200160028201548152505081526020019060010190611af7565b5050506000858152600f6020526040902054919250611bf191905082846125c3565b6000838152600f60205260408082205490519091859133917fe2648b05da6134eb6524da83eb9c99815d0e07cfa9a508bca730c49fc53c660591a450506000908152600f6020526040812055565b6000815b6000818152600f602052604090205415611c6b576000908152600f6020526040902054611c43565b611c7481611570565b9392505050565b611c83612325565b8160088481548110611ca557634e487b7160e01b600052603260045260246000fd5b90600052602060002090600502016000019080519060200190611cc9929190612847565b508060088481548110611cec57634e487b7160e01b600052603260045260246000fd5b906000526020600020906005020160010181905550505050565b6001600160a01b03918216600090815260056020908152604080832093909416825291909152205460ff1690565b611d3c612325565b601255565b611d49612325565b6001600160a01b038116611d6f5760405162461bcd60e51b81526004016105b190613121565b610fdd81612364565b600f6020526000908152604090205481565b6001600160e01b031981166301ffc9a760e01b14919050565b611dac8161248c565b610fdd5760405162461bcd60e51b81526004016105b19061350f565b3390565b600081815260046020526040902080546001600160a01b0319166001600160a01b0384169081179091558190611e0182611570565b6001600160a01b03167f8c5be1e5ebec7d5bd14f71427d1e84f3dd0314c0f7b2291e5b200ac8c7c3b92560405160405180910390a45050565b600080611e4683611570565b9050806001600160a01b0316846001600160a01b03161480611e6d5750611e6d8185611d06565b80611e915750836001600160a01b0316611e868461054b565b6001600160a01b0316145b949350505050565b826001600160a01b0316611eac82611570565b6001600160a01b031614611ed25760405162461bcd60e51b81526004016105b1906131bb565b6001600160a01b038216611ef85760405162461bcd60e51b81526004016105b19061326d565b611f0383838361060e565b611f0e600082611dcc565b6001600160a01b0383166000908152600360205260408120805460019290611f37908490613791565b90915550506001600160a01b0382166000908152600360205260408120805460019290611f65908490613765565b909155505060008181526002602052604080822080546001600160a01b0319166001600160a01b0386811691821790925591518493918716916000805160206138c583398151915291a461060e83838361060e565b60005b82518160ff161015612120576000848152600c60209081526040808320548352600b90915290208351849060ff841690811061200957634e487b7160e01b600052603260045260246000fd5b6020026020010151600001516040516120229190612dc9565b9081526040519081900360200190205460ff16156120dc57818160ff168151811061205d57634e487b7160e01b600052603260045260246000fd5b6020026020010151600e6000868152602001908152602001600020848360ff168151811061209b57634e487b7160e01b600052603260045260246000fd5b6020026020010151600001516040516120b49190612dc9565b908152602001604051809103902060008282546120d19190613765565b9091555061210e9050565b6000828260ff168151811061210157634e487b7160e01b600052603260045260246000fd5b6020026020010181815250505b806121188161382a565b915050611fbd565b506000838152600f60205260409020541561060e576000838152600f602052604090205461060e908383611fba565b60008461215c8186613791565b444241866007548960105460405160200161217d9796959493929190612ed4565b6040516020818303038152906040528051906020012060001c6121a0919061384a565b6121aa9190613765565b95945050505050565b6001600160a01b0382166121d95760405162461bcd60e51b81526004016105b1906133cc565b6121e28161248c565b156121ff5760405162461bcd60e51b81526004016105b190613200565b61220b6000838361060e565b6001600160a01b0382166000908152600360205260408120805460019290612234908490613765565b909155505060008181526002602052604080822080546001600160a01b0319166001600160a01b03861690811790915590518392906000805160206138c5833981519152908290a461162d6000838361060e565b600061229382611570565b90506122a18160008461060e565b6122ac600083611dcc565b6001600160a01b03811660009081526003602052604081208054600192906122d5908490613791565b909155505060008281526002602052604080822080546001600160a01b0319169055518391906001600160a01b038416906000805160206138c5833981519152908390a461162d8160008461060e565b61232d611dc8565b6001600160a01b031661233e6115fd565b6001600160a01b0316146115fb5760405162461bcd60e51b81526004016105b190613401565b600680546001600160a01b038381166001600160a01b0319831681179093556040519116919082907f8be0079c531659141344cd1fd0a4f28419497f9722a3daafe3b4186f6b6457e090600090a35050565b816001600160a01b0316836001600160a01b031614156123e85760405162461bcd60e51b81526004016105b1906132b1565b6001600160a01b0383811660008181526005602090815260408083209487168084529490915290819020805460ff1916851515179055517f17307eab39ab6107e8899845ad3d59bd9653f200f220920489ca2b5937696c319061244c908590612fb1565b60405180910390a3505050565b612464848484611e99565b61247084848484612720565b6118905760405162461bcd60e51b81526004016105b1906130cf565b6000908152600260205260409020546001600160a01b0316151590565b6060816124ce57506040805180820190915260018152600360fc1b60208201526104b4565b8160005b81156124f857806124e28161380f565b91506124f19050600a8361377d565b91506124d2565b6000816001600160401b0381111561252057634e487b7160e01b600052604160045260246000fd5b6040519080825280601f01601f19166020018201604052801561254a576020820181803683370190505b5090505b8415611e915761255f600183613791565b915061256c600a8661384a565b612577906030613765565b60f81b81838151811061259a57634e487b7160e01b600052603260045260246000fd5b60200101906001600160f81b031916908160001a9053506125bc600a8661377d565b945061254e565b6000838152600f6020526040902054156125f1576000838152600f60205260409020546125f19083836125c3565b60005b82518160ff161015611890576000848152600c60209081526040808320548352600b90915290208351849060ff841690811061264057634e487b7160e01b600052603260045260246000fd5b6020026020010151600001516040516126599190612dc9565b9081526040519081900360200190205460ff161561270e57818160ff168151811061269457634e487b7160e01b600052603260045260246000fd5b6020026020010151600e6000868152602001908152602001600020848360ff16815181106126d257634e487b7160e01b600052603260045260246000fd5b6020026020010151600001516040516126eb9190612dc9565b908152602001604051809103902060008282546127089190613791565b90915550505b806127188161382a565b9150506125f4565b6000612734846001600160a01b0316612838565b1561283057836001600160a01b031663150b7a02612750611dc8565b8786866040518563ffffffff1660e01b81526004016127729493929190612f61565b602060405180830381600087803b15801561278c57600080fd5b505af19250505080156127bc575060408051601f3d908101601f191682019092526127b991810190612bc4565b60015b612816573d8080156127ea576040519150601f19603f3d011682016040523d82523d6000602084013e6127ef565b606091505b50805161280e5760405162461bcd60e51b81526004016105b1906130cf565b805181602001fd5b6001600160e01b031916630a85bd0160e11b149050611e91565b506001611e91565b6001600160a01b03163b151590565b828054612853906137d4565b90600052602060002090601f01602090048101928261287557600085556128bb565b82601f1061288e57805160ff19168380011785556128bb565b828001600101855582156128bb579182015b828111156128bb5782518255916020019190600101906128a0565b506128c79291506128cb565b5090565b5b808211156128c757600081556001016128cc565b60006001600160401b038311156128f9576128f961388a565b61290c601f8401601f1916602001613706565b905082815283838301111561292057600080fd5b828260208301376000602084830101529392505050565b80356001600160a01b03811681146104b457600080fd5b600082601f83011261295e578081fd5b8135602061297361296e83613736565b613706565b82815281810190858301855b858110156129a857612996898684358b0101612a0f565b8452928401929084019060010161297f565b5090979650505050505050565b600082601f8301126129c5578081fd5b813560206129d561296e83613736565b82815281810190858301838502870184018810156129f1578586fd5b855b858110156129a8578135845292840192908401906001016129f3565b600082601f830112612a1f578081fd5b611c74838335602085016128e0565b600060208284031215612a3f578081fd5b611c7482612937565b60008060408385031215612a5a578081fd5b612a6383612937565b9150612a7160208401612937565b90509250929050565b600080600060608486031215612a8e578081fd5b612a9784612937565b9250612aa560208501612937565b9150604084013590509250925092565b60008060008060808587031215612aca578081fd5b612ad385612937565b9350612ae160208601612937565b92506040850135915060608501356001600160401b03811115612b02578182fd5b8501601f81018713612b12578182fd5b612b21878235602084016128e0565b91505092959194509250565b60008060408385031215612b3f578182fd5b612b4883612937565b91506020830135612b58816138a0565b809150509250929050565b60008060408385031215612b75578182fd5b612b7e83612937565b946020939093013593505050565b600060208284031215612b9d578081fd5b8151611c74816138a0565b600060208284031215612bb9578081fd5b8135611c74816138ae565b600060208284031215612bd5578081fd5b8151611c74816138ae565b60008060008060008060c08789031215612bf8578384fd5b86356001600160401b0380821115612c0e578586fd5b612c1a8a838b01612a0f565b975060208901359650604089013595506060890135915080821115612c3d578384fd5b612c498a838b0161294e565b94506080890135915080821115612c5e578384fd5b612c6a8a838b016129b5565b935060a0890135915080821115612c7f578283fd5b50612c8c89828a016129b5565b9150509295509295509295565b600060208284031215612caa578081fd5b5035919050565b60008060408385031215612cc3578182fd5b8235915060208301356001600160401b03811115612cdf578182fd5b612ceb85828601612a0f565b9150509250929050565b600080600060608486031215612d09578081fd5b8335925060208401356001600160401b03811115612d25578182fd5b612d3186828701612a0f565b925050604084013590509250925092565b60008060408385031215612d54578182fd5b50508035926020909101359150565b6000815180845260208085019450808401835b83811015612d9257815187529582019590820190600101612d76565b509495945050505050565b60008151808452612db58160208601602086016137a8565b601f01601f19169290920160200192915050565b60008251612ddb8184602087016137a8565b9190910192915050565b60008351612df78184602088016137a8565b835190830190612e0b8183602088016137a8565b01949350505050565b60008251612e268184602087016137a8565b602f60f81b920191825250600101919050565b8154600090819060028104600180831680612e5557607f831692505b6020808410821415612e7557634e487b7160e01b87526022600452602487fd5b818015612e895760018114612e9a57612ec6565b60ff19861689528489019650612ec6565b612ea38a613759565b885b86811015612ebe5781548b820152908501908301612ea5565b505084890196505b509498975050505050505050565b600088825287602083015260018060601b03198760601b1660408301528560548301528460748301528351612f108160948501602088016137a8565b609492019182019290925260b401979650505050505050565b6001600160a01b0391909116815260200190565b6001600160a01b039384168152919092166020820152604081019190915260600190565b6001600160a01b0385811682528416602082015260408101839052608060608201819052600090612f9490830184612d9d565b9695505050505050565b600060208252611c746020830184612d63565b901515815260200190565b600060208252611c746020830184612d9d565b600060608252612fe26060830186612d9d565b60208301949094525060400152919050565b600060a0825261300760a0830188612d9d565b90508560208301528460408301528360608301528260808301529695505050505050565b6020808252604a908201527f41737369676e61626c654552433732313a20746869732061737369676e6f722060408201527f74797065206973206e6f7420616c6c6f77656420666f7220746869732061737360608201526969676e6565207479706560b01b608082015260a00190565b60208082526026908201526000805160206138e583398151915260408201526539b4b3b737b960d11b606082015260800190565b60208082526032908201527f4552433732313a207472616e7366657220746f206e6f6e20455243373231526560408201527131b2b4bb32b91034b6b83632b6b2b73a32b960711b606082015260800190565b60208082526026908201527f4f776e61626c653a206e6577206f776e657220697320746865207a65726f206160408201526564647265737360d01b606082015260800190565b60208082526034908201527f696e76616c6964206d617820616e64206d696e20286d61782073686f756c642060408201527362652067726561746572207468616e206d696e2960601b606082015260800190565b60208082526025908201527f4552433732313a207472616e736665722066726f6d20696e636f72726563742060408201526437bbb732b960d91b606082015260800190565b6020808252601c908201527b115490cdcc8c4e881d1bdad95b88185b1c9958591e481b5a5b9d195960221b604082015260600190565b6020808252601f908201527f6964656e746963616c2061737369676e656520616e6420617373696e676f7200604082015260600190565b60208082526024908201527f4552433732313a207472616e7366657220746f20746865207a65726f206164646040820152637265737360e01b606082015260800190565b60208082526019908201527822a9219b99189d1030b8383937bb32903a379031b0b63632b960391b604082015260600190565b60208082526022908201527f63757272656e7420737570706c792065786365656473206d617820737570706c604082015261792160f01b606082015260800190565b60208082526029908201527f4552433732313a2061646472657373207a65726f206973206e6f7420612076616040820152683634b21037bbb732b960b91b606082015260800190565b6020808252603e908201527f4552433732313a20617070726f76652063616c6c6572206973206e6f7420746f60408201527f6b656e206f776e6572206e6f7220617070726f76656420666f7220616c6c0000606082015260800190565b6020808252818101527f4552433732313a206d696e7420746f20746865207a65726f2061646472657373604082015260600190565b6020808252818101527f4f776e61626c653a2063616c6c6572206973206e6f7420746865206f776e6572604082015260600190565b60208082526025908201527f61737369676e656520697320616c72656164792061737369676e656420746f2060408201526418481b999d60da1b606082015260800190565b6020808252602f908201527f4552433732314d657461646174613a2055524920717565727920666f72206e6f60408201526e3732bc34b9ba32b73a103a37b5b2b760891b606082015260800190565b60208082526025908201527f796f7520617265206e6f7420616c6c6f77656420746f206571756970207468696040820152641cc81b999d60da1b606082015260800190565b602080825260189082015277115490cdcc8c4e881a5b9d985b1a59081d1bdad95b88125160421b604082015260600190565b60208082526021908201527f4552433732313a20617070726f76616c20746f2063757272656e74206f776e656040820152603960f91b606082015260800190565b60208082526021908201527f61737369676e6565206973206e6f742061737369676e656420746f2061206e666040820152601d60fa1b606082015260800190565b60208082526026908201526000805160206138e58339815191526040820152657369676e656560d01b606082015260800190565b6020808252602e908201527f4552433732313a2063616c6c6572206973206e6f7420746f6b656e206f776e6560408201526d1c881b9bdc88185c1c1c9bdd995960921b606082015260800190565b90815260200190565b60006101008a8352602081818501526136698285018c612d9d565b91508960408501528860608501528382036080850152818851808452828401915082838202850101838b01865b838110156136c457601f198784030185526136b2838351612d9d565b94860194925090850190600101613696565b505086810360a08801526136d8818b612d63565b94505050505082810360c08401526136f08186612d63565b9150508260e08301529998505050505050505050565b604051601f8201601f191681016001600160401b038111828210171561372e5761372e61388a565b604052919050565b60006001600160401b0382111561374f5761374f61388a565b5060209081020190565b60009081526020902090565b600082198211156137785761377861385e565b500190565b60008261378c5761378c613874565b500490565b6000828210156137a3576137a361385e565b500390565b60005b838110156137c35781810151838201526020016137ab565b838111156118905750506000910152565b6002810460018216806137e857607f821691505b6020821081141561380957634e487b7160e01b600052602260045260246000fd5b50919050565b60006000198214156138235761382361385e565b5060010190565b600060ff821660ff8114156138415761384161385e565b60010192915050565b60008261385957613859613874565b500690565b634e487b7160e01b600052601160045260246000fd5b634e487b7160e01b600052601260045260246000fd5b634e487b7160e01b600052604160045260246000fd5b8015158114610fdd57600080fd5b6001600160e01b031981168114610fdd57600080fdfeddf252ad1be2c89b69c2b068fc378daa952ba7f163c4a11628f55a4df523b3ef796f7520646f6e277420686176652061636365737320746f2074686973206173a26469706673582212200ff2d18a09fdb5a075f6c8ec184a814d927a0dd62d6e3ac384ab7eb6aa1739e764736f6c63430008010033",
  "linkReferences": {},
  "deployedLinkReferences": {}
}