{
  "_format": "hh-sol-artifact-1",
  "contractName": "ERA",
  "sourceName": "contracts/ERA.sol",
  "abi": [
    {
      "inputs": [],
      "stateMutability": "nonpayable",
      "type": "constructor"
    },
    {
      "anonymous": false,
      "inputs": [
        {
          "indexed": true,
          "internalType": "address",
          "name": "owner",
          "type": "address"
        },
        {
          "indexed": true,
          "internalType": "address",
          "name": "spender",
          "type": "address"
        },
        {
          "indexed": false,
          "internalType": "uint256",
          "name": "value",
          "type": "uint256"
        }
      ],
      "name": "Approval",
      "type": "event"
    },
    {
      "anonymous": false,
      "inputs": [
        {
          "indexed": true,
          "internalType": "address",
          "name": "previousOwner",
          "type": "address"
        },
        {
          "indexed": true,
          "internalType": "address",
          "name": "newOwner",
          "type": "address"
        }
      ],
      "name": "OwnershipTransferred",
      "type": "event"
    },
    {
      "anonymous": false,
      "inputs": [
        {
          "indexed": true,
          "internalType": "address",
          "name": "from",
          "type": "address"
        },
        {
          "indexed": true,
          "internalType": "address",
          "name": "to",
          "type": "address"
        },
        {
          "indexed": false,
          "internalType": "uint256",
          "name": "value",
          "type": "uint256"
        }
      ],
      "name": "Transfer",
      "type": "event"
    },
    {
      "inputs": [
        {
          "internalType": "address",
          "name": "owner",
          "type": "address"
        },
        {
          "internalType": "address",
          "name": "spender",
          "type": "address"
        }
      ],
      "name": "allowance",
      "outputs": [
        {
          "internalType": "uint256",
          "name": "",
          "type": "uint256"
        }
      ],
      "stateMutability": "view",
      "type": "function"
    },
    {
      "inputs": [
        {
          "internalType": "address",
          "name": "spender",
          "type": "address"
        },
        {
          "internalType": "uint256",
          "name": "amount",
          "type": "uint256"
        }
      ],
      "name": "approve",
      "outputs": [
        {
          "internalType": "bool",
          "name": "",
          "type": "bool"
        }
      ],
      "stateMutability": "nonpayable",
      "type": "function"
    },
    {
      "inputs": [
        {
          "internalType": "address",
          "name": "account",
          "type": "address"
        }
      ],
      "name": "balanceOf",
      "outputs": [
        {
          "internalType": "uint256",
          "name": "",
          "type": "uint256"
        }
      ],
      "stateMutability": "view",
      "type": "function"
    },
    {
      "inputs": [
        {
          "internalType": "address",
          "name": "account",
          "type": "address"
        },
        {
          "internalType": "uint256",
          "name": "amount",
          "type": "uint256"
        }
      ],
      "name": "burn",
      "outputs": [],
      "stateMutability": "nonpayable",
      "type": "function"
    },
    {
      "inputs": [
        {
          "internalType": "address",
          "name": "_mintAccessor",
          "type": "address"
        }
      ],
      "name": "changeMintAccessor",
      "outputs": [],
      "stateMutability": "nonpayable",
      "type": "function"
    },
    {
      "inputs": [],
      "name": "decimals",
      "outputs": [
        {
          "internalType": "uint8",
          "name": "",
          "type": "uint8"
        }
      ],
      "stateMutability": "view",
      "type": "function"
    },
    {
      "inputs": [
        {
          "internalType": "address",
          "name": "spender",
          "type": "address"
        },
        {
          "internalType": "uint256",
          "name": "subtractedValue",
          "type": "uint256"
        }
      ],
      "name": "decreaseAllowance",
      "outputs": [
        {
          "internalType": "bool",
          "name": "",
          "type": "bool"
        }
      ],
      "stateMutability": "nonpayable",
      "type": "function"
    },
    {
      "inputs": [],
      "name": "getEraContractAddress",
      "outputs": [
        {
          "internalType": "address",
          "name": "EraContract",
          "type": "address"
        }
      ],
      "stateMutability": "view",
      "type": "function"
    },
    {
      "inputs": [
        {
          "internalType": "address",
          "name": "spender",
          "type": "address"
        },
        {
          "internalType": "uint256",
          "name": "addedValue",
          "type": "uint256"
        }
      ],
      "name": "increaseAllowance",
      "outputs": [
        {
          "internalType": "bool",
          "name": "",
          "type": "bool"
        }
      ],
      "stateMutability": "nonpayable",
      "type": "function"
    },
    {
      "inputs": [
        {
          "internalType": "address",
          "name": "account",
          "type": "address"
        },
        {
          "internalType": "uint256",
          "name": "amount",
          "type": "uint256"
        }
      ],
      "name": "mint",
      "outputs": [],
      "stateMutability": "nonpayable",
      "type": "function"
    },
    {
      "inputs": [],
      "name": "name",
      "outputs": [
        {
          "internalType": "string",
          "name": "",
          "type": "string"
        }
      ],
      "stateMutability": "view",
      "type": "function"
    },
    {
      "inputs": [],
      "name": "owner",
      "outputs": [
        {
          "internalType": "address",
          "name": "",
          "type": "address"
        }
      ],
      "stateMutability": "view",
      "type": "function"
    },
    {
      "inputs": [],
      "name": "renounceOwnership",
      "outputs": [],
      "stateMutability": "nonpayable",
      "type": "function"
    },
    {
      "inputs": [],
      "name": "symbol",
      "outputs": [
        {
          "internalType": "string",
          "name": "",
          "type": "string"
        }
      ],
      "stateMutability": "view",
      "type": "function"
    },
    {
      "inputs": [],
      "name": "totalSupply",
      "outputs": [
        {
          "internalType": "uint256",
          "name": "",
          "type": "uint256"
        }
      ],
      "stateMutability": "view",
      "type": "function"
    },
    {
      "inputs": [
        {
          "internalType": "address",
          "name": "to",
          "type": "address"
        },
        {
          "internalType": "uint256",
          "name": "amount",
          "type": "uint256"
        }
      ],
      "name": "transfer",
      "outputs": [
        {
          "internalType": "bool",
          "name": "",
          "type": "bool"
        }
      ],
      "stateMutability": "nonpayable",
      "type": "function"
    },
    {
      "inputs": [
        {
          "internalType": "address",
          "name": "from",
          "type": "address"
        },
        {
          "internalType": "address",
          "name": "to",
          "type": "address"
        },
        {
          "internalType": "uint256",
          "name": "amount",
          "type": "uint256"
        }
      ],
      "name": "transferFrom",
      "outputs": [
        {
          "internalType": "bool",
          "name": "",
          "type": "bool"
        }
      ],
      "stateMutability": "nonpayable",
      "type": "function"
    },
    {
      "inputs": [
        {
          "internalType": "address",
          "name": "newOwner",
          "type": "address"
        }
      ],
      "name": "transferOwnership",
      "outputs": [],
      "stateMutability": "nonpayable",
      "type": "function"
    },
    {
      "inputs": [
        {
          "internalType": "address",
          "name": "dest",
          "type": "address"
        },
        {
          "internalType": "uint256",
          "name": "amount",
          "type": "uint256"
        }
      ],
      "name": "withdrawShare",
      "outputs": [],
      "stateMutability": "nonpayable",
      "type": "function"
    }
  ],
  "bytecode": "0x6080604052600680546001600160a01b03191690553480156200002157600080fd5b506040518060400160405280600981526020016822a920903a37b5b2b760b91b8152506040518060400160405280600381526020016245524160e81b8152508160039080519060200190620000789291906200011a565b5080516200008e9060049060208401906200011a565b505050620000ab620000a5620000c460201b60201c565b620000c8565b6005805460ff60a01b1916600960a11b179055620001fd565b3390565b600580546001600160a01b038381166001600160a01b0319831681179093556040519116919082907f8be0079c531659141344cd1fd0a4f28419497f9722a3daafe3b4186f6b6457e090600090a35050565b8280546200012890620001c0565b90600052602060002090601f0160209004810192826200014c576000855562000197565b82601f106200016757805160ff191683800117855562000197565b8280016001018555821562000197579182015b82811115620001975782518255916020019190600101906200017a565b50620001a5929150620001a9565b5090565b5b80821115620001a55760008155600101620001aa565b600281046001821680620001d557607f821691505b60208210811415620001f757634e487b7160e01b600052602260045260246000fd5b50919050565b610ed3806200020d6000396000f3fe608060405234801561001057600080fd5b50600436106100f15760003560e01c806303c17172146100f657806306fdde031461010b578063095ea7b31461012957806318160ddd1461014957806323b872dd1461015e578063313ce56714610171578063395093511461018657806340c10f191461019957806370a08231146101ac578063715018a6146101bf5780638da5cb5b146101c757806395d89b41146101dc5780639dc29fac146101e4578063a02330a8146101f7578063a457c2d71461020a578063a9059cbb1461021d578063d102de2814610230578063dd62ed3e14610238578063f2fde38b1461024b575b600080fd5b610109610104366004610a12565b61025e565b005b610113610283565b6040516101209190610a5a565b60405180910390f35b61013c610137366004610a12565b610315565b6040516101209190610a4f565b610151610337565b6040516101209190610de6565b61013c61016c3660046109d7565b61033d565b61017961036b565b6040516101209190610def565b61013c610194366004610a12565b61037b565b6101096101a7366004610a12565b6103a7565b6101516101ba366004610984565b6103e4565b610109610403565b6101cf610417565b6040516101209190610a3b565b610113610426565b6101096101f2366004610a12565b610435565b610109610205366004610984565b61043f565b61013c610218366004610a12565b610469565b61013c61022b366004610a12565b6104b1565b6101cf6104c9565b6101516102463660046109a5565b6104cd565b610109610259366004610984565b6104f8565b6006546001600160a01b0316331461027557600080fd5b61027f82826103a7565b5050565b60606003805461029290610e2c565b80601f01602080910402602001604051908101604052809291908181526020018280546102be90610e2c565b801561030b5780601f106102e05761010080835404028352916020019161030b565b820191906000526020600020905b8154815290600101906020018083116102ee57829003601f168201915b5050505050905090565b600080610320610532565b905061032d818585610536565b5060019392505050565b60025490565b600080610348610532565b90506103558582856105ea565b610360858585610634565b506001949350505050565b600554600160a01b900460ff1690565b600080610386610532565b905061032d81858561039885896104cd565b6103a29190610dfd565b610536565b6006546001600160a01b031633146103da5760405162461bcd60e51b81526004016103d190610c6c565b60405180910390fd5b61027f8282610746565b6001600160a01b0381166000908152602081905260409020545b919050565b61040b6107fc565b610415600061083b565b565b6005546001600160a01b031690565b60606004805461029290610e2c565b61027f828261088d565b6104476107fc565b600680546001600160a01b0319166001600160a01b0392909216919091179055565b600080610474610532565b9050600061048282866104cd565b9050838110156104a45760405162461bcd60e51b81526004016103d190610d6a565b6103608286868403610536565b6000806104bc610532565b905061032d818585610634565b3090565b6001600160a01b03918216600090815260016020908152604080832093909416825291909152205490565b6105006107fc565b6001600160a01b0381166105265760405162461bcd60e51b81526004016103d190610b32565b61052f8161083b565b50565b3390565b6001600160a01b03831661055c5760405162461bcd60e51b81526004016103d190610d26565b6001600160a01b0382166105825760405162461bcd60e51b81526004016103d190610b78565b6001600160a01b0380841660008181526001602090815260408083209487168084529490915290819020849055517f8c5be1e5ebec7d5bd14f71427d1e84f3dd0314c0f7b2291e5b200ac8c7c3b925906105dd908590610de6565b60405180910390a3505050565b60006105f684846104cd565b9050600019811461062e57818110156106215760405162461bcd60e51b81526004016103d190610bba565b61062e8484848403610536565b50505050565b6001600160a01b03831661065a5760405162461bcd60e51b81526004016103d190610ce1565b6001600160a01b0382166106805760405162461bcd60e51b81526004016103d190610aad565b61068b838383610968565b6001600160a01b038316600090815260208190526040902054818110156106c45760405162461bcd60e51b81526004016103d190610bf1565b6001600160a01b038085166000908152602081905260408082208585039055918516815290812080548492906106fb908490610dfd565b92505081905550826001600160a01b0316846001600160a01b0316600080516020610e7e833981519152846040516107339190610de6565b60405180910390a361062e848484610968565b6001600160a01b03821661076c5760405162461bcd60e51b81526004016103d190610daf565b61077860008383610968565b806002600082825461078a9190610dfd565b90915550506001600160a01b038216600090815260208190526040812080548392906107b7908490610dfd565b90915550506040516001600160a01b03831690600090600080516020610e7e833981519152906107e8908590610de6565b60405180910390a361027f60008383610968565b610804610532565b6001600160a01b0316610815610417565b6001600160a01b0316146104155760405162461bcd60e51b81526004016103d190610c37565b600580546001600160a01b038381166001600160a01b0319831681179093556040519116919082907f8be0079c531659141344cd1fd0a4f28419497f9722a3daafe3b4186f6b6457e090600090a35050565b6001600160a01b0382166108b35760405162461bcd60e51b81526004016103d190610ca0565b6108bf82600083610968565b6001600160a01b038216600090815260208190526040902054818110156108f85760405162461bcd60e51b81526004016103d190610af0565b6001600160a01b0383166000908152602081905260408120838303905560028054849290610927908490610e15565b90915550506040516000906001600160a01b03851690600080516020610e7e83398151915290610958908690610de6565b60405180910390a3610968836000845b505050565b80356001600160a01b03811681146103fe57600080fd5b600060208284031215610995578081fd5b61099e8261096d565b9392505050565b600080604083850312156109b7578081fd5b6109c08361096d565b91506109ce6020840161096d565b90509250929050565b6000806000606084860312156109eb578081fd5b6109f48461096d565b9250610a026020850161096d565b9150604084013590509250925092565b60008060408385031215610a24578182fd5b610a2d8361096d565b946020939093013593505050565b6001600160a01b0391909116815260200190565b901515815260200190565b6000602080835283518082850152825b81811015610a8657858101830151858201604001528201610a6a565b81811115610a975783604083870101525b50601f01601f1916929092016040019392505050565b60208082526023908201527f45524332303a207472616e7366657220746f20746865207a65726f206164647260408201526265737360e81b606082015260800190565b60208082526022908201527f45524332303a206275726e20616d6f756e7420657863656564732062616c616e604082015261636560f01b606082015260800190565b60208082526026908201527f4f776e61626c653a206e6577206f776e657220697320746865207a65726f206160408201526564647265737360d01b606082015260800190565b60208082526022908201527f45524332303a20617070726f766520746f20746865207a65726f206164647265604082015261737360f01b606082015260800190565b6020808252601d908201527f45524332303a20696e73756666696369656e7420616c6c6f77616e6365000000604082015260600190565b60208082526026908201527f45524332303a207472616e7366657220616d6f756e7420657863656564732062604082015265616c616e636560d01b606082015260800190565b6020808252818101527f4f776e61626c653a2063616c6c6572206973206e6f7420746865206f776e6572604082015260600190565b6020808252601a90820152791bdb9b1e481b5a5b9d1058d8d95cdcdbdc8818d85b881b5a5b9d60321b604082015260600190565b60208082526021908201527f45524332303a206275726e2066726f6d20746865207a65726f206164647265736040820152607360f81b606082015260800190565b60208082526025908201527f45524332303a207472616e736665722066726f6d20746865207a65726f206164604082015264647265737360d81b606082015260800190565b60208082526024908201527f45524332303a20617070726f76652066726f6d20746865207a65726f206164646040820152637265737360e01b606082015260800190565b60208082526025908201527f45524332303a2064656372656173656420616c6c6f77616e63652062656c6f77604082015264207a65726f60d81b606082015260800190565b6020808252601f908201527f45524332303a206d696e7420746f20746865207a65726f206164647265737300604082015260600190565b90815260200190565b60ff91909116815260200190565b60008219821115610e1057610e10610e67565b500190565b600082821015610e2757610e27610e67565b500390565b600281046001821680610e4057607f821691505b60208210811415610e6157634e487b7160e01b600052602260045260246000fd5b50919050565b634e487b7160e01b600052601160045260246000fdfeddf252ad1be2c89b69c2b068fc378daa952ba7f163c4a11628f55a4df523b3efa264697066735822122058e7480a5a290a5a1d329fd0789842dab5be9a0218d09478c321333ee91639a664736f6c63430008010033",
  "linkReferences": {},
  "deployedLinkReferences": {}
}