{
  "_format": "hh-sol-artifact-1",
  "contractName": "ERA",
  "sourceName": "contracts/ERA.sol",
  "abi": [
    {
      "inputs": [],
      "stateMutability": "nonpayable",
      "type": "constructor"
    },
    {
      "anonymous": false,
      "inputs": [
        {
          "indexed": true,
          "internalType": "address",
          "name": "owner",
          "type": "address"
        },
        {
          "indexed": true,
          "internalType": "address",
          "name": "spender",
          "type": "address"
        },
        {
          "indexed": false,
          "internalType": "uint256",
          "name": "value",
          "type": "uint256"
        }
      ],
      "name": "Approval",
      "type": "event"
    },
    {
      "anonymous": false,
      "inputs": [
        {
          "indexed": true,
          "internalType": "address",
          "name": "previousOwner",
          "type": "address"
        },
        {
          "indexed": true,
          "internalType": "address",
          "name": "newOwner",
          "type": "address"
        }
      ],
      "name": "OwnershipTransferred",
      "type": "event"
    },
    {
      "anonymous": false,
      "inputs": [
        {
          "indexed": true,
          "internalType": "address",
          "name": "from",
          "type": "address"
        },
        {
          "indexed": true,
          "internalType": "address",
          "name": "to",
          "type": "address"
        },
        {
          "indexed": false,
          "internalType": "uint256",
          "name": "value",
          "type": "uint256"
        }
      ],
      "name": "Transfer",
      "type": "event"
    },
    {
      "inputs": [
        {
          "internalType": "address",
          "name": "owner",
          "type": "address"
        },
        {
          "internalType": "address",
          "name": "spender",
          "type": "address"
        }
      ],
      "name": "allowance",
      "outputs": [
        {
          "internalType": "uint256",
          "name": "",
          "type": "uint256"
        }
      ],
      "stateMutability": "view",
      "type": "function"
    },
    {
      "inputs": [
        {
          "internalType": "address",
          "name": "spender",
          "type": "address"
        },
        {
          "internalType": "uint256",
          "name": "amount",
          "type": "uint256"
        }
      ],
      "name": "approve",
      "outputs": [
        {
          "internalType": "bool",
          "name": "",
          "type": "bool"
        }
      ],
      "stateMutability": "nonpayable",
      "type": "function"
    },
    {
      "inputs": [
        {
          "internalType": "address",
          "name": "account",
          "type": "address"
        }
      ],
      "name": "balanceOf",
      "outputs": [
        {
          "internalType": "uint256",
          "name": "",
          "type": "uint256"
        }
      ],
      "stateMutability": "view",
      "type": "function"
    },
    {
      "inputs": [
        {
          "internalType": "address",
          "name": "account",
          "type": "address"
        },
        {
          "internalType": "uint256",
          "name": "amount",
          "type": "uint256"
        }
      ],
      "name": "burn",
      "outputs": [],
      "stateMutability": "nonpayable",
      "type": "function"
    },
    {
      "inputs": [
        {
          "internalType": "address",
          "name": "_mintAccessor",
          "type": "address"
        }
      ],
      "name": "changeMintAccessor",
      "outputs": [],
      "stateMutability": "nonpayable",
      "type": "function"
    },
    {
      "inputs": [],
      "name": "decimals",
      "outputs": [
        {
          "internalType": "uint8",
          "name": "",
          "type": "uint8"
        }
      ],
      "stateMutability": "view",
      "type": "function"
    },
    {
      "inputs": [
        {
          "internalType": "address",
          "name": "spender",
          "type": "address"
        },
        {
          "internalType": "uint256",
          "name": "subtractedValue",
          "type": "uint256"
        }
      ],
      "name": "decreaseAllowance",
      "outputs": [
        {
          "internalType": "bool",
          "name": "",
          "type": "bool"
        }
      ],
      "stateMutability": "nonpayable",
      "type": "function"
    },
    {
      "inputs": [],
      "name": "getEraContractAddress",
      "outputs": [
        {
          "internalType": "address",
          "name": "EraContract",
          "type": "address"
        }
      ],
      "stateMutability": "view",
      "type": "function"
    },
    {
      "inputs": [
        {
          "internalType": "address",
          "name": "spender",
          "type": "address"
        },
        {
          "internalType": "uint256",
          "name": "addedValue",
          "type": "uint256"
        }
      ],
      "name": "increaseAllowance",
      "outputs": [
        {
          "internalType": "bool",
          "name": "",
          "type": "bool"
        }
      ],
      "stateMutability": "nonpayable",
      "type": "function"
    },
    {
      "inputs": [
        {
          "internalType": "address",
          "name": "account",
          "type": "address"
        },
        {
          "internalType": "uint256",
          "name": "amount",
          "type": "uint256"
        }
      ],
      "name": "mint",
      "outputs": [],
      "stateMutability": "nonpayable",
      "type": "function"
    },
    {
      "inputs": [],
      "name": "name",
      "outputs": [
        {
          "internalType": "string",
          "name": "",
          "type": "string"
        }
      ],
      "stateMutability": "view",
      "type": "function"
    },
    {
      "inputs": [],
      "name": "owner",
      "outputs": [
        {
          "internalType": "address",
          "name": "",
          "type": "address"
        }
      ],
      "stateMutability": "view",
      "type": "function"
    },
    {
      "inputs": [],
      "name": "renounceOwnership",
      "outputs": [],
      "stateMutability": "nonpayable",
      "type": "function"
    },
    {
      "inputs": [],
      "name": "symbol",
      "outputs": [
        {
          "internalType": "string",
          "name": "",
          "type": "string"
        }
      ],
      "stateMutability": "view",
      "type": "function"
    },
    {
      "inputs": [],
      "name": "totalSupply",
      "outputs": [
        {
          "internalType": "uint256",
          "name": "",
          "type": "uint256"
        }
      ],
      "stateMutability": "view",
      "type": "function"
    },
    {
      "inputs": [
        {
          "internalType": "address",
          "name": "to",
          "type": "address"
        },
        {
          "internalType": "uint256",
          "name": "amount",
          "type": "uint256"
        }
      ],
      "name": "transfer",
      "outputs": [
        {
          "internalType": "bool",
          "name": "",
          "type": "bool"
        }
      ],
      "stateMutability": "nonpayable",
      "type": "function"
    },
    {
      "inputs": [
        {
          "internalType": "address",
          "name": "from",
          "type": "address"
        },
        {
          "internalType": "address",
          "name": "to",
          "type": "address"
        },
        {
          "internalType": "uint256",
          "name": "amount",
          "type": "uint256"
        }
      ],
      "name": "transferFrom",
      "outputs": [
        {
          "internalType": "bool",
          "name": "",
          "type": "bool"
        }
      ],
      "stateMutability": "nonpayable",
      "type": "function"
    },
    {
      "inputs": [
        {
          "internalType": "address",
          "name": "newOwner",
          "type": "address"
        }
      ],
      "name": "transferOwnership",
      "outputs": [],
      "stateMutability": "nonpayable",
      "type": "function"
    },
    {
      "inputs": [
        {
          "internalType": "address",
          "name": "dest",
          "type": "address"
        },
        {
          "internalType": "uint256",
          "name": "amount",
          "type": "uint256"
        }
      ],
      "name": "withdrawShare",
      "outputs": [],
      "stateMutability": "nonpayable",
      "type": "function"
    }
  ],
  "bytecode": "0x608060405260078054610100600160a81b03191690553480156200002257600080fd5b506040518060400160405280600981526020016822a920903a37b5b2b760b91b8152506040518060400160405280600381526020016245524160e81b8152508160039080519060200190620000799291906200013b565b5080516200008f9060049060208401906200013b565b505050620000ac620000a6620000e560201b60201c565b620000e9565b6007805460ff191660121790819055620000cb9060ff16600a6200022e565b620000dc9064e8d4a5100062000326565b6006556200039b565b3390565b600580546001600160a01b038381166001600160a01b0319831681179093556040519116919082907f8be0079c531659141344cd1fd0a4f28419497f9722a3daafe3b4186f6b6457e090600090a35050565b828054620001499062000348565b90600052602060002090601f0160209004810192826200016d5760008555620001b8565b82601f106200018857805160ff1916838001178555620001b8565b82800160010185558215620001b8579182015b82811115620001b85782518255916020019190600101906200019b565b50620001c6929150620001ca565b5090565b5b80821115620001c65760008155600101620001cb565b80825b6001808611620001f5575062000225565b8187048211156200020a576200020a62000385565b808616156200021857918102915b9490941c938002620001e4565b94509492505050565b60006200024260001960ff85168462000249565b9392505050565b6000826200025a5750600162000242565b81620002695750600062000242565b81600181146200028257600281146200028d57620002c1565b600191505062000242565b60ff841115620002a157620002a162000385565b6001841b915084821115620002ba57620002ba62000385565b5062000242565b5060208310610133831016604e8410600b8410161715620002f9575081810a83811115620002f357620002f362000385565b62000242565b620003088484846001620001e1565b8086048211156200031d576200031d62000385565b02949350505050565b600081600019048311821515161562000343576200034362000385565b500290565b6002810460018216806200035d57607f821691505b602082108114156200037f57634e487b7160e01b600052602260045260246000fd5b50919050565b634e487b7160e01b600052601160045260246000fd5b610ec080620003ab6000396000f3fe608060405234801561001057600080fd5b50600436106100f15760003560e01c806303c17172146100f657806306fdde031461010b578063095ea7b31461012957806318160ddd1461014957806323b872dd1461015e578063313ce56714610171578063395093511461018657806340c10f191461019957806370a08231146101ac578063715018a6146101bf5780638da5cb5b146101c757806395d89b41146101dc5780639dc29fac146101e4578063a02330a8146101f7578063a457c2d71461020a578063a9059cbb1461021d578063d102de2814610230578063dd62ed3e14610238578063f2fde38b1461024b575b600080fd5b6101096101043660046109ff565b61025e565b005b61011361026c565b6040516101209190610a47565b60405180910390f35b61013c6101373660046109ff565b6102fe565b6040516101209190610a3c565b610151610320565b6040516101209190610dd3565b61013c61016c3660046109c4565b610326565b610179610354565b6040516101209190610ddc565b61013c6101943660046109ff565b61035d565b6101096101a73660046109ff565b610389565b6101516101ba366004610971565b6103cb565b6101096103ea565b6101cf6103fe565b6040516101209190610a28565b61011361040d565b6101096101f23660046109ff565b61041c565b610109610205366004610971565b610426565b61013c6102183660046109ff565b610456565b61013c61022b3660046109ff565b61049e565b6101cf6104b6565b610151610246366004610992565b6104ba565b610109610259366004610971565b6104e5565b6102688282610389565b5050565b60606003805461027b90610e19565b80601f01602080910402602001604051908101604052809291908181526020018280546102a790610e19565b80156102f45780601f106102c9576101008083540402835291602001916102f4565b820191906000526020600020905b8154815290600101906020018083116102d757829003601f168201915b5050505050905090565b60008061030961051f565b9050610316818585610523565b5060019392505050565b60025490565b60008061033161051f565b905061033e8582856105d7565b610349858585610621565b506001949350505050565b60075460ff1690565b60008061036861051f565b905061031681858561037a85896104ba565b6103849190610dea565b610523565b60075461010090046001600160a01b031633146103c15760405162461bcd60e51b81526004016103b890610c59565b60405180910390fd5b6102688282610733565b6001600160a01b0381166000908152602081905260409020545b919050565b6103f26107e9565b6103fc6000610828565b565b6005546001600160a01b031690565b60606004805461027b90610e19565b610268828261087a565b61042e6107e9565b600780546001600160a01b0390921661010002610100600160a81b0319909216919091179055565b60008061046161051f565b9050600061046f82866104ba565b9050838110156104915760405162461bcd60e51b81526004016103b890610d57565b6103498286868403610523565b6000806104a961051f565b9050610316818585610621565b3090565b6001600160a01b03918216600090815260016020908152604080832093909416825291909152205490565b6104ed6107e9565b6001600160a01b0381166105135760405162461bcd60e51b81526004016103b890610b1f565b61051c81610828565b50565b3390565b6001600160a01b0383166105495760405162461bcd60e51b81526004016103b890610d13565b6001600160a01b03821661056f5760405162461bcd60e51b81526004016103b890610b65565b6001600160a01b0380841660008181526001602090815260408083209487168084529490915290819020849055517f8c5be1e5ebec7d5bd14f71427d1e84f3dd0314c0f7b2291e5b200ac8c7c3b925906105ca908590610dd3565b60405180910390a3505050565b60006105e384846104ba565b9050600019811461061b578181101561060e5760405162461bcd60e51b81526004016103b890610ba7565b61061b8484848403610523565b50505050565b6001600160a01b0383166106475760405162461bcd60e51b81526004016103b890610cce565b6001600160a01b03821661066d5760405162461bcd60e51b81526004016103b890610a9a565b610678838383610955565b6001600160a01b038316600090815260208190526040902054818110156106b15760405162461bcd60e51b81526004016103b890610bde565b6001600160a01b038085166000908152602081905260408082208585039055918516815290812080548492906106e8908490610dea565b92505081905550826001600160a01b0316846001600160a01b0316600080516020610e6b833981519152846040516107209190610dd3565b60405180910390a361061b848484610955565b6001600160a01b0382166107595760405162461bcd60e51b81526004016103b890610d9c565b61076560008383610955565b80600260008282546107779190610dea565b90915550506001600160a01b038216600090815260208190526040812080548392906107a4908490610dea565b90915550506040516001600160a01b03831690600090600080516020610e6b833981519152906107d5908590610dd3565b60405180910390a361026860008383610955565b6107f161051f565b6001600160a01b03166108026103fe565b6001600160a01b0316146103fc5760405162461bcd60e51b81526004016103b890610c24565b600580546001600160a01b038381166001600160a01b0319831681179093556040519116919082907f8be0079c531659141344cd1fd0a4f28419497f9722a3daafe3b4186f6b6457e090600090a35050565b6001600160a01b0382166108a05760405162461bcd60e51b81526004016103b890610c8d565b6108ac82600083610955565b6001600160a01b038216600090815260208190526040902054818110156108e55760405162461bcd60e51b81526004016103b890610add565b6001600160a01b0383166000908152602081905260408120838303905560028054849290610914908490610e02565b90915550506040516000906001600160a01b03851690600080516020610e6b83398151915290610945908690610dd3565b60405180910390a3610955836000845b505050565b80356001600160a01b03811681146103e557600080fd5b600060208284031215610982578081fd5b61098b8261095a565b9392505050565b600080604083850312156109a4578081fd5b6109ad8361095a565b91506109bb6020840161095a565b90509250929050565b6000806000606084860312156109d8578081fd5b6109e18461095a565b92506109ef6020850161095a565b9150604084013590509250925092565b60008060408385031215610a11578182fd5b610a1a8361095a565b946020939093013593505050565b6001600160a01b0391909116815260200190565b901515815260200190565b6000602080835283518082850152825b81811015610a7357858101830151858201604001528201610a57565b81811115610a845783604083870101525b50601f01601f1916929092016040019392505050565b60208082526023908201527f45524332303a207472616e7366657220746f20746865207a65726f206164647260408201526265737360e81b606082015260800190565b60208082526022908201527f45524332303a206275726e20616d6f756e7420657863656564732062616c616e604082015261636560f01b606082015260800190565b60208082526026908201527f4f776e61626c653a206e6577206f776e657220697320746865207a65726f206160408201526564647265737360d01b606082015260800190565b60208082526022908201527f45524332303a20617070726f766520746f20746865207a65726f206164647265604082015261737360f01b606082015260800190565b6020808252601d908201527f45524332303a20696e73756666696369656e7420616c6c6f77616e6365000000604082015260600190565b60208082526026908201527f45524332303a207472616e7366657220616d6f756e7420657863656564732062604082015265616c616e636560d01b606082015260800190565b6020808252818101527f4f776e61626c653a2063616c6c6572206973206e6f7420746865206f776e6572604082015260600190565b6020808252601a90820152791bdb9b1e481b5a5b9d1058d8d95cdcdbdc8818d85b881b5a5b9d60321b604082015260600190565b60208082526021908201527f45524332303a206275726e2066726f6d20746865207a65726f206164647265736040820152607360f81b606082015260800190565b60208082526025908201527f45524332303a207472616e736665722066726f6d20746865207a65726f206164604082015264647265737360d81b606082015260800190565b60208082526024908201527f45524332303a20617070726f76652066726f6d20746865207a65726f206164646040820152637265737360e01b606082015260800190565b60208082526025908201527f45524332303a2064656372656173656420616c6c6f77616e63652062656c6f77604082015264207a65726f60d81b606082015260800190565b6020808252601f908201527f45524332303a206d696e7420746f20746865207a65726f206164647265737300604082015260600190565b90815260200190565b60ff91909116815260200190565b60008219821115610dfd57610dfd610e54565b500190565b600082821015610e1457610e14610e54565b500390565b600281046001821680610e2d57607f821691505b60208210811415610e4e57634e487b7160e01b600052602260045260246000fd5b50919050565b634e487b7160e01b600052601160045260246000fdfeddf252ad1be2c89b69c2b068fc378daa952ba7f163c4a11628f55a4df523b3efa2646970667358221220cb80c8fbeeb34f8c8c7b857313af9e6bcd4853dbb87c9e2039d180aa1c67c7d564736f6c63430008010033",
  "linkReferences": {},
  "deployedLinkReferences": {}
}